:020000040800F2
:10000000980B0020ED010008BF3000084F2C0008BD
:10001000BD300008990F0008993700080000000063
:100020000000000000000000000000008F31000808
:100030009B0F0008000000000D31000891310008FE
:10004000070200080702000807020008070200086C
:10005000070200080702000807020008070200085C
:10006000070200080702000807020008070200084C
:10007000070200080702000807020008070200083C
:10008000070200080702000807020008070200082C
:10009000070200080702000807020008070200081C
:1000A000070200080702000807020008070200080C
:1000B0001932000825320008313200080702000812
:1000C00007020008070200080702000807020008EC
:1000D00007020008070200080937000807020008A5
:1000E00007020008070200080702000807020008CC
:1000F00007020008070200080702000807020008BC
:1001000007020008070200083D3200080702000845
:10011000ED34000807020008493200080702000811
:10012000070200080702000807020008070200088B
:1001300000F002F800F04AF80AA090E8000C8244AF
:100140008344AAF10107DA4501D100F03FF8AFF28C
:10015000090EBAE80F0013F0010F18BFFB1A43F0A5
:1001600001031847203D0000403D0000103A24BF25
:1001700078C878C1FAD8520724BF30C830C144BF0C
:1001800004680C607047000000230024002500264E
:10019000103A28BF78C1FBD8520728BF30C148BFEA
:1001A0000B607047642900F0AB80632900F09381F5
:1001B000002070471FB59DE8030000F0BFFC00F071
:1001C000C5F91FBD10B500F02AFA10BD00F08DFA78
:1001D0001146FFF7EFFF03F0FDFA00F07DFC03B4DA
:1001E000FFF7F0FF03BC00F03BFE0000094880472A
:1001F00009480047FEE7FEE7FEE7FEE7FEE7FEE709
:10020000FEE7FEE7FEE7FEE704480549054A064B20
:1002100070470000153200083101000898050020E1
:10022000980B002098070020980700200FB404497D
:1002300010B503AA029800F05BF910BC5DF814FB3E
:10024000900400202DE9F0410E4604460020206273
:100250002046E168884730B3252805D0D4E901213C
:100260009047206A401CF2E7E16820460027884753
:10027000050018D0A5F14100192802D820354FF407
:1002800000673246294620462760FFF78BFF40B1C2
:10029000012804D0F61D26F007060836D8E7361DDB
:1002A000D6E72846DAE7206ABDE8F08170B50C464B
:1002B0000546012A05D02878800600D5EA69002382
:1002C00002E0012305E05B1C934202D2E05C0028BF
:1002D000F9D1A869E618C01AA861286A18442862EA
:1002E0002846AFF3008004E0D5E9012114F8010BA2
:1002F0009047B442F8D32846AFF3008070BD0000A9
:100300002DE9F0410646002410687529314616A5EE
:1003100010D0AFF30080002802DA404213A507E0B6
:1003200031688A0701D512A502E0490704D511A555
:10033000012401E0AFF3008000210A2206F1240726
:1003400009E0B0FBF2FCB0FBF2F302FB1C00303022
:1003500078541846491C0028F3D123462A463046D3
:10036000BDE8F04100F054B8000000002D0000008E
:100370002B000000200000004FF000020429C0F014
:10038000128010F0030C00F01B80CCF1040CBCF1C7
:10039000020F18BF00F8012BA8BF20F8022BA1EB19
:1003A0000C0100F00DB85FEAC17C24BF00F8012BFE
:1003B00000F8012B48BF00F8012B70474FF00002F6
:1003C00000B5134694469646203922BFA0E80C504B
:1003D000A0E80C50B1F12001BFF4F7AF090728BF26
:1003E000A0E80C5048BF0CC05DF804EB890028BFA2
:1003F00040F8042B08BF704748BF20F8022B11F0CB
:10040000804F18BF00F8012B704770477047704746
:100410002DE9F0470D4699469246044600F124081E
:100420000168880604D5E06921F01001216000E030
:100430000120A84201DD471B00E00027A1697A19CD
:1004400002EB0900081AA0612078C00602D42046F9
:10045000AFF30080002608E0D4E901211AF8060075
:100460009047206A401C761C20624E45F4DB2078C1
:10047000C0060AD52046AFF3008006E0D4E901218A
:1004800030209047206A401C2062381EA7F10107E7
:10049000F4DC07E0D4E9012118F805009047206A50
:1004A000401C2062281EA5F10105F3DC2046AFF3B5
:1004B00000802078000602D50220BDE8F0870120E8
:1004C000FBE710B5436913B1AFF3008001E0FFF71C
:1004D000EDFE012010BD127800F124010A70002207
:1004E0004A700122EDE711684FF0FF32E9E70000A2
:1004F000074B70B50D467B4400F011F804462846C2
:1005000000F020F810B14FF0FF3070BD204670BDF4
:10051000C132000001694A1C02610878704700B5C9
:100520008FB0CDE901310021059105497944CDE92C
:10053000031011466846FFF785FE0FB000BD0000AE
:10054000E5FFFFFF007B00F08000704710B54248D8
:100550005421FFF733FF41485421FFF72FFF404854
:100560005421FFF72BFF3F493B483C4A3F4B086073
:100570003D490A603A491960531C0365481C1065DF
:10058000012008653B48344A39A1784400F008FA54
:1005900020B9384878440A3800F0A7FA37482F4A7B
:1005A00035A1784400F0FCF920B9344878440A3881
:1005B00000F09BFA32482A4A2FA1784400F0F0F963
:1005C00020B92F4878440A3800F08FFA4023224897
:1005D000DC000021224600F0BFF920B12548784414
:1005E000543800F082FA1D4822464023002100F0D2
:1005F000B3F920B121487844543800F076FA18480D
:1006000022461023002100F0A7F9002806D01C483C
:100610007844BDE81040563800F067BA10BD104865
:1006200070B5006D20F001040B4800F02FFA0B4864
:1006300000F02CFA0A4800F029FA09E0206D20F0B9
:100640000105204600F022FA204600F073F82C46FF
:10065000002CF3D170BD00003C0400209004002069
:10066000E4040020180000201C00002020000020CE
:1006700072000000E838000077000000D438000065
:10068000C03800000EB5CDE9000100F0C9FB0290B2
:1006900069460120ABBE0EBD08B569460090022038
:1006A000ABBE08BD1FB58DE8070069460520ABBE8F
:1006B00004B010BD1FB58DE80F0069460620ABBE23
:1006C000F6E708B5694600900920ABBE08BD1CB529
:1006D000CDE9000169460A20ABBE1CBD704708B5D4
:1006E000694600900C20ABBE08BD754600F004FAC8
:1006F000AE4605006946534620F00700854618B00F
:1007000020B5FFF781FDBDE820404FF000064FF017
:1007100000074FF000084FF0000B21F00701AC4636
:10072000ACE8C009ACE8C009ACE8C009ACE8C00955
:100730008D46704770B50446051F00F0E3F9006868
:10074000002C14BF446870BD002C18BFAC423CBFE5
:1007500020466468F8D301680A18AA4218BF4560A9
:1007600003D12A6805461144016028684119A14255
:100770001CBF6C6070BD61686960216808442860B6
:1007800070BD2DE9F04705460C46C86820F42010DE
:1007900040F48000C860800602D5084600F0FFFAE9
:1007A000E06841F282014FF0FF390140022903D095
:1007B000204600F09DFAB5E000F42041B1F5004F6D
:1007C0000FD1C00306D56168E06A884200D80846A8
:1007D000606006E02069E06260606069FFF77FFFAB
:1007E000A061A0680022EEB200280DDAE1688B0556
:1007F0000AD4C043A06041F490302260E060606899
:10080000411C61600670A5E0E0689046226040F4FB
:100810000050E060206968BB6069FFF752FF012764
:1008200004F12405A0B1A08910F4407F08D0E0694C
:1008300000F0B3F9206118B1E06840F4006016E000
:10084000E7612561E06820F4407040F480600EE0CC
:10085000E06900F0A2F900282061F1D0E06840F4DE
:10086000006010F4407FE06002D140F48070E060EE
:1008700020696060E06825696FF0010AC1051FD535
:100880006168E06A884200D80846411B04D02246CD
:10089000284600F037FAF0BBE068010203D5E562B4
:1008A000C4E9015854E0691CE1626160E16940F407
:1008B0008030491EC4E9021030462E70BDE8F08732
:1008C000010202D500F480320AE06068411C6160D8
:1008D0000670E0680A2E40F48030E06006D0002206
:1008E000E16A6068814203D90B4602E00122F7E722
:1008F0000346A7895B1B7F0503D4E7699F4200DDA0
:10090000E2B1814200D80146E5620F1AC4E90158FC
:10091000002B09DD00E005E022461946284600F0DC
:10092000F1F908B14846C9E747B1A069E5626560D9
:10093000C01BA061E06840F01000E060E0680002C9
:1009400008D56168A069E562491B08446560A0613B
:100950005046B3E73046B1E770B5C468A50713D079
:10096000650211D4B2F5807F09D0B2F5007F06D0C0
:10097000B2F5806F08D1012300F1240106E05D1E6D
:100980006FF07F46B54201D3012070BD0161C361A4
:10099000416024F470611143C160002070BD00000B
:1009A0002DE9F0410C4607461646104600F06EF859
:1009B0002078611C61280AD0722802D077283CD1A7
:1009C00002E00125002405E00225042402E00824B9
:1009D00048F2020511F8010B2B2806D0622809D035
:1009E00011F8010C74280AD00BE045F0030544F01F
:1009F0000204EFE745F0040544F00104EAE744F09F
:100A0000100438462146FFF73DFE411C15D0002159
:100A1000316171604FF40071F560F1617061200720
:100A200004D530460222002100F0E6F8306D40F097
:100A3000010030653046BDE8F0810020FBE72DE97C
:100A4000F0410D460646104C206DC10704D0410808
:100A500004D020F00104F7E722460EE0542000F015
:100A60009CF807000ED0206D47F001010843542187
:100A700020653846FFF7A2FC3A4629463046BDE8D5
:100A8000F0418DE70020D6E73C0400202DE9F04737
:100A900004464FF000094FF0FF37C568D4E90486DB
:100AA000A80707D0204600F057F93046FFF7F4FDBD
:100AB000002802DA3846BDE8F087280502D540460E
:100AC000FFF738FE4C212046FFF778FC206D20F020
:100AD000010020654846EEE710B50446AFF30080FC
:100AE0002046BDE81040FFF77ABB10B500F07EF954
:100AF000BDE8104000F074B9004870473805002088
:100B0000704700000048704740050020704770475C
:100B10007047704738B504460A4600206946AFF36F
:100B20000080002808BF38BD02460099204600F02A
:100B3000A4F9012038BD012000F0F3B9F8B5AFF3F6
:100B40000080054600200C46102000BF0646A8196C
:100B5000A0420DD9324669460020AFF3008007005D
:100B600008BF00F0DEF90098A04218BF0546C4197E
:100B7000FFF7C8FF05600746F01D20F00700461983
:100B8000284600F073F9B44208BFF8BDA21B3146F5
:100B90003868BDE8F84000F070B970B50646FFF758
:100BA000B1FF056806F10B0020F00704B4429CBFBA
:100BB000002070BD2B466A68BAB11068A04210D3FD
:100BC00004F1080188423CBF5068586007D351685F
:100BD000101941601168091B016058601460101DF4
:100BE00070BD13465268002AE7D121462846FFF718
:100BF00091FF0028DED170BD2DE9F0410446164674
:100C00000D464769007B80072ED03846FFF759FD17
:100C100050BB3EB3012E02D0022E25D104E0204667
:100C200000F045F905441DE03846FFF758FDE1683E
:100C3000002841F01001E16005DA204600F058F884
:100C40000120BDE8F081C9030BD56268E16A9142D9
:100C500000D81146A26911442269891A814200DD37
:100C600008460544002D01DA0220EAE7E16A6068DF
:100C7000E268814206D29103E06203D522F400319A
:100C800041F01002A6690027AE4213DCE16A8142FE
:100C900001D90B4600E0034603EB060C2369ACEBDD
:100CA000030CAC4506DD814201D98C4600E0844648
:100CB0009C4505D1A760276042F02000A5620DE0A9
:100CC000AD1BE669AE1B8142A66000D90846C01A7A
:100CD000281A20605819606022F02000034908405B
:100CE000E060002084F84870ABE70000BFCFD7FF7A
:100CF000C16821F4001141F08001C16000218160D0
:100D0000016070472DE9F047814614460E464FF0CA
:100D1000FF383248D5685769054209D03846A1697D
:100D2000FFF7D5FC002811DB2C48C0430540E560E7
:100D30002B46324649463846FFF7B4FCA16920F0FD
:100D40000042B21A11440028A16103D02046FFF7E7
:100D5000CFFF4046BDE8F08770B504460569C06A1C
:100D60006168884200D80846E16821F42011E160FA
:100D7000C90312D5A84208D02246411B2846FFF7D6
:100D8000C1FF10B14FF0FF3070BD0020E562C4E933
:100D90000150E06820F48030E060002070BD10B5A4
:100DA0000446C06820F02000E060A16AA069884283
:100DB0000DD02046FFF7D0FFE06820F4405040F00F
:100DC0001000E060A06AA0612069E062606044F207
:100DD0004001E0688843E06010BD000010000200A0
:100DE000002801D000F03CB87047000010B5014663
:100DF00002A000F07DF8012010BD000053494752C9
:100E0000545245443A2052656469726563743A20CD
:100E100063616E2774206F70656E3A2000000000D9
:100E200010B5431C02E010F8011B71B18107FAD123
:100E30004FF0013202C88C1A8C4314EAC211F9D067
:100E4000C01A0A0603D0C01E10BDC01A10BD0A0485
:100E500001D0801E10BD0902FCD0401E10BD000054
:100E600001491820ABBEFEE7260002000021016008
:100E7000C0E90110704710207047034640688C4657
:100E8000002818BF88423CBF03464068F8D3186862
:100E90001844884207D00CF1030020F00700001D21
:100EA000411A521A0146081D0A60FFF743BC10B5EB
:100EB0000146C268900703D0900607D5886A0AE009
:100EC00000F03EF801210160881E10BD8B69486862
:100ED00018440B69C01A91F848301BB191F84910B9
:100EE000401A10BD1103FCD50028FADD401E10BDCC
:100EF00070B505460C460A2000E06D1C00F018F89D
:100F000035B128780028F8D102E0641C00F010F810
:100F100014B120780028F8D1BDE870400A2000F014
:100F200007B810B500F010F8BDE81040FFF758BF43
:100F300008B569468DF800000320ABBE08BD00006F
:100F4000004870473805002010B5012805D0002161
:100F500003A0FFF7CDFF012010BD09A1F8E70000B5
:100F600053494752544D454D3A204F7574206F6692
:100F70002068656170206D656D6F727900000000FA
:100F80003A2048656170206D656D6F727920636FDE
:100F90007272757074656400FEE7704772B6FEE7A2
:100FA0002DE9F0470024494A23462546204621469C
:100FB000565C3D2E02D0212E0AD001E04C1CE4B23A
:100FC000491CC9B2C829F3D3115D2D2903D005E00E
:100FD000491ECBB2F8E7641CE4B20125191B491C79
:100FE000C9B23B4EDFF8ECA0042904D005291ED07D
:100FF00006293AD064E017199046F878303802F0A4
:10100000C3FD314602F0D8FD0646B878303802F00C
:10101000BBFD514602F0D0FD074618F804003038F9
:1010200002F0B2FD394602F031FD314646E01719B3
:1010300091463879303802F0A7FD314602F0BCFD08
:101040008046F878303802F09FFD514602F0B4FD3A
:10105000064619F804007978303800EB80006FF00C
:101060002F0202EB4000084422E0171991467879DC
:10107000303802F089FD314602F09EFD8046387915
:10108000303802F081FD514602F096FD064619F80F
:101090000400B978303800EBC00202EB001001EB1D
:1010A000800079780C4A01EB810102EB4101084490
:1010B00002F06AFD314602F0E9FC414602F0E6FC2E
:1010C000002D01D080F00040BDE8F08774030020BF
:1010D0000AD7233CCDCCCC3DF0FDFFFF10B590F8F6
:1010E00021100022022905D00421816380F82020EC
:1010F000012010BD01680B6823F00E030B6001682E
:101100000B6823F001030B6090F84030C46B0121A1
:1011100001FA03F3636080F8211080F82020104664
:1011200010BD00002DE9F05F90F821100024022985
:1011300003D004218163012485E001680A6822F05C
:101140000E020A6001680A6822F001020A603F4E3E
:101150003E4FB215DFF8F4C0DFF8F090DFF8ECA0F6
:10116000DFF8E8B0DFF8E4E00168783F130115022A
:10117000ACF1640CA9F15009AAF13C0AABF1280BBF
:10118000AEF1140E4FF48018B14227D9B9420ED0F7
:10119000614512D049451DD0514518D0594518D048
:1011A000714501D1424615E0294EB14201D10122DB
:1011B00010E0274E1436B14201D110220AE0244E2D
:1011C0002836B14206D0224A3C32914201D11A4619
:1011D00000E02A461E49091F0A602BE0B94213D0DD
:1011E000614517D0494522D051451DD059451DD0E4
:1011F000714501D142461AE0B14202D14FF08072EE
:1012000015E0134EB14201D1012210E0104E143608
:10121000B14201D110220AE00D4E2836B14206D06B
:101220000B4A3C32914201D11A4600E02A46074956
:1012300080394A60012180F82110002180F82010B7
:10124000416B01B188472046BDE8F09F8000024015
:101250000804024070B5044600F014F90546601C0D
:1012600002D004480078044400F00CF9401BA0426E
:10127000FAD370BD040000202DE9F84FDFF8C891C3
:101280000024A9F1040B23460F2709F1040AABF14E
:10129000040ED1E00125A54006EA0502AA4276D156
:1012A000DFF8A8C14E68A6EB0C0866452BD00DDC14
:1012B000032E34D005DC36B3012E19D0022E2FD1E7
:1012C0001BE0112E16D0122E2AD119E0B8F5881F76
:1012D00019D006DCB8F5803F15D0B8F5801F1FD1B6
:1012E00011E0B8F5001F0ED0B8F5041F18D10AE0C0
:1012F000CB6815E0CB681B1D12E0CB6808330FE00C
:10130000CB680C330CE08B682BB1012B4FF008033A
:1013100003D0456104E0042302E0056100E00023FE
:10132000FF2A01D8064601E000F104064FEA8405D1
:1013300001D9A5F12005D6F8008007FA05FC28EAB6
:101340000C0803FA05F548EA0508C6F800804D6860
:10135000ED0070D53E4DAE6946F00106AE61AD6957
:1013600024F0030605F0010500953A4D06EB050C47
:10137000DCF80850A607360F07FA06F825EA080534
:10138000DFF8D480404503D14FF0000825E052E05B
:10139000DFF8C880404502D14FF001081DE0DFF8BA
:1013A000C080404502D14FF0020816E0DFF8B4805B
:1013B000404502D14FF003080FE0DFF8AC80404514
:1013C00002D14FF0040808E0DFF8A080404502D1C8
:1013D0004FF0050801E04FF0060808FA06F848EA61
:1013E0000508CCF808804D68D9F80060ED024D463C
:1013F00001D5164300E096432E604D68DAF8006090
:10140000AD02554601D5164300E096432E604D6867
:10141000DBF80060AD035D4601D5164300E096435E
:101420002E604D68DEF80060ED03754601D5164369
:1014300000E096432E60641C0A681646E2407FF482
:1014400029AFBDE8F88F000008040140000011102A
:10145000001002400000014000080140000C014063
:10146000001001400014014000180140001C014020
:101470008068084000D0012070470AB101617047C0
:101480000904FBE701488068704700000400002061
:10149000024881680278114481607047040000208E
:1014A000074810B5016841F010010160032000F009
:1014B00075F80F2000F006F800F024F8002010BDA9
:1014C0000020024070B50D4D04464FF47A71287823
:1014D000B1FBF0F00A490968B1FBF0F000F035FC0F
:1014E00048B9102C07D200222146501E00F036F8D1
:1014F00000206C6070BD012070BD00000400002061
:10150000100000200C4808B5816941F0010181619B
:10151000816901F001010091C16941F08051C1610F
:10152000C06900F0805000900448416821F0E061FB
:1015300041F00071416008BD001002400000014010
:10154000002809DB00F01F020121914040098000C2
:1015500000F1E020C0F8001170470000F0B40E4B1D
:101560001B680C46C3F30223C3F10705042D00D901
:101570000425191D072901D2002300E0DB1E0126E6
:1015800006FA05F1491E214099409E40761E1640FC
:101590003143F0BC02F001B90CED00E0064900F067
:1015A000070208684FF6FF03184040EA0220034A8A
:1015B00010430860704700000CED00E00000FA05E1
:1015C000014901200862704700000E4210B5014633
:1015D0000020284C04292FD00BDC012930D002290F
:1015E00029D100F06BF96168C1F38131491C4900D0
:1015F0001FE0082920D010291DD161682268D2017E
:1016000019D51D48C1F38342C903805C0AD56168BE
:10161000194AC1F34041921E515C184AB2FBF1F1E4
:10162000484301E0164948436168490203D4400039
:101630000321B0FBF1F010BDBDE8104000F04EB941
:10164000226AC2F30121012903D1920701D5C803FF
:1016500010BD022905D1626A920702D549F64040C1
:1016600010BD0329FCD121688903F9D54FF224402C
:1016700010BD0000001002404E3E000800127A002B
:1016800000093D002DE9F84305460078354CC007B8
:1016900054D0E0690026C00008D4E06940F08050D2
:1016A000E061E069012600F0805000902E4801685A
:1016B000C90512D40168804641F480710160FFF7CA
:1016C000E1FE074605E000BFFFF7DCFEC01B642813
:1016D00023D8D8F80000C005F6D5206A10F4407071
:1016E00021D0A98801F4407181421CD0206A1F4991
:1016F000012220F440700A6000220A602062C007C4
:1017000011D0FFF7BFFE074641F2883808E000BF5E
:10171000FFF7B8FEC11B414502D90320BDE8F8839D
:10172000206A8007F4D5206A696820F44070084375
:1017300020621EB1E06920F08050E06128788007C7
:1017400005D56068A96820F44040084360602878A7
:10175000C00605D56068696920F4800008436060B0
:101760000020DBE7001002400070004040044242CD
:101770002DE9F0470F46050061D0434E306800F078
:101780000700B84209D2306820F0070038433060C3
:10179000306800F00700B84251D128683B4C8107FF
:1017A00012D5400703D5606840F4E0606060287897
:1017B000000703D5606840F4605060606068A96805
:1017C00020F0F000084360602878C00728D06868DF
:1017D000012810D02168022810D0890700292EDAAC
:1017E000616821F0030101436160FFF74BFE804611
:1017F00041F288390DE021688903EFE78901EDE7BF
:10180000FFF740FEA0EB0801494502D90320BDE8DF
:10181000F0876068696800F00C00B0EB810FEFD1D1
:10182000306800F00700B8420BD9306820F007009C
:1018300038433060306800F00700B84201D0012022
:10184000E5E72878400705D56068E96820F4E0609E
:10185000084360602878000706D56068296920F48D
:10186000605040EAC100606000F038F86168084AE2
:10187000C1F30311515CC84006490860064800687E
:10188000FFF720FE0020C2E70020024000100240C7
:101890005E3E0008100000200800002004480549B2
:1018A00000684968044AC1F30221515CC84070478E
:1018B00010000020001002406E3E00080448054958
:1018C00000684968044AC1F3C221515CC8407047AE
:1018D00010000020001002406E3E00080E4A5168C1
:1018E0000E4801F00C03042B11D0082B0FD10C482B
:1018F000C1F38343C903C05C0AD55168084AC1F3E8
:101900004041921E515C054A5043B0FBF1F07047D4
:1019100004494843704700000010024000127A005A
:101920003C3E000800093D002DE9F84F040070D04E
:101930002078C04DC00749D06868C0F381000128F5
:1019400007D06868C0F38100022809D16868C00325
:1019500006D52868800339D560680028E7D035E0CF
:101960006068B0F5803F0BD010B1B0F5A02F11D05A
:10197000286820F480302860286820F4802002E065
:10198000286840F480302860606890B1FFF77AFDE5
:1019900006460AE0286840F480202860F0E700BF8F
:1019A000FFF770FD801B642873D828688003F7D583
:1019B0000CE0FFF767FD064605E000BFFFF762FD9C
:1019C000801B6428F0D828688003F7D420789A4ECA
:1019D00080074FF001094FF0000839D5686810F012
:1019E0000C0F07D06868C0F38100022809D168682D
:1019F000C00306D42868800714D52069012808D1BF
:101A000010E02069B0B1C6F80090FFF73BFD074633
:101A100005E00AE1FFF736FDC01B0228C4D828689C
:101A20008007F7D52868616920F0F80040EAC10016
:101A300028600DE0C6F80080FFF724FD074604E0AB
:101A4000FFF720FDC01B022823D828688007F7D4A1
:101A5000207800072CD57948A169D9B1C0F8009049
:101A6000FFF710FD074604E0FFF70CFDC01B02283E
:101A70000FD8686A8007F7D571484FF4FA510068AB
:101A8000B0FBF1F0009000BF0098411E0091FAD227
:101A90000EE080E0C0F80080FFF7F4FC074604E0A9
:101AA000FFF7F0FCC01B022875D8686A8007F7D4DE
:101AB0002078400760D5E8690027C00008D4E869AD
:101AC00040F08050E861E869012700F08050009004
:101AD0005C480168C90513D40168834641F48071EC
:101AE0000160FFF7CFFC824606E000BFFFF7CAFCAB
:101AF000A0EB0A0064284ED8DBF80000C005F5D53D
:101B0000E06801280AD008B1052813D0286A20F01F
:101B100001002862286A20F0040002E0286A40F0F0
:101B200001002862E06841F2883B98B1FFF7AAFC07
:101B300082460BE0286A40F004002862EEE700BF0E
:101B4000FFF7A0FCA0EB0A0159455AD8286A800784
:101B5000F6D50CE0FFF796FC824605E0FFF792FC15
:101B6000A0EB0A0159454CD8286A8007F6D41FB16A
:101B7000E86920F08050E861E06988B36968C1F3E2
:101B80008101022944D00228C6F8608004D0FFF702
:101B900079FC044638E034E0FFF774FC074604E0C3
:101BA000FFF770FCC01B02282BD828688001F7D4EF
:101BB000206AB0F5803F05D16868A16820F4003044
:101BC00008436860D4E908010843696821F4741186
:101BD00008436860C6F86090FFF754FC044606E0CE
:101BE00025E000BFFFF74EFC001B022809D828683B
:101BF0008001F7D51BE000BFFFF744FC001B022863
:101C000002D90320BDE8F88F28688001F4D40EE0E3
:101C10000128F7D06868226A00F48031914204D12B
:101C2000616A00F47010884201D00120EAE70020C8
:101C3000E8E70000001002400000424280044242F7
:101C4000100000200070004070B5040003D0607CDC
:101C5000002610B105E0012070BD2674204600F07A
:101C60003DF802206074204600F052F8042550BB75
:101C7000204601F057FA30BB2068416821F0070187
:101C80004160A06820B11448016821F001010160A1
:101C90001148001F0168A26821F4607111430160BE
:101CA0006068411C04D10120FFF790FC58B1401E30
:101CB0002268C0F303419160216880B2C860204669
:101CC00001F04AFA08B16574C5E7E6730120607354
:101CD000A0736074002070BD306C004008B50068CF
:101CE000084988420DD1FFF76BFC0748C16941F0F4
:101CF0000061C161C069054900F0006000900120E9
:101D0000086008BD00280040001002403C04424228
:101D100070B504000AD02068416821F008014160D4
:101D2000FFF7B0FB05464FF47A7608E0012070BD5E
:101D3000FFF7A8FB401BB04201D9032070BD20680B
:101D400040680007F4D5002070BD10B5401EB0F10A
:101D5000807F01D3012010BD4FF0E02460610F218E
:101D6000601701F01AFD0020A0610720206100200B
:101D700010BD7047704710B590F83C20012A22D062
:101D8000012280F83C20CA688C6822F44072224309
:101D90004C6822F4806222430C6822F400622243E1
:101DA0000C6922F4805222434C6922F400522243EF
:101DB000C969002322F480420A4301684A6480F81A
:101DC0003C30002010BD022010BD000070B590F81E
:101DD0003C20012A2CD0012480F83C40022280F8CB
:101DE0003D2003685A689D6822F070060A683243F5
:101DF0005A60104B02689A420ED00F4B9A420BD099
:101E0000B2F1804F08D00D4B9A4205D00C4B9A424C
:101E100002D00C4B9A4204D1496825F08003194343
:101E2000916080F83D40002180F83C10084670BD6C
:101E3000022070BD002C014000340140000400402D
:101E400000080040000C004010B5040003D094F8D6
:101E50003D0010B107E0012010BD002084F83C00D7
:101E6000204600F01FF8022084F83D00211D206864
:101E700001F0F0F9012084F8460084F83E0084F86F
:101E80003F0084F8400084F8410084F8420084F860
:101E9000430084F8440084F8450084F83D000020A5
:101EA00010BD000008B5114A01681148914208D1DF
:101EB000816941F400618161806900F400600090F3
:101EC00008BD0C4A9142FBD1C16941F01001C161CA
:101ED000C069002200F01000009011463620FFF784
:101EE0003DFBBDE808403620FFF72ABB002C01402F
:101EF000001002400010004090F83D10012901D070
:101F000001207047022180F83D100168CA6842F044
:101F10000102CA6000680E4988420ED00D4988420D
:101F20000BD0B0F1804F08D00B49884205D00B4947
:101F3000884202D00A49884204D1816801F0070131
:101F4000062903D0016841F00101016000207047BB
:101F5000002C014000340140000400400008004013
:101F6000000C004070B5044690F83C0000250128A4
:101F700017D0012684F83C60022084F83D002068D8
:101F8000826822F0770222F47F428260086850283B
:101F900038D00DDC20284FD005DC90B3102811D1AB
:101FA0004AE0022070BD302846D040280AD13BE0EC
:101FB00060282FD070280DD0B0F5805F03D0B0F529
:101FC000005F12D0012584F83D60002084F83C00B9
:101FD000284670BDCB68D1E90121206801F08DF958
:101FE0002068816841F0770109E0CB68D1E90121DF
:101FF000206801F082F92068816841F480418160A5
:10200000E1E719E0CA684968206801F04BFA5021FD
:10201000206806E0CA684968206801F054FA602127
:10202000206801F074F9CEE7CA684968206801F0B9
:1020300039FA40212068F4E7226801461046F0E7AB
:102040002DE9F0410D46040003D094F83D0018B18D
:1020500008E00120BDE8F081002084F83C00204623
:1020600000F040F8022084F83D002068816844F2C6
:10207000070291438160211D206801F0EBF822687E
:1020800090689169166A2B68AF69034340F2033088
:10209000814341EA0721A868EF6908434FF6FC41F4
:1020A0008843E96840EA0720014328692F6A000154
:1020B00040EA0730084369686D6926F0220646EA5F
:1020C0000515294393602268906154F8460B01621C
:1020D000012004F81F09E0752076E0762077A075CE
:1020E0000020B7E730B585B0002400940194029435
:1020F000039400684F49504B504DB0F1804F23D0AE
:102100004F4CC022A04256D1C86940F00200C861BD
:10211000C86900F002000490886940F004008861FA
:102120008869694600F00400049000921846FFF7A1
:10213000A3F8002201211D20FFF710FA5FF01D0017
:10214000FFF7FEF905B030BDC86940F00100C86175
:10215000C86900F001000490886940F004008861BB
:10216000886900F004000490886940F008008861E4
:102170008869694600F0080004904FF40040009020
:102180001846FFF779F80820CDE90004694628468B
:102190000294FFF771F82B48416821F4407141F037
:1021A000E06141F480714160002201211C20FFF7B1
:1021B000D5F91C20C4E7244CA0421BD1C86940F0CB
:1021C0000400C861C86900F004000490886940F008
:1021D000080088618869694600F008000490009250
:1021E0002846FFF749F8002201211E20FFF7B6F923
:1021F0001E20A5E7154A9042A4D1C86940F0080006
:10220000C861C86900F008000490886940F00400C3
:1022100088618869694600F00400049003200090FA
:102220001846FFF729F8002211463220FFF796F9E9
:10223000322085E70010024000080140000C0140F8
:10224000000400400000014000080040000C004075
:1022500070B590F83E60044690F83F5090F84230D8
:1022600090F84320022021B104290ED0012E1BD169
:1022700014E0012E18D1012B16D184F83E0084F809
:10228000420001220021206820E0012D0CD1012A0A
:102290000AD184F83F0084F8430014E0012D03D1F3
:1022A000012B01D1012A01D0012070BD84F83E002C
:1022B00084F83F0084F8420084F8430001220021A2
:1022C000206801F00DF801220421206801F008F8CF
:1022D0002068016841F001010160002070BD704775
:1022E00070B50446006801694FF00005C9438907CD
:1022F00015D4C168C943890711D4E91E01610120C1
:102300002077206880698007204602D0FFF7E7FF2A
:1023100004E000F0CBF8204600F05DF92577206856
:102320000169C943490717D4C168C943490713D490
:102330006FF004010161022020772068806910F4A9
:10234000407F204602D0FFF7CAFF04E000F0AEF85D
:10235000204600F040F9257720680169C943090744
:1023600016D4C168C943090712D46FF0080101618E
:10237000042020772068C0698007204602D0FFF73C
:10238000AEFF04E000F092F8204600F024F9257733
:1023900020680169C943C90617D4C168C943C90681
:1023A00013D46FF010010161082020772068C06904
:1023B00010F4407F204602D0FFF791FF04E000F0C8
:1023C00075F8204600F007F9257720680169C943B0
:1023D000C90708D1C168C943C90704D1891E016171
:1023E000204600F053F920680169C943090609D461
:1023F000C168C943090605D46FF080010161204618
:10240000FFF7B7FC20680169C943490609D4C168D0
:10241000C943490605D46FF040010161204600F030
:10242000A5F920680169C94389060BD4C168C9436D
:10243000890607D46FF0200101612046BDE8704095
:10244000FFF798BC70BD000000B585B00021009179
:102450000191029103910068104988421BD11048F4
:10246000816941F0400181618069694600F0400066
:1024700004904FF4D440009002200190039009484A
:10248000FEF7FAFE0848416821F0C00141F0E06122
:1024900041F0C001416005B000BD0000002C0140CA
:1024A000001002400018014000000140704770B564
:1024B000044690F83C0000260D4601280FD001206C
:1024C00084F83C006AB1042A1DD0082A2FD00C2AB7
:1024D0003FD00126002084F83C00304670BD022029
:1024E00070BD206800F01CFF2068816941F0080180
:1024F00081612068816921F004018161206881691E
:102500002A69114311E0206800F03AFF20688169D0
:1025100041F4006181612068816921F480618161F9
:10252000206881692A6941EA02218161D2E7206835
:1025300000F05CFF2068C16941F00801C1612068BA
:10254000C16921F00401C1612068C1692A69114390
:1025500011E0206800F07EFF2068C16941F400614D
:10256000C1612068C16921F48061C1612068C169CD
:102570002A6941EA0221C161ACE710B5040003D029
:1025800094F83D0010B107E0012010BD002084F850
:102590003C00204600F01EF8022084F83D00211D7A
:1025A000206800F057FE012084F8460084F83E00C1
:1025B00084F83F0084F8400084F8410084F8420029
:1025C00084F8430084F8440084F8450084F83D0012
:1025D000002010BD7047704710B50446022249B173
:1025E00004290ED0082913D094F84100012816D0F0
:1025F000012010BD94F83E000128F9D184F83E2056
:102600000FE094F83F000128F2D184F83F2008E061
:1026100094F840000128EBD184F8402001E084F8D0
:1026200041200122206800F05BFE13492068134A14
:10263000884201D0904203D1436C43F40043436489
:10264000206888420DD090420BD0B0F1804F08D066
:102650000B49884205D00B49884202D00A4988427A
:1026600004D1816801F00701062903D0016841F017
:1026700001010160002010BD002C01400034014028
:102680000004004000080040000C00402DE9F0412B
:10269000DFF8B080404552D12B480168491C0160E9
:1026A0002A480068406A1224B0FBF4F000B201F03E
:1026B0006BFA274D686027480068406AB0FBF4F069
:1026C00000B201F061FA244E706024480068406A4C
:1026D000B0FBF4F000B201F057FA214F78602148C6
:1026E0000068406AB0FBF4F000B201F04DFA1E4CF5
:1026F00000216060D8F800004162284601F090F99E
:10270000304601F08DF9384601F08AF9204601F093
:1027100087F9686901F01CFA01F0FEF8706901F0B0
:1027200017FA01F019F9786901F012FA01F034F999
:10273000606901F00DFABDE8F04101F04DB9BDE866
:10274000F0810000A0010020000000208000002097
:10275000C0020020C8000020E40200201001002078
:1027600008030020580100202C0300207047704708
:1027700070470000F8B5016804460868CA684B69EC
:1027800010F00F0F4FF0000559D003F0010602F4CE
:102790009077374365D0C10705D0D10503D5616C6B
:1027A00041F001016164410705D5D90703D0616C8F
:1027B00041F002016164810705D5D90703D0616C3E
:1027C00041F004016164010707D502F020013143A3
:1027D00003D0616C41F008016164616C00293AD05A
:1027E000800604D5900602D5204600F0B4FE20688D
:1027F0004069616CC0F38010090700D460B32046C3
:1028000000F082FE20684069400621D5206814301F
:1028100050E8001F21F0400140E80012002AF5D1E5
:10282000E06BA8B16D494163E06BFEF77BFC0028CB
:1028300011D0E06B416B01B0BDE8F0400847830662
:102840000FD593060DD52046BDE8F84000F083BEB5
:102850002046FFF78DFFF8BD2046FFF789FF65642E
:10286000F8BD266B2023012E7CD1C6067AD5D6066C
:1028700078D508684868009048694FF0020640061D
:1028800040D5E16B086840680004000CE8D0A28DD8
:102890008242E5D9E085886920282DD020680C3057
:1028A00050E8001F21F4807140E80012002AF5D1A1
:1028B0002068143050E8001F21F0010140E80012A8
:1028C000002AF5D12068143050E8001F21F04001A3
:1028D00040E80012002AF5D184F8423025632068D0
:1028E0000C3050E8001F21F0100140E80012002ACF
:1028F000F5D1E06BFEF7F2FB6663A08DE18D401A27
:1029000081B22AE0A08DE18D401A81B2E08D0028CD
:10291000A6D00029A4D022680C3252E8000F20F47F
:10292000907042E80007002FF5D12068143050E87D
:10293000002F22F0010240E80027002FF5D184F893
:102940004230256320680C3050E8002F22F010023E
:1029500040E80023002BF5D166632046FFF707FF10
:10296000F8BDFFE705062BD5150629D594F84100DB
:102970002128F5D1A068B0F5805F01D12069B0B100
:10298000206A411C2162216800784860E08C401E6A
:102990000004000CE084E3D12068C16821F08001CC
:1029A000C1602068C16841F04001C160D8E7206A79
:1029B0000088C0F308004860206A801C2062E5E7B8
:1029C0004006CDD55006CBD5CA68204622F040023D
:1029D000CA6084F8413000F039F9C1E7F9340008E1
:1029E00070B5040004D094F84100002510B106E051
:1029F000012070BD84F84050204600F023F82420C8
:102A000084F841002068C16821F40051C16020466B
:102A100000F002FE2068016921F490410161206804
:102A2000416921F02A0141612068C16841F40051E7
:102A3000C1606564202084F8410084F84200656329
:102A4000002070BD30B585B000240094019402943C
:102A50000394454D0368454802210322AB4227D128
:102A6000C36943F40023C361C36903F400230493DF
:102A7000836943F01003836180693D4D00F01000CD
:102A800004904802CDE90001039269462846FEF70A
:102A9000F3FBE814CDE90004694628460294FEF7EA
:102AA000EBFB002211463420FEF758FD342029E0CC
:102AB000304DAB422AD1C36943F40033C361C369CB
:102AC00003F400330493836943F004038361806952
:102AD000294D00F0040004900420CDE90001039288
:102AE00069462846FEF7C8FB0820CDE90004694680
:102AF00028460294FEF7C0FB002211462620FEF76E
:102B00002DFD2620FEF71CFD05B030BD1B4DAB4250
:102B1000FAD1C36943F48023C361C36903F48023FA
:102B20000493836943F0200383618069039200F07A
:102B300020000490A815CDE90001114D69462846F2
:102B4000FEF79AFB6815CDE9000469462846029411
:102B5000FEF792FB0B48416821F0300141F0E06143
:102B600041F030014160CFE7004C004000100240CE
:102B700000100140004400400008014000480040AF
:102B8000001401400000014090F84230202B01D099
:102B90000220704721B11AB10023036300F098BDF1
:102BA000012070472DE9F04700681A4988422FD16B
:102BB00019481A4E054641880027491C89B24180B0
:102BC0002A787318212A03F8012C19D1804614A001
:102BD000FDF72CFBB1460024464606E019F8042018
:102BE000214612A0FDF722FB641C70888442F5DBAD
:102BF000012000F08FFDC8210848FDF7BDFB77805C
:102C00002F70BDE8F047012203490F48FFF7BCBF12
:102C1000BDE8F08700440040140000207403002049
:102C200052584C656E3D25640D0A000055415254C2
:102C30002044617461427566665B25645D203D20B9
:102C400025630D0A00000000300200207047FEE7F7
:102C500030B585B000242848009401940294039470
:102C6000816941F040018161816901F04001049175
:102C7000816941F010018161816901F010010491C5
:102C8000816941F004018161816901F004010491CD
:102C9000816941F020018161816901F02001049185
:102CA000816941F480718161816901F480710491CD
:102CB000816941F0080181618069104D00F00800D0
:102CC00004900022FF212846FEF7D7FBFF2000904A
:102CD0000120CDE901040220039069462846FEF751
:102CE000CBFA4FF4C070CDE9000469460448029461
:102CF000FEF7C2FA05B030BD0010024000180140D6
:102D0000002001400A4810B5084901604FF0FF312A
:102D100041604FF480718160FEF796FF002803D078
:102D2000BDE81040FEF73AB910BD00000028004091
:102D30002400002010B596B000240F941094119434
:102D4000129413941C2168461494FDF737FB20213C
:102D500007A8FDF733FB34483249C0E9001441F6B7
:102D60001F41C0E9024180210461C0E90541FFF72C
:102D70006BF808B1FEF712F94FF480500F900FA9CD
:102D80002948FFF7EFF808B1FEF708F92648FFF7E2
:102D9000F4FB08B1FEF702F9139413A92248149426
:102DA000FFF714F808B1FEF7F9F86020CDE9000448
:102DB0000294039404940594002269461A480694E8
:102DC000FFF775FB08B1FEF7E9F8042269461648DB
:102DD000FFF76DFB08B1FEF7E1F8082269461248DB
:102DE000FFF765FB08B1FEF7D9F80C2269460E48DB
:102DF000FFF75DFB08B1FEF7D1F80794089409943A
:102E00004FF400500A94CDE90B4007A906480E94F0
:102E1000FEF7B1FF08B1FEF7C1F80348FFF714FB56
:102E200016B010BD002C01403800002010B58CB049
:102E300024216846FDF7C2FA0024154809944FF092
:102E400080410A94C0E900144FF6FF71C0E90241C5
:102E5000046184610320CDE900040120CDE902046E
:102E60000494CDE905400794694609480894FFF7A2
:102E7000E7F808B1FEF792F8099409A904480A9402
:102E8000FEF7A4FF002801D0FEF788F80CB010BDB3
:102E90008000002010B58CB024216846FDF78EFA22
:102EA00000241548099413490A94C0E900144FF608
:102EB000FF71C0E90241046184610120CDE9000491
:102EC000CDE902040494CDE90540079469460A4817
:102ED0000894FFF7B5F808B1FEF760F8099409A95E
:102EE00005480A94FEF772FF002801D0FEF756F855
:102EF0000CB010BD00040040C800002010B58CB01C
:102F000024216846FDF75AFA00241548099413490C
:102F10000A94C0E900144FF6FF71C0E90241046150
:102F200084610120CDE90004CDE902040494CDE9D7
:102F30000540079469460A480894FFF781F808B1EC
:102F4000FEF72CF8099409A905480A94FEF73EFFFC
:102F5000002801D0FEF722F80CB010BD0008004098
:102F60001001002010B58CB024216846FDF726FA28
:102F700000241548099413490A94C0E900144FF637
:102F8000FF71C0E90241046184610120CDE90004C0
:102F9000CDE902040494CDE90540079469460A4846
:102FA0000894FFF74DF808B1FDF7F8FF099409A957
:102FB00005480A94FEF70AFF002801D0FDF7EEFF4E
:102FC0000CB010BD000C0040580100201CB50024BE
:102FD0000F4800940D490194016041F61F41C0E97A
:102FE00001146321C16080218161FEF72DFF08B1CA
:102FF000FDF7D4FF0094694605480194FEF7E6FE0C
:10300000002801D0FDF7CAFF1CBD000000100040E1
:10301000A00100200C4810B50A4901604FF4E131CD
:103020004160002181600C22C160C0E9041281610D
:10303000C161FFF7D5FC002803D0BDE81040FDF7C3
:10304000ADBF10BD004C0040E80100200C4810B599
:103050000A4901604FF4E1314160002181600C2296
:10306000C160C0E904128161C161FFF7B9FC0028A9
:1030700003D0BDE81040FDF791BF10BD00440040F3
:10308000300200200C4810B50A4901604FF4165177
:103090004160002181600C22C160C0E9041281619D
:1030A000C161FFF79DFC002803D0BDE81040FDF78B
:1030B00075BF10BD0048004078020020FEE7FEE723
:1030C00030B50F4C0F4D0023224629460E4800F024
:1030D0001EF80D48002322462946243000F017F838
:1030E0000948002322462946483000F010F82246BD
:1030F00029460548BDE8304000236C3000F007B891
:10310000CDCC4C3F0000A040C0020020704700F131
:10311000180C8CE80E0000214160C16001618160E3
:103120000160704770B50446FEF7ACF905464FF4F0
:103130007A7606E0FEF7A6F9401BB04201D90320DB
:1031400070BD206840688006F4D52068416841F071
:1031500010014160002070BD70B5044600684168F0
:1031600021F010014160FEF78DF905464FF47A76A3
:1031700007E000BFFEF786F9401BB04201D90320EB
:1031800070BD206840688006F4D5002070BD70478F
:10319000FEF77EB970B596B028216846FDF70EF9A6
:1031A00014210AA8FDF70AF918210FA8FDF706F95E
:1031B0000920012400904FF48030002504940694E7
:1031C000CDE901050226CDE907604FF4E010099032
:1031D0006846FEF7A9FB08B172B6FEE70F20CDE9FD
:1031E0000A064FF48060CDE90C5002210AA80E9522
:1031F000FEF7BEFA08B172B6FEE74FF40070CDE9F3
:103200000F400FA8FEF73EFA002801D072B6FEE785
:1032100016B070BD704700000148FFF761B80000AC
:10322000800000200148FFF75BB80000C8000020C4
:103230000148FFF755B80000100100200148FFF7D2
:103240004FB80000580100200148FFF749B80000BE
:10325000A0010020F0B502681C4B1D4D1D4E1E4FF5
:103260001E4C4FF0804C984209D0A04207D06045D8
:1032700005D0A84203D0B04201D0B84204D122F018
:10328000700E4A6842EA0E02984209D0A04207D066
:10329000604505D0A84203D0B04201D0B84203D166
:1032A00022F44075CA682A434D6922F080022A43FD
:1032B00002608A68C2620A688262984201D0A042B3
:1032C00001D10969016301214161F0BD002C014078
:1032D0000004004000080040000C004000340140A1
:1032E00010B501F01F030121046A99408C43046268
:1032F000016A9A401143016210BD10B5846842EA28
:10330000032224F47F440A432243826010BD826872
:1033100022F070020A4342F007018160704700000A
:10332000F0B5036A026A22F001020262426884690F
:10333000124E24F073050C682C4323F002058B68B1
:103340002B430D4DA84201D0B04205D123F0080710
:10335000CB683B4323F00403A84201D0B04205D11F
:103360004D6922F4407215438A692A4342608461A0
:10337000496841630362F0BD002C01400034014004
:10338000F0B5026A036A23F010030362436884699C
:103390000D6824F4E64444EA05248D6822F02002F6
:1033A00042EA05120F4D104EA84201D0B04206D19C
:1033B000CF6822F0800242EA071222F04002A842BF
:1033C00001D0B04207D14D6923F4406343EA85033D
:1033D0008D6943EA850343608461496881630262C1
:1033E000F0BD0000002C014000340140F0B5026A3D
:1033F000036A23F4807303624368C46922F4007291
:1034000024F073050C68124E2C438D6842EA0522A5
:103410000E4DA84201D0B04206D1CF6822F400621E
:1034200042EA072222F48062A84201D0B04207D1CA
:103430004D6923F4405343EA05138D6943EA0513AC
:103440004360C4614968C1630262F0BD002C014061
:103450000034014030B5046A026A22F480520262EC
:103460004268C3690D6823F4E64343EA05238D6887
:1034700024F4005444EA0534084DA84202D0084D13
:10348000A84204D14D6922F4804242EA851242608A
:10349000C36149680164046230BD0000002C014032
:1034A0000034014010B5036A046A24F00104046288
:1034B000846924F0F00444EA021423F00A020A4367
:1034C0008461026210BD10B5036A046A24F010041E
:1034D0000462846923F0A00324F4704444EA0232B5
:1034E00043EA01118261016210BD00000148FFF74B
:1034F00041B90000E801002010B5406A0021C185F3
:10350000C184FFF735F910BD01680C3151E8002F77
:1035100022F4907241E80023002BF5D101681431A8
:1035200051E8002F22F0010241E80023002BF5D1E1
:10353000016B012909D101680C3151E8002F22F0FB
:10354000100241E80023002BF5D1202180F8421021
:1035500000210163704708B590F84210222901D07C
:10356000022008BD82684FF480539A4201D101695C
:1035700021B1816A9A421BD04AB10AE00268816A8D
:103580005268C2F308020A80816A891C08E0026955
:1035900072B10268526802F07F020A70816A491CA7
:1035A0008162C18D491E0904090CC18503D01BE04D
:1035B00002685268F1E70168CA6822F02002CA6016
:1035C0000168CA6822F48072CA6001684A6922F000
:1035D00001024A61202180F8421000214163026B00
:1035E000012A03D0FFF7DEFA002008BD016301685D
:1035F0000C3151E8002F22F0100241E80023002B8B
:10360000F5D101680A68D20602D50A6849680091B6
:10361000818DFFF7ACF8E7E770B5044600680169F3
:10362000E26821F44051114301612169A068084317
:10363000616908432168CA6841F20C639A430243F6
:10364000CA6020684169A26921F440711143416157
:103650001E492068884202D1FEF730F901E0FEF7EA
:103660001DF900EBC00101EB0012606864218000CD
:10367000B2FBF0F3B3FBF1F36FF018067343B2FB48
:10368000F0F5B2FBF0F605EB8305322303EB0515ED
:10369000B5FBF1F5B6FBF1F605F0F00505EB061507
:1036A000B2FBF0F6B2FBF0F0B0FBF1F06FF01802F5
:1036B000504306EB800003EB0010B0FBF1F02168F3
:1036C00000F00F002844886070BD00000038014001
:1036D00081628285C28500214164222180F84210E6
:1036E000016921B10168CA6842F48072CA60016848
:1036F0004A6942F001024A610068C16841F0200154
:10370000C1600020704700000148FFF733B8000097
:103710003002002010B5FDF743FC1C491C4A1D4C2B
:103720000B78502B13D0492B1BD0442B23D0502B7C
:1037300010D0492B18D0442B20D0532B06D14A78D7
:10374000702A03D18978652900D1206010BD4B789B
:10375000312B04D049783229F8D1A06110BD906195
:1037600010BD4B78312B04D049783229F8D1E06173
:1037700010BDD06110BD4B78312B04D0497832296F
:10378000F8D1206210BD106210BD0000740300204B
:1037900050030020C0020020FEE70907090E0028A0
:1037A00004DB00F1E02080F80014704700F00F0007
:1037B00000F1E02080F8141D70478A68002A01DCBF
:1037C000FCF7DFBF521E8A604A68C0B2531C4B60D0
:1037D00010707047FDF764FEFFF7DCFCFFF738FA66
:1037E000FFF790FAFFF7A6FAFFF720FBFFF752FB6F
:1037F000FFF784FBFFF7B6FBFFF70CFCFFF742FC7B
:10380000FFF7E4FBFFF722FC00213648FEF7E4FE59
:1038100004213448FEF7E0FE08213248FEF7DCFEC2
:103820000C213048FEF7D8FE00212F48FEF710FD8E
:1038300004212D48FEF70CFD00212C48FEF708FD61
:1038400004212A48FEF704FD00212948FEF700FD67
:1038500004212748FEF7FCFC00212648FEF7F8FC6F
:1038600004212448FEF7F4FC2348FEF745FBFFF74C
:1038700027FC224EDFF888B0224C234DDFF88C80E5
:10388000DFF88C90DFF88CA080213046FDF7F0FD4A
:1038900007464FF480713046FDF7EAFD012F01D055
:1038A0004FB10AE048B92C60C8F800B0C9F8004030
:1038B000CAF800B008E001280AD02C60C8F800401F
:1038C000C9F80040CAF800400520FDF7C3FCDBE75B
:1038D000C5F800B0C8F80040C9F80040CAF800B008
:1038E000F2E700003800002080000020C80000201F
:1038F0001001002058010020A001002000200140FC
:1039000000007AC500007A45C0020020E4020020D1
:10391000080300202C03002070B50D4C050006D4D0
:10392000012211462046FDF7A8FD002205E00022F5
:1039300001212046FDF7A1FD012202212046FDF7CD
:103940009CFD284600F068F802490968486370BD8C
:10395000001801403800002070B50D4C050006D459
:10396000012204212046FDF788FD002205E0002207
:1039700004212046FDF781FD012208212046FDF7A4
:103980007CFD284600F048F802490968886370BD4C
:10399000001801403800002070B50D4C050006D419
:1039A000012210212046FDF768FD002205E00022DB
:1039B00010212046FDF761FD012220212046FDF760
:1039C0005CFD284600F028F802490968C86370BD0C
:1039D000001801403800002070B50D4C050006D4D9
:1039E000012240212046FDF748FD002205E000228B
:1039F00040212046FDF741FD012280212046FDF7B0
:103A00003CFD284600F008F802490968086470BDCA
:103A10000018014038000020002800DA40427047BA
:103A20002DE9F0410446D4E9000100F091F915496F
:103A3000E060884204DC1449884201D20020E06042
:103A400005462946A06800F021F8A06007462846F0
:103A5000216900F07DF9216A00F0AEF8064639468A
:103A6000E06900F0A9F807462946A06900F0A4F82B
:103A7000394600F00BF8314600F008F8C4E904506C
:103A8000BDE8F0810AD7A33C0AD7A3BC90EA010F96
:103A900048BF81F0004100F16281421A3CBF801AA8
:103AA00089184FEAD0524FF07F4C1CEA410FA2EB2D
:103AB000D15318BF9CEA026F00F03B804FF0004CDE
:103AC0004CEA00204CEA012121FA03FC10EB0C0C1B
:103AD0001ED202F1FF325FEA1C2040EBC25038BF19
:103AE00070471CF07F0F4FEA400C18BFBCF17F4FAE
:103AF00038BF7047C3F12003994008BF20F0010090
:103B0000BCF17F4F38BF7047A0F1C04000F01BB937
:103B10004FEA3C00000A40EBC25028BF1CF0FF0FE8
:103B20004FEA400CE6D018BFBCF17F4F38BF70475A
:103B3000EAE79CEA026F05D010EA5C0F08BF00F0CC
:103B40000040704710B500F0B8F800BF64FBBE3EFF
:103B500041000B0ED3F19E0208D950F400034FEA46
:103B6000032323FA02F048BF4042704710B500F02B
:103B7000A4F800BF49922480002070476FF00042F3
:103B800082EA20007047000010F0004148BF404228
:103B9000B0FA80F310FA03F2C3F19D030BD051EA9F
:103BA000C35101EB1220530638BF704700F10100EA
:103BB00008BF20F0010070474FF47F0C1CEAD012C0
:103BC0001EBF1CEAD11392EA0C0F93EA0C0F00F00F
:103BD000478090EA010F48BF42F480724FF0004CDA
:103BE0004CEA00204CEA012102EB0302A0FB011386
:103BF000A2F50002002918BF43F001035B0028BFB3
:103C00004FEA330342EB22425FEA132C4CEBC250E3
:103C10002EBFBCEB436FB2F57C0F70474FEA036CCD
:103C2000BCF1004F08BF20F00100B2F57C0F38BF97
:103C300070470BD582F0FF0212F5803FC8BF704776
:103C400000F1C040D8BF00F00040704700F5000C04
:103C50005FEA4C0C48BF7047B0F1C04000F073B849
:103C600090EA010F0CEAD11348BF42F4807262451A
:103C700038BF634504D280EA010000F0004070477D
:103C800010B500F01AF800BF8900013E00F007B837
:103C900000F009B85FEA410C5FEA1C6C08D080EACA
:103CA000010000F050B85FEA400C5FEA1C6CF6D1EE
:103CB0004FF00040A0F5800070470EF1020E2EF08C
:103CC000030E5EF8044B244204D44FEA4102B2F1E1
:103CD0007F4F11D84FEA4003B3F17F4F0CD80ED17C
:103CE0004FEAD07CB2F17F4F0CEB4C0C0CF1020C84
:103CF00008BF4CEBD17C04E04FF0080C01E04FEA28
:103D0000D17C0CEB4C0324FA03F404F00704B4F167
:103D1000040C06D20EEB840CBDE810404CF0010CF4
:103D20006047DFE80CF0070802024FF00040A0F502
:103D3000800010BD0846420018BFD2F1807288BFD3
:103D400000F0004010BDFF2141EAD050C00570478F
:103D500090EA010F48BF81F000413FF59EAE421A44
:103D600004D882F00042A0EB020011444FEAD05286
:103D70004FF07F4C1CEA410FA2EBD15318BF9CEAD5
:103D8000026F4AD04FF0004C4CEA00204CEA01216F
:103D900021FA03FCB0EB0C0C0FD412F0FE0F36D05E
:103DA0005FEA4C001DD5001240EBC25038BF70478F
:103DB0001CF03F0F18BF70470BE0A2F101025FEA51
:103DC0001C2040EBC25038BF70471CF07F0F18BF5B
:103DD0007047C3F12003994014BF401E20F001003A
:103DE000704780084FEA122308BF7047B0FA80FC82
:103DF000A2EB0C02CCF1280C60FA0CF093EA122F23
:103E000004BF00EBC25070474FEAC3707047130AFB
:103E10005FEADC1008BF7047F6E79CEA026F04D047
:103E200010EA5C0F08BF0020704710B5FFF745FF90
:103E300040DFF63E81F000407047010202030405B6
:103E4000060708090A0B0C0D0E0F101001020203E1
:103E50000405060708090A0B0C0D0E0F10100000D0
:103E6000000000000000010203040607080900002A
:103E70000000010203043A7474003A7474003A7446
:103E800074000000A43E0008000000202400000090
:103E90006C010008C83E000824000020740B0000DC
:103EA0008801000800000000010000001000000070
:103EB000000000000024F4000000000000000000EA
:083EC0000000000000000000FA
:0400000508000131BD
:00000001FF
