:020000040800F2
:10000000300A002049010008B72A0008F726000836
:10001000B52A0008F90E0008ED2F000800000000C6
:10002000000000000000000000000000BB2A0008E3
:10003000FB0E000800000000B92A0008BD2A0008D5
:100040006301000863010008630100086301000800
:1000500063010008630100086301000863010008F0
:1000600063010008630100086301000863010008E0
:1000700063010008630100086301000863010008D0
:1000800063010008630100086301000863010008C0
:1000900063010008630100086301000863010008B0
:1000A00063010008630100086301000863010008A0
:1000B000212B00082D2B0008392B000863010008B4
:1000C0006301000863010008630100086301000880
:1000D0006301000863010008D92F000863010008CC
:1000E0006301000863010008630100086301000860
:1000F0006301000863010008630100086301000850
:100100006301000863010008452B00086301000833
:100110006301000863010008512B00086301000817
:10012000630100086301000863010008630100081F
:10013000DFF810D000F0B4FE00480047293D000869
:10014000AFF30080300A0020064880470648004789
:10015000FEE7FEE7FEE7FEE7FEE7FEE7FEE7FEE777
:10016000FEE7FEE71D2B000831010008202A04DB12
:10017000203A21FA02F00021704721FA02F3D04020
:10018000C2F120029140084319467047A0F1410195
:10019000192900D82030704740EA01039B0703D09B
:1001A00009E008C9121F08C0042AFAD203E011F8B6
:1001B000013B00F8013B521EF9D27047D2B201E078
:1001C00000F8012B491EFBD270470022F6E710B55C
:1001D00013460A4604461946FFF7F0FF204610BDB5
:1001E000421C10F8011B0029FBD1801A704710B582
:1001F000002200E0521C835C8C5CA34201D1002BE6
:10020000F8D1D8B2E1B2401A10BD30B50546002091
:10021000034600E05B1C934205D2EC5CC85C201AEC
:1002200001D1002CF6D130BD2DE9FF4F087883B005
:100230009946FF2805D0491C2D2804D00024002011
:1002400008E000200BE00124F9E700EB800003EB5D
:100250004000491C0B78FF2BF7D104B1404200232A
:100260000293147819461D462D2C01D02B2C04D155
:10027000521C2D2C13D000240294AA461478FF2C73
:100280000FD00A25A3FB057801FB05814FF0000C78
:1002900003FB0C11521CE3194AEB0101EEE70124A8
:1002A000EAE7814453EA010002D019F5C87F06DA73
:1002B00003980021C0E9001107B0BDE8F08F0025C8
:1002C000AE4E2F46DFF8B882184600F0C4FDCDE9E7
:1002D0000001B9F1000002DAC9F1000400E00446AF
:1002E0000023A74A1AEB030B42EB045A12E0E00783
:1002F00007D02A4633463846414600F0C0FA074642
:1003000088462A4633461046194600F0B8FA054694
:100310000E466410002CEAD1DDE90001B9F1000FAE
:100320005A46534606DA00F027FD3A46434600F0A7
:1003300023FD05E000F0A3FA3A46434600F09FFA99
:10034000029A0AB181F00041039AC2E90001B3E7C1
:100350002DE9FF4F1F468DB0D7E901464FF0FF381A
:100360002E2045464FF000090B90B9696D1C0E9880
:100370008847396A824688470028F6D1BAF1FF3F9C
:100380000AD024F4D064002E11DDBAF12B0F08D06E
:10039000BAF12D0F0BD102E0404611B08DE744F4C5
:1003A0008064B9696D1C0E9888478246761E69463E
:1003B000600501D52D2000E02B208DF8000001F113
:1003C000010B0DF1200809E0B9696D1C0E988847F2
:1003D00082460F9844F40074761E0560002E02DDFC
:1003E000BAF1300FF0D00B998A453ED144F0800429
:1003F00006E00F99681CA9F1010944F40074086033
:10040000B9696D1C761E0E98884782463028F0D058
:100410002BE00B998A4505D1200603D444F08004D3
:10042000761E18E0504602F02BFF08B30DF11301C1
:10043000761E44F400748B4508D2AAF130000BF804
:10044000010B200607D5A9F1010003E0200602D424
:1004500009F101008146A00502D50F99681C0860CA
:10046000B9696D1C0E9888478246002ED1DC53E096
:10047000002E51DDBAF1650F02D0BAF1450F4BD114
:10048000A00549D5B9696D1C24F44074761E0E98F8
:1004900088478246002E0CDD2B2804D0BAF12D0FA0
:1004A00007D144F48074B9696D1C0E988847824660
:1004B000761EE00501D52D2100E02B2108F8011B57
:1004C000CDF82C8021E00DF12901761E44F4007452
:1004D00088450CD2AAF1300010F0FF0088F8000027
:1004E00002D10B99884509D908F1010806E0E00519
:1004F00001D5244801E042F20F708146B9696D1CB4
:100500000E98884782460F980560002E04DD5046FD
:1005100002F0B6FE0028D6D1F9690E988847FF2070
:100520008BF8000088F800000020069007904B46EA
:100530006A4608A906A8FFF777FEA00502D46FF067
:1005400001002AE714F0240F0AD0E00714D1DDE9F6
:1005500006123868031D3B600068C0E900120BE01A
:10056000DDE9060100F082FA0146E00704D13868AF
:10057000021D3A600068016028460EE70000144042
:100580000000F03FF1D8FFFFF0B480EA0102D40F81
:100590004200B2EB410F02D20246084611464A0021
:1005A00042D0C30DDDB2C1F3C752AD1A202D35DAEA
:1005B000C1F3160141F4000204B15242C5F1200614
:1005C00002FA06F12A411044B3EBD05F23D0C4B144
:1005D000012DA0EBC35009DCF0BC4FF0004202EA51
:1005E000C352DBB200F5000000F03BBB400000F15D
:1005F000807000EBC350A0F1807040EAD1704900D8
:1006000009E0490841EAC071A0EBC35000F50000C1
:10061000400800EBC350F0BC00F01ABB614201225D
:1006200002EB4101001BF6E7F0BC704781F000418E
:10063000AAE780F00040A7E780EA010210B502F0C7
:100640000043400022D04A001FD0010E01EB12618E
:10065000C0F35600C2F3560240F4000042F4000218
:10066000A0FB022000047F39140400D0401C50EA93
:10067000124001D44000491EC2B20C0604EBD01057
:10068000401C4008802A02D003E0002010BD20F06A
:100690000100002900DA0020184310BD30B480EAC0
:1006A000010202F0004530F0004221F0004013D07A
:1006B00090B1C30DD40DC2F31601C0F31600E41AB5
:1006C00041F4000140F400027D34914201D3641CE6
:1006D00000E04900002C02DA30BC002070474FF4E3
:1006E00000000023914201D3891A034340084FEAD6
:1006F0004101F7D151B1914202D14FF0004105E0E3
:1007000002D24FF0010101E06FF0010103EBC45090
:10071000284430BC00F09CBA420005D0C0F3C75258
:100720005242914201DC0020704700EBC1507047FB
:100730002DE9FE4F804681EA0300C00F0C46009071
:1007400021F0004123F00045B8EB0200A94105D299
:100750004046214690461C460B46024623F0004088
:10076000104347D0270DC7F30A00C3F30A51029084
:10077000401A019040286BDAC3F3130040F4801B49
:100780000098924620B10023D2EB030A63EB0B0BD7
:1007900001985946C0F14002504600F0CAF9064699
:1007A0000D4650465946019A00F0D2F910EB080068
:1007B0006141002487EA115284EAE7731A4340D06A
:1007C000009A62B3019A012A4FEA075215DC001B16
:1007D00061EB02014FF0004202EA0752CDE900420C
:1007E000001C41F5801132462B4600F077FA03B029
:1007F000BDE8F08F40462146F9E7001B61EB02019E
:10080000001C41F5801300185B412018A2F5001769
:1008100047EB030140EAD570B6196D4111E06D0850
:100820004FEA360645EAC0754FEA0752001B61EBF6
:100830000201001C41F5801149084FEA30000019FF
:10084000514132462B4603B0BDE8F04F00F037BAB5
:100850000098012240000023D0EB020263EBE0731A
:10086000009821464FEAE074B8EB000061EB040108
:10087000E9E783F000435BE781F0004158E72DE9A9
:10088000FE4F81EA030404F0004421F0004100948B
:100890004FF0000B23F0004350EA01045ED052EA0F
:1008A00003045BD0C3F30A54C1F30A552C44A4F2E9
:1008B000F3340194A0FB0254C1F3130141F48011FD
:1008C000C3F3130343F4801301FB024400FB034E04
:1008D000840A970A44EA815447EA8357A4FB0768CD
:1008E00002958D0A05FB07854FEA932C04FB0C54F7
:1008F0002705029D4FEA065847EA1637B5EB08056B
:100900006EEB070C870E920E47EA811742EA8312BC
:10091000A7FB0201B6EB0B0164EB00042B0D43EACD
:100920000C335E1844EB1C50DA465146E7FB0201DB
:10093000C5F313044FEA0B3343EA14534FEA04326E
:10094000019C43EA0603A4F10C040294009CCDE947
:1009500000B400F0C3F903B0BDE8F08F00200146F9
:10096000F9E7C10F80EAE0700844CA079623002126
:1009700000F077B900F0004220F00040C10DC0F354
:10098000160040F400007F2901DA00207047962904
:1009900003DCC1F19601C84001E096398840002A85
:1009A000F4D04042704770B5C1F30A5201F00045DF
:1009B0000024C1F3130140F2FF3341F480119A4245
:1009C00001DA002070BD40F233439A42A2F2334272
:1009D00003DC5242FFF7CAFB00E090402C43F1D009
:1009E000404270BD00F0004230F000400AD0C10D1E
:1009F00001F56071C0F3160042EA0151C2084007D8
:100A000011437047002001467047000030B5041EB6
:100A100071F1000404DB4FF00044404264EB01013B
:100A2000141E73F1000405DB1C464FF000435242D4
:100A300063EB04038B4208BF824230BD30B5041E15
:100A400071F1000404DB4FF00044404264EB01010B
:100A5000141E73F1000405DB1C464FF000435242A4
:100A600063EB0403994208BF904230BD01F000439C
:100A700030B421F0004150EA010206D00A0DA2F57F
:100A80006072C1F31301002A02DC30BC0020704701
:100A9000440F44EAC104C100E01830BC00EBC2506E
:100AA00000F0D6B830B50B460146002020220124C4
:100AB00009E021FA02F59D4205D303FA02F5491B2C
:100AC00004FA02F52844151EA2F10102F1DC30BD42
:100AD0002DE9F05F0546002092469B468846064673
:100AE000814640241BE02846414647462246FFF700
:100AF0003DFB53465A46C01A914110D31146184641
:100B0000224600F016F82D1A67EB01084F462246E0
:100B10000120002100F00DF817EB00094E41201EC6
:100B2000A4F10104DFDC484631462A464346BDE8CD
:100B3000F09F202A04DB203A00FA02F100207047DF
:100B40009140C2F1200320FA03F31943904070470B
:100B5000202A06DBCB17203A41FA02F043EAE07381
:100B600006E041FA02F3D040C2F12002914008436E
:100B700019467047426842B1016811F8013B23B140
:100B8000521EC0E90012184670470121C160881E3C
:100B9000704742685AB1C368016843B983688B42A1
:100BA00005D0491E521CC0E90012002070474FF0CA
:100BB000FF3070470FB4002300B589B00CA9009135
:100BC0000B996FF00042CB601E4B06931E4B0793B0
:100BD0000423CDE901321D4A089202466B460020EB
:100BE000FFF7B6FB09B05DF814FB70B586B006469A
:100BF0004FF0FF300091CDE90101002015460C4671
:100C000004903246694604A8FFF7D4FF02460498D0
:100C1000211825B108B1084600E020462860049854
:100C200000280DD0002A02DD0098884208D0081B59
:100C30000094CDE901043246694604A8FFF7BAFFE3
:100C400006B070BD750B0008930B0008C50E0008B8
:100C50000029A8BF7047401C490008BF20F00100D0
:100C6000704710B4B0FA80FC00FA0CF050EA0104AE
:100C700004BF10BC704749B1CCF1200421FA04F440
:100C800011FA0CF118BF012121430843A3EB0C0119
:100C9000CB1D4FEA00614FEA102042BF002010BC7C
:100CA000704700EBC35010440029A4BF10BC70472C
:100CB000401C490008BF20F0010010BC704710B56F
:100CC000141E73F1000408DA401C41F1000192186F
:100CD0005B411A4301D120F0010010BD2DE9F04D18
:100CE00092469B4611B1B1FA81F202E0B0FA80F26D
:100CF00020329046FFF71DFF04460F4640EA0A00E7
:100D000041EA0B0153465A46084313D0114653EAB1
:100D1000010019D0C8F140025046FFF727FA0546F6
:100D20000E46504659464246FFF703FF084305D09A
:100D3000012004E020463946BDE8F08D002005433F
:100D400046EAE0762C4337430A986305E40AA0EBB1
:100D500008000022FD0A44EA47540A3002D5002068
:100D60000146E9E7010510196941DDE90845001967
:100D70006941BDE8F04DA2E72DE9F04D81EA030499
:100D800004F0004B21F0004514464FF0000A23F018
:100D9000004150EA050220D054EA01021DD0C5F3FB
:100DA0000A570246C5F31303C1F31300C1F30A56F1
:100DB00040F4801543F48013A7EB0608101BD646B9
:100DC00008F2FD3873EB050002D308F1010801E0D9
:100DD00092185B41B8F1000F03DA00200146BDE82C
:100DE000F08D00204FF48011064684460EE0171B5C
:100DF00073EB050705D3121B63EB050306434CEAAF
:100E0000010C49084FEA300092185B4150EA010793
:100E1000EDD152EA030012D082EA040083EA050110
:100E2000084305D0101BAB4106D20122002306E087
:100E300000224FF0004302E06FF0010253101AEB62
:100E400006004CEB085110EB0A0041EB0B01BDE82A
:100E5000F04DFFF734BF0EB540F23342029200224C
:100E6000CDE900221346FFF739FF03B000BDC1F3FF
:100E70000A52C1F3130140F2FF3341F480119A4248
:100E800002DA00200146704740F233439A42A2F250
:100E9000334202DC5242FFF769B9FFF74ABE000055
:100EA000064C074D06E0E06840F0010394E80700B7
:100EB00098471034AC42F6D3FFF73EF9C44B000814
:100EC000E44B0008C0B24FF4F05100F001B800004C
:100ED0007F2801D9002208E0064A02EB5002C00731
:100EE000127800D1120902F00F0201209040084050
:100EF00070470000824B0008FEE7704772B6FEE7BD
:100F000010B590F821100022022905D00421816338
:100F100080F82020012010BD01680B6823F00E032B
:100F20000B6001680B6823F001030B6090F8403000
:100F3000012404FA03F1C36B596080F8214080F862
:100F40002020104610BD00002DE9F05F90F8211020
:100F50000024022903D004218163012485E0016873
:100F60000A6822F00E020A6001680A6822F0010293
:100F70000A603F4E3E4FB215DFF8F4C0DFF8F09044
:100F8000DFF8ECA0DFF8E8B0DFF8E4E00168783FD4
:100F900013011502ACF1640CA9F15009AAF13C0A45
:100FA000ABF1280BAEF1140E4FF48018B14227D9E3
:100FB000B9420ED0614512D049451DD0514518D0D7
:100FC000594518D0714501D1424615E0294EB1422C
:100FD00001D1012210E0274E1436B14201D1102276
:100FE0000AE0244E2836B14206D0224A3C329142D1
:100FF00001D11A4600E02A461E49091F0A602BE06B
:10100000B94213D0614517D0494522D051451DD072
:1010100059451DD0714501D142461AE0B14202D175
:101020004FF0807215E0134EB14201D1012210E061
:10103000104E1436B14201D110220AE00D4E28366E
:10104000B14206D00B4A3C32914201D11A4600E02F
:101050002A46074980394A60012180F82110002181
:1010600080F82010416B01B188472046BDE8F09F11
:10107000800002400804024070B5044600F010F9F8
:101080000546601C02D004480078044400F008F9CA
:10109000401BA042FAD370BD180000202DE9F84F84
:1010A000DFF8C0910024A9F1040B23464FF00F088C
:1010B00009F1040AABF1040ECCE00127A7403A4045
:1010C000BA4272D1DFF8A0C14D68A5EB0C066545A8
:1010D0002BD00DDC032D34D005DC35B3012D19D018
:1010E000022D2FD11BE0112D16D0122D2AD119E07F
:1010F000B6F5881F19D006DCB6F5803F15D0B6F5D9
:10110000801F1FD111E0B6F5001F0ED0B6F5041FE9
:1011100018D10AE0CB6815E0CB681B1D12E0CB6844
:1011200008330FE0CB680C330CE08B682BB1012B3C
:101130004FF0080303D0476104E0042302E0076195
:1011400000E00023FF2A01D8064601E000F1040672
:101150004FEA840501D9A5F12005376808FA05FC96
:1011600027EA0C0703FA05F547EA050737604D68DB
:10117000ED006ED53D4DAE6946F00106AE61AD693C
:1011800024F0030605F001050095394D7719BE6876
:10119000A5072D0F08FA05FC26EA0C06DFF8D4C0D7
:1011A000604503D14FF0000C25E052E0DFF8C8C0E5
:1011B000604502D14FF0010C1DE0DFF8C0C0604572
:1011C00002D14FF0020C16E0DFF8B4C0604502D146
:1011D0004FF0030C0FE0DFF8ACC0604502D14FF0D8
:1011E000040C08E0DFF8A0C0604502D14FF0050C08
:1011F00001E04FF0060C0CFA05FC4CEA060CC7F8AF
:1012000008C04D68D9F80060ED024D4601D516437F
:1012100000E096432E604D68DAF80060AD02554656
:1012200001D5164300E096432E604D68DBF8006060
:10123000AD035D4601D5164300E096432E604D6830
:10124000DEF80060ED03754601D5164300E09643D5
:101250002E60641C0A6832FA04F57FF42EAFBDE8F4
:10126000F88F000008040140000011100010024037
:101270000000014000080140000C01400010014046
:101280000014014000180140001C01408068084023
:1012900000D0012070470AB1016170470904FBE7E3
:1012A00001488068704700001800002002488168EB
:1012B000027811448160704718000020074810B57B
:1012C000016841F010010160032000F075F80F2063
:1012D00000F006F800F024F8002010BD00200240C5
:1012E00070B50D4D04464FF47A712878B1FBF0F0DB
:1012F0000A490968B1FBF0F000F0DEFA48B9102C99
:1013000007D200222146501E00F036F800206C6003
:1013100070BD012070BD00001800002024000020D6
:101320000C4808B5816941F001018161816901F0D2
:1013300001010091C16941F08051C161C069064954
:1013400000F080500090486820F0E06040F00070AD
:10135000486008BD0010024000000140002809DB81
:1013600000F01F02012191404009800000F1E020BF
:10137000C0F8001170470000F0B40E4B1B68C3F3B7
:101380000223C3F10704042C00D904241D1D072DDA
:1013900001D2002300E0DB1E012606FA04F56D1ED3
:1013A0000D409D409E40761E164045EA0601F0BC69
:1013B00001F02EBE0CED00E0064A00F007011068B7
:1013C0004FF6FF03184040EA01200349084310602C
:1013D000704700000CED00E00000FA052DE9F04731
:1013E0000D46040067D0DFF81881D8F8000000F03F
:1013F0000700A8420CD2D8F8001021F007012943B9
:10140000C8F80010D8F8000000F00700A84252D138
:1014100020683C4E810712D5400703D5706840F420
:10142000E06070602078000703D5706840F4605079
:1014300070607068A16820F0F00008437060207848
:10144000C00727D06068012810D03168022810D06A
:10145000890700292FDA716821F0030101437160C7
:10146000FFF71EFF074641F288390CE03168890317
:10147000EFE78901EDE7FFF713FFC11B494502D9EB
:101480000320BDE8F0877068616800F00C00B0EBE5
:10149000810FF0D1D8F80010404601F00701A942B1
:1014A0000BD9016821F0070129430160006800F0B1
:1014B0000700A84201D00120E3E72078400705D5C6
:1014C0007068E16820F4E0600843706020780007ED
:1014D00006D57068216920F4605040EAC100706050
:1014E00000F038F87168084AC1F30311515CC84034
:1014F0000649086006480068FFF7F2FE0020C0E7D2
:1015000000200240001002406A4B00082400002026
:101510001C0000200448054900684968044AC1F3DA
:101520000221515CC8407047240000200010024096
:101530007A4B00080448054900684968044AC1F329
:10154000C221515CC84070472400002000100240B6
:101550007A4B00080E4B59680E4801F00C02042A21
:1015600011D0082A0FD10C48C1F38342C903805C13
:101570000AD55968084AC1F34041921E515C054A98
:101580005043B0FBF1F070470449484370470000F6
:101590000010024000127A005A4B000800093D007A
:1015A0002DE9F84F04006FD02078BE4DC00747D01A
:1015B0006868C0F38100012807D06868C0F3810023
:1015C000022809D16868C00306D52868800337D58A
:1015D00060680028E7D033E06068B0F5803F0BD04A
:1015E00010B1B0F5A02F11D0286820F48030286009
:1015F000286820F4802002E0286840F480302860C9
:10160000606888B1FFF74CFE064609E0286840F4A0
:1016100080202860F0E7FFF743FE801B642873D822
:1016200028688003F7D50BE0FFF73AFE064604E092
:10163000FFF736FE801B6428F1D828688003F7D4B2
:101640002078DFF8648280074FF0010A4FF000092C
:1016500039D5686810F00C0F07D06868C0F38100B6
:10166000022809D16868C00306D42868800714D509
:101670002069012808D110E02069B0B1C8F800A0A5
:10168000FFF70EFE064605E007E1FFF709FE801BA7
:101690000228C4D828688007F7D52868616920F037
:1016A000F80040EAC10028600DE0C8F80090FFF79C
:1016B000F7FD064604E0FFF7F3FD801B022823D860
:1016C00028688007F7D4207800072CD57748A169CF
:1016D000D9B1C0F800A0FFF7E3FD064604E0FFF72C
:1016E000DFFD801B02280FD8686A8007F7D5704895
:1016F0004FF4FA510068B0FBF1F0009000BF009881
:10170000411E0091FAD20EE07CE0C0F80090FFF795
:10171000C7FD064604E0FFF7C3FD801B022871D811
:10172000686A8007F7D4207840075BD5E86900270E
:10173000C00008D4E86940F08050E861E8690127FA
:1017400000F0805000905B480168C90511D4016821
:10175000834641F480710160FFF7A2FD064604E074
:10176000FFF79EFD801B64284CD8DBF80000C00505
:10177000F6D5E06801280AD008B1052813D0286AF8
:1017800020F001002862286A20F0040002E0286AA4
:1017900040F001002862E06841F2883B88B1FFF721
:1017A0007FFD064609E0286A40F004002862EEE763
:1017B000FFF776FD811B59455BD8286A8007F7D56E
:1017C0000BE0FFF76DFD064604E0FFF769FD811BA6
:1017D00059454ED8286A8007F7D41FB1E86920F030
:1017E0008050E861E069A8B36968C1F3810102290A
:1017F00046D00228484606D0C8F86000FFF750FDE2
:10180000044639E035E04746C8F86000FFF748FD78
:10181000064604E0FFF744FD801B022829D828680B
:101820008001F7D4206AB0F5803F05D16868A168CF
:1018300020F4003008436860D4E90801084369686F
:1018400021F4741108436860C7F860A0FFF728FD11
:10185000044605E023E0FFF723FD001B022808D81B
:1018600028688001F7D51AE0FFF71AFD001B02284F
:1018700002D90320BDE8F88F28688001F4D40EE077
:101880000128F7D06868226A00F48031914204D1BF
:10189000616A00F47010884201D00120EAE700205C
:1018A000E8E700000010024000004242800442428B
:1018B000240000200070004010B5401EB0F1807F71
:1018C00001D3012010BD4FF0E02460610F216017AB
:1018D00001F09EFB0020A06107202061002010BDC8
:1018E0007047704710B590F83C20012A22D00122A1
:1018F00080F83C20CA688C6822F4407222434C680D
:1019000022F4806222430C6822F4006222430C69B4
:1019100022F4805222434C6922F400522243C969C6
:10192000002322F480420A4301684A6480F83C3074
:10193000002010BD022010BD70B590F83C20012A97
:101940002CD0012580F83C50022280F83D2002680E
:101950005368946823F070060B6833435360104B50
:1019600002689A420ED00F4B9A420BD0B2F1804FD0
:1019700008D00D4B9A4205D00C4B9A4202D00C4B2A
:101980009A4204D1496824F080031943916080F899
:101990003D50002180F83C10084670BD022070BD0B
:1019A000002C0140003401400004004000080040C9
:1019B000000C004010B5040003D094F83D0010B1B5
:1019C00007E0012010BD002084F83C00204600F014
:1019D0001FF8022084F83D00211D206801F0BEF8A8
:1019E000012084F8460084F83E0084F83F0084F823
:1019F000400084F8410084F8420084F8430084F8F1
:101A0000440084F8450084F83D00002010BD00002B
:101A100008B500680B49884212D10B48C16941F0F2
:101A20001001C161C069002200F010000090114651
:101A30003620FFF7A1FCBDE808403620FFF78EBC3A
:101A400008BD0000001000400010024090F83D105A
:101A5000012901D001207047022180F83D10016862
:101A6000CA6842F00102CA6000680E4988420ED07E
:101A70000D4988420BD0B0F1804F08D00B49884205
:101A800005D00B49884202D00A49884204D18168B6
:101A900001F00701062903D0016841F0010101604E
:101AA00000207047002C0140003401400004004039
:101AB00000080040000C00402DE9F0410D460400F4
:101AC00003D094F83D0018B108E00120BDE8F08192
:101AD000002084F83C00204600F040F8022084F802
:101AE0003D002068816844F2070291438160211D16
:101AF000206801F033F8206881688269066A2B68E3
:101B0000AF690B4340F203318A4342EA0722A968D6
:101B1000EF6911434FF6FC429143EA6841EA07211D
:101B20000A4329692F6A090141EA073111436A68AA
:101B30006D6926F0220646EA05152A43836020686F
:101B4000816154F8460B0262012004F81F09E07518
:101B50002076E0762077A0750020B7E770B586B0D4
:101B600000240094019402940394006851490125D3
:101B7000514A524EB0F1804F23D0514CC023A04265
:101B800056D1C86940F00200C861C86900F002007F
:101B90000490886940F0040088618869694600F013
:101BA00004000490029500931046FFF777FA002294
:101BB00011461D20FFF7E0FB1D20FFF7CFFB06B00D
:101BC00070BDC86940F00100C861C86900F001003B
:101BD0000490886940F004008861886900F004007E
:101BE0000490886940F0080088618869694600F0BF
:101BF000080004904FF40040009002951046FFF753
:101C00004DFA08208DE8310069463046FFF746FA64
:101C10002C49486820F4407040F0E06040F4807047
:101C20004860002211461C20FFF7A6FB1C20C4E7D9
:101C3000254CA0421CD1C86940F00400C861C869A5
:101C400000F004000490886940F008008861886909
:101C5000694600F008000490029500933046FFF7B3
:101C60001DFA002211461E20FFF786FB1E20A4E766
:101C7000164B9842A3D1C86940F00800C861C869F2
:101C800000F008000490886940F0040088618869C9
:101C9000694600F00400049003200090029510466D
:101CA000FFF7FCF9002211463220FFF765FB3220D6
:101CB00083E700000010024000080140000C0140D2
:101CC000000400400000014000080040000C0040FB
:101CD00070B590F83E50044690F83F3090F842209E
:101CE00090F84300022621B104290BD0012D16D112
:101CF0000FE0012D13D1012A11D184F83E6084F840
:101D0000426016E0012B0AD1012808D184F83F6017
:101D10000DE0012B03D1012A01D1012801D00120BE
:101D200070BD84F83E6084F83F6084F8426084F8B7
:101D3000436091B1042904D001220021206800F001
:101D400053FF01220421206800F04EFF2068016843
:101D500041F001010160002070BD012200212068D6
:101D6000F2E7704770B50446006801694FF000055E
:101D7000C943890715D4C168C943890711D4E91E2D
:101D8000016101202077206880698007204602D009
:101D9000FFF7E7FF04E000F0CBF8204600F070F911
:101DA000257720680169C943490717D4C168C94329
:101DB000490713D46FF004010161022020772068E5
:101DC000806910F4407F204602D0FFF7CAFF04E08C
:101DD00000F0AEF8204600F053F92577206801693D
:101DE000C943090716D4C168C943090712D46FF063
:101DF00008010161042020772068C069800720461F
:101E000002D0FFF7AEFF04E000F092F8204600F0A9
:101E100037F9257720680169C943C90617D4C16815
:101E2000C943C90613D46FF010010161082020775F
:101E30002068C06910F4407F204602D0FFF791FF70
:101E400004E000F075F8204600F01AF925772068C4
:101E50000169C943C90708D1C168C943C90704D189
:101E6000891E0161204600F06BF920680169C943B1
:101E7000090609D4C168C943090605D46FF0800179
:101E800001612046FFF72CFD20680169C94349061E
:101E900009D4C168C943490605D46FF04001016106
:101EA000204600F0D7F920680169C94389060BD4A0
:101EB000C168C943890607D46FF02001016120463B
:101EC000BDE87040FFF70DBD70BD000000B585B0E6
:101ED000002100910191029103910068104988420C
:101EE0001BD11048816941F04001816180696946D8
:101EF00000F0400004904FF4D44000900220019084
:101F000003900948FFF7CAF80849486820F0C00064
:101F100040F0E06040F0C000486005B000BD000047
:101F2000002C014000100240001801400000014058
:101F3000704770B5044690F83C0000260D46012815
:101F40000FD0012084F83C006AB1042A1DD0082A71
:101F50002FD00C2A3FD00126002084F83C003046C8
:101F600070BD022070BD206800F04CFE20688169C1
:101F700041F0080181612068816921F004018161DB
:101F8000206881692A69114311E0206800F06AFE27
:101F90002068816941F4006181612068816921F4D0
:101FA00080618161206881692A6941EA0221816139
:101FB000D2E7206800F08CFE2068C16941F008017A
:101FC000C1612068C16921F00401C1612068C16953
:101FD0002A69114311E0206800F0AEFE2068C16953
:101FE00041F40061C1612068C16921F48061C1616F
:101FF0002068C1692A6941EA0221C161ACE710B5D4
:10200000040003D094F83D0010B107E0012010BD9A
:10201000002084F83C00204600F01EF8022084F8DE
:102020003D00211D206800F099FD012084F8460044
:1020300084F83E0084F83F0084F8400084F84100B2
:1020400084F8420084F8430084F8440084F8450092
:1020500084F83D00002010BD08B50068064988429C
:1020600008D10648816941F400618161806900F40A
:102070000060009008BD0000002C014000100240EC
:102080007047000010B5044649B104290AD0082958
:102090000BD094F8410001280AD0012010BD94F81B
:1020A0003E00F8E794F83F00F5E794F84000F2E7C7
:1020B000022081B3042932D0082933D084F84100AA
:1020C0000122206800F090FD184A206818499042CB
:1020D00001D0884203D1436C43F400434364206839
:1020E00090420DD088420BD0B0F1804F08D01149FA
:1020F000884205D01049884202D01049884204D154
:10210000816801F00701062903D0016841F001014F
:102110000160002010BDFFE784F83E00D0E784F89E
:102120003F00CDE784F84000CAE70000002C0140E2
:10213000003401400004004000080040000C004052
:102140002DE9FF473549884254D1354C2088401C41
:1021500080B220806188491C61800A21B0FBF1F2C5
:1021600001FB120008B901F047FE20881421B0FBE2
:10217000F1F201FB120000283CD16068294E4FF0BB
:102180000009012838D02849C6F80090C1F800900D
:102190002649C1F800902649C1F800906069FEF711
:1021A000E9FB07462069FEF7E5FB0646E068FEF717
:1021B000E1FB0546A068FEF7DDFB3B4632462946BB
:1021C00002F03AF81B4D286AFEF70CFC07468846D9
:1021D000A868FEF707FC054617480E460068FEF79C
:1021E00001FC8DE8E00102460B4614A000F000FF60
:1021F000A4F80090BDE8FF8701F0B2FE144D13482B
:1022000028602846316802F077FB286AFEF7B2FBA7
:1022100003461A46114602F00FF8E9E7EC010020E8
:102220000000002040000020440000204800002062
:102230004C0000200C0300203C000020252E3266BC
:102240002C252E32662C252E32660A000080BB45D6
:10225000A00200207047704770470000F8B5016881
:1022600004460868CA684B6910F00F0F4FF000056C
:1022700059D003F0010602F49077374365D0C107C7
:1022800005D0D10503D5616C41F0010161644107BE
:1022900005D5D90703D0616C41F002016164810763
:1022A00005D5D90703D0616C41F0040161640107D1
:1022B00007D502F02001314303D0616C41F00801E1
:1022C0006164616C00293AD0800604D5900602D57D
:1022D000204600F088FD20684069616CC0F38010E2
:1022E000090700D460B3204600F056FD206840691D
:1022F000400621D52068143050E8001F21F040012D
:1023000040E80012002AF5D1E06BA8B16D494163A5
:10231000E06BFEF719FE002811D0E06B416B01B0B5
:10232000BDE8F040084783060FD593060DD520463B
:10233000BDE8F84000F057BD2046FFF78DFFF8BD1F
:102340002046FFF789FF6564F8BD266B2023012E28
:102350007CD1C6067AD5D60678D50868486800903C
:1023600048694FF00206400640D5E16B08684068B6
:102370000004000CE8D0A28D8242E5D9E08588698E
:1023800020282DD020680C3050E8001F21F48071E7
:1023900040E80012002AF5D12068143050E8001FF0
:1023A00021F0010140E80012002AF5D12068143024
:1023B00050E8001F21F0400140E80012002AF5D14A
:1023C00084F84230256320680C3050E8001F21F06B
:1023D000100140E80012002AF5D1E06BFEF790FDF5
:1023E0006663A08DE18D401A81B22AE0A08DE18D57
:1023F000401A81B2E08D0028A6D00029A4D0206820
:102400000C3050E8002F22F4907240E80027002F93
:10241000F5D12068143050E8002F22F0010240E886
:102420000027002FF5D184F84230256320680C3056
:1024300050E8002F22F0100240E80023002BF5D1D5
:1024400066632046FFF707FFF8BDFFE705062BD5BB
:10245000150629D594F841002128F5D1A068B0F5DA
:10246000805F01D12069B0B1206A411C21622168DE
:1024700000784860E08C401E0004000CE084E3D14A
:102480002068C16821F08001C1602068C16841F006
:102490004001C160D8E7206A0088C0F308004860A6
:1024A000206A801C2062E5E74006CDD55006CBD5DA
:1024B000CA68204622F04002CA6084F8413000F029
:1024C00019F9C1E7892D000870B5040004D094F80B
:1024D0004100002510B106E0012070BD84F8405095
:1024E000204600F023F8242084F841002068C168C9
:1024F00021F40051C160204600F0D6FC206801693B
:1025000021F4904101612068416921F02A01416173
:102510002068C16841F40051C1606564202084F8DE
:10252000410084F842006563002070BD30B585B07D
:10253000002400940194029403940068184988428E
:102540002BD11848C16941F40031C161C16901F45E
:1025500000310491816941F0040181618069124D6B
:1025600000F0040004900420009002200190032059
:10257000039069462846FEF791FD0820CDE9000446
:10258000694628460294FEF789FD0022114626205E
:10259000FEF7F2FE2620FEF7E1FE05B030BD00009A
:1025A0000044004000100240000801402DE9F843BB
:1025B000044690F84200984615460E46202802D060
:1025C0000220BDE8F883AEB1A5B1002060642221ED
:1025D00084F842102063FEF763FEA5858146E585F9
:1025E000A0684FF48057B84201D1206920B1354628
:1025F000002626E00120E4E7002522E04B460022E9
:1026000020212046CDF8008000F0AAFC08B103206C
:10261000D7E725B1A068B8421BD038B108E02068E0
:102620004068C0F3080026F8020B07E0206980B17B
:102630002068406800F07F0005F8010BE08D401E27
:10264000E085E08D0028D9D1202084F842000020C8
:10265000B7E720684068EFE770472DE9F843044684
:1026600090F841001F4615460E46202802D0022051
:10267000BDE8F8837EB175B100206064212084F844
:102680004100FEF70DFEA5848046E584A068B0F504
:10269000805F02D003E00120EAE7206910B13546EF
:1026A00000260EE000250CE08021204600F058FCBA
:1026B000A0B9ADB115F8010B21684860E08C401E4F
:1026C000E084E08C43464FF0000200970028EBD1F5
:1026D0004FF04001204600F043FC30B10320C7E733
:1026E00036F8020BC0F30800E6E7202084F841002A
:1026F0000020BDE77047FEE72DE9F04186B00024D9
:1027000028480094019402940394816941F04001A7
:102710008161816901F040010491816941F0040106
:102720008161816901F004010491816941F4807142
:102730008161816901F480710491816941F008012E
:1027400081618069184F00F0080004900022FF2189
:102750003846FEF7A0FDDFF85480002220214046D5
:10276000FEF799FDFF2001250226CDE90005CDE900
:10277000024669463846FEF791FC4FF47860CDE991
:10278000000469460A480294FEF788FC2020CDE93F
:102790000005CDE9024669464046FEF77FFC06B0DB
:1027A000BDE8F0810010024000180140000C01401B
:1027B0000020014010B592B000240F941C216846FF
:1027C0001094FDF702FD202107A8FDF7FEFC2D481F
:1027D0002B49016040F29F51C0E901146321C0E917
:1027E00003148021C0E90541FFF709FC08B1FEF799
:1027F00085FB0F940FA923481094FFF79DF808B1AB
:10280000FEF77CFB602000903220CDE901040394A8
:1028100004940594002269461A480694FFF789FB40
:1028200008B1FEF76BFB042269461648FFF781FBEF
:1028300008B1FEF763FB082269461248FFF779FBEF
:1028400008B1FEF75BFB0C2269460E48FFF771FBEF
:1028500008B1FEF753FB0794089409944FF4005015
:102860000A94CDE90B4007A906480E94FFF73AF801
:1028700008B1FEF743FB0348FFF728FB12B010BD79
:10288000002C01408400002010B58CB02421684643
:10289000FDF79BFC0024164809944FF080410A94F0
:1028A000C0E900144FF6FF71C0E902410461846180
:1028B0000320CDE900040120CDE9020406210491A2
:1028C000CDE90540CDE9074169460948FFF7F4F82D
:1028D00008B1FEF713FB099409A905480A94FFF70C
:1028E0002BF8002801D0FEF709FB0CB010BD00004A
:1028F000CC00002010B58CB024216846FDF765FCA3
:1029000000241648099414490A94C0E900144FF6AB
:10291000FF71C0E90241046184610320CDE9000434
:102920000120CDE9020406210491CDE90540CDE95D
:10293000074169460948FFF7BFF808B1FEF7DEFA1C
:10294000099409A905480A94FEF7F6FF002801D06A
:10295000FEF7D4FA0CB010BD0004004014010020B2
:1029600010B58CB024216846FDF72FFC00241648D2
:10297000099414490A94C0E900144FF6FF71C0E9A4
:102980000241046184610320CDE900040120CDE906
:10299000020406210491CDE90540CDE907416946CD
:1029A0000948FFF789F808B1FEF7A8FA099409A9C0
:1029B00005480A94FEF7C0FF002801D0FEF79EFAF2
:1029C0000CB010BD000800405C01002010B58CB0B8
:1029D00024216846FDF7F9FB0024164809941449A0
:1029E0000A94C0E900144FF6FF71C0E90241046186
:1029F00084610320CDE900040120CDE90204062111
:102A00000491CDE90540CDE9074169460948FFF742
:102A100053F808B1FEF772FA099409A905480A9417
:102A2000FEF78AFF002801D0FEF768FA0CB010BD4F
:102A3000000C0040A40100201CB500240E480094A6
:102A40000C490194016040F2CF21C0E901146321D7
:102A50008461C160FEF7AEFF08B1FEF74FFA009443
:102A6000694605480194FEF767FF002801D0FEF78C
:102A700045FA1CBD00100040EC0100200C4810B5C8
:102A80000A4901604FF4E1314160002181600C226C
:102A9000C160C0E904128161C161FFF715FD002822
:102AA00003D0BDE81040FEF729BA10BD0044004035
:102AB00034020020FEE7FEE770477047FEF7F6BBE2
:102AC00030B58FB028216846FDF77FFB14210AA896
:102AD000FDF77BFB0120010400248DE81300049026
:102AE0004FF4E010CDE90810022507956846FEF77F
:102AF00057FD08B172B6FEE70F20CDE90A054FF485
:102B00008060CDE90C4002210AA80E94FEF766FC15
:102B1000002801D072B6FEE70FB030BD704700004C
:102B20000148FFF71FB90000CC0000200148FFF763
:102B300019B90000140100200148FFF713B9000083
:102B40005C0100200148FFF70DB90000A40100203E
:102B50000148FFF707B90000EC010020F0B502685A
:102B60001C4D1D4E1D4FDFF878C01E4B4FF0804EA0
:102B7000A84209D0984207D0704505D0B04203D092
:102B8000B84201D0604503D122F070044A68224364
:102B9000A84209D0984207D0704505D0B04203D072
:102BA000B84201D0604503D122F44074CA68224380
:102BB0004C6922F08002224302608A68C2620A687D
:102BC0008262A84201D0984201D1096901630121C2
:102BD0004161F0BD002C01400004004000080040AD
:102BE000000C00400034014010B501F01F0101232A
:102BF000046A8B409C430462036A8A401343036265
:102C000010BD0000F0B5026A036A23F001030362FD
:102C100043688469114E24F073050C68104F2C43EF
:102C200022F002058A682A43B04201D0B84205D199
:102C300022F00805CA682A4322F00402B04201D0FB
:102C4000B84205D14D6923F440731D438B692B4372
:102C500043608461496841630262F0BD002C014019
:102C600000340140F0B5026A036A23F010030362E6
:102C7000436884690D6824F4E64444EA05248D68B9
:102C800022F0200242EA05120F4D104EA84201D058
:102C9000B04206D1CF6822F0800242EA071222F049
:102CA0004002A84201D0B04207D14D6923F44063ED
:102CB00043EA85038D6943EA85034360846149687B
:102CC00081630262F0BD0000002C0140003401402D
:102CD000F0B5026A036A23F4807303624368C4692F
:102CE00022F4007224F073050C68124E2C438D6898
:102CF00042EA05220E4DA84201D0B04206D1CF686B
:102D000022F4006242EA072222F48062A84201D043
:102D1000B04207D14D6923F4405343EA05138D694E
:102D200043EA05134360C4614968C1630262F0BDB0
:102D3000002C01400034014030B5036A026A22F4DD
:102D4000805202624268C4690D6824F4E64444EA91
:102D500005248D6823F4005343EA0533084DA84247
:102D600002D0084DA84204D14D6922F4804242EAC3
:102D700085124260C46149680164036230BD00008D
:102D8000002C01400034014010B5406A0021C1858B
:102D9000C184FFF761FA10BD01680C3151E8002FC2
:102DA00022F4907241E80023002BF5D10168143120
:102DB00051E8002F22F0010241E80023002BF5D159
:102DC000016B012909D101680C3151E8002F22F073
:102DD000100241E80023002BF5D1202180F8421099
:102DE00000210163704708B590F84210222901D0F4
:102DF000022008BD81684FF48053994201D10269D5
:102E000022B1826A99421BD049B10AE00268816A04
:102E10005268C2F308020A80816A891C08E00169CD
:102E200071B10168496801F07F011170816A491C24
:102E30008162C18D491E0904090CC18503D01BE0C4
:102E400001684968F1E70168CA6822F02002CA6097
:102E50000168CA6822F48072CA6001684A6922F077
:102E600001024A61202180F8421000214163026B77
:102E7000012A03D0FFF7F0FB002008BD01630168C1
:102E80000C3151E8002F22F0100241E80023002B02
:102E9000F5D101680A68D20602D50A68496800912E
:102EA000818DFFF7D8F9E7E770B50446006801693E
:102EB000E26821F4405111430161A1682069014396
:102EC000606901432068C26841F20C639A430A4377
:102ED000C26020684169A26921F4407111434161D7
:102EE0001E492068884202D1FEF724FB01E0FEF76C
:102EF00011FB00EBC00101EB00116068642280004F
:102F0000B1FBF0F3B3FBF2F36FF018067343B1FBC0
:102F1000F0F5B1FBF0F605EB8305322303EB051565
:102F2000B5FBF2F5B6FBF2F605F0F00505EB06157C
:102F3000B1FBF0F6B1FBF0F0B0FBF2F06FF018016E
:102F4000484306EB800003EB0010B0FBF2F0216871
:102F500000F00F002844886070BD00000038014078
:102F60002DE9F0411E46174688460446069D26E098
:102F7000681C24D025B1FEF793F9801BA8421ED906
:102F800020680C3050E8001F21F4D07140E8001296
:102F9000002AF5D12068143050E8001F21F001010B
:102FA00040E80012002AF5D1202084F8410084F87E
:102FB0004200002084F840000320BDE8F081206832
:102FC000016838EA010004D00020B842D0D00020C7
:102FD000F3E70120F9E7000010B501F023FDBDE89B
:102FE00010400148FFF73AB934020020FEE7000024
:102FF0000FB4054B10B503A9044A029800F048F934
:1030000010BC5DF814FB0000353B00087800002080
:103010000907090E002804DB00F1E02080F8001405
:10302000704700F00F0000F1E02080F8141D704799
:1030300030B528B1144C031F002021680A4605E072
:10304000084630BD9A4203D810465268002AF9D18A
:10305000002800D041680BD00468A3EB0005A5420E
:1030600004D11B681C440346046002E0436000E096
:1030700023603AB11C68D51AA54203D115682C44C7
:103080001C6052685A6030BD7C0000202DE9F0477A
:1030900082460F4C10480D4E0E4F001B4FF000089B
:1030A00020F007054FF0010900221146504600F0BC
:1030B00013FE002802D1306810B10020BDE8F0876F
:1030C0003C60C4E90058C6F80090EDE7800000209D
:1030D000340400207C0000203006002002E008C8F4
:1030E000121F08C1002AFAD170477047002001E082
:1030F00001C1121F002AFBD1704700002DE9FF5FBC
:1031000082B00021DDE90430020DDDF840B0034358
:1031100018D044F61050A2F2FF3242431514119811
:1031200001281FD0A5EB0B00401C5FEA000A4FF0FE
:1031300000064E4FDFF83891B046504615D5CAF11B
:10314000000413E0119801244AA3012801D16FEA79
:103150000B010298119AC0E90031C0E9024206B0A1
:10316000BDE8F09FCBF10000DFE704460021404AB4
:10317000491842EB0450CDE9001012E0E00707D0F7
:1031800032463B4640464946FDF779FB8046894634
:1031900032463B4610461946FDF771FB06460F4680
:1031A0006410002CEAD1DDE90401DDE90023BAF165
:1031B000000F06DAFDF763FB42464B46FDF75FFB67
:1031C00005E0FDF7D9FD42464B46FDF7D5FD044627
:1031D0000E460022284BFDF731FC03D84FF0FF309C
:1031E000014607E00022254B20463146FDF7A0FAB4
:1031F000FDF73DFE102409E0002C0ADB0A22002323
:10320000FDF766FC039B30321A55641E50EA01023A
:10321000F2D1641C039AC4F111031444119A012AD7
:1032200003D0012208430DD10AE0084304D0002056
:103230004FF0110B119072E7A3EB0B056D1E0DE023
:103240005B4504DD4FF0000205F1010504E003DAFF
:103250004FF00002A5F10105002AECD00298119967
:10326000C0E90231C0E9004579E7000000001440E0
:103270000000F03F300000000000F0430000E03F9D
:1032800030380A2801D20120704700207047000022
:103290002DE9FF4F95B09A46884606460025EEE197
:1032A000252877D100242746F94A0121039400E01C
:1032B000044316F8013F203B01FA03F01042F7D116
:1032C00030782A2811D06FF02F033078A0F1300227
:1032D000092A16D8039A44F0020402EB820203EB97
:1032E00042021044761C0390EFE758F8042B039237
:1032F000002A03DA504244F40054039044F00204DC
:10330000761C30782E2816D116F8010F44F00404EC
:103310002A280DD06FF02F023078A0F13003092B4E
:1033200009D807EB870302EB4303C718761CF3E7C2
:1033300058F8047B761C30786C280FD006DC4C28BB
:1033400017D068280DD06A2814D104E0742810D052
:103350007A280FD10DE044F400140AE044F48014FC
:1033600001E044F440147278824202D104F58014E2
:10337000761C761C307866280BD013DC582877D062
:1033800009DC002875D04528F6D04628F4D0472817
:103390001AD193E118E0632835D0642879D06528E4
:1033A00012D18BE1702873D008DC6728F1D069282E
:1033B0006FD06E280DD06F2806D1ACE073282CD0CA
:1033C000752874D0782853D05246179990476D1CB1
:1033D00054E1C4F30250022809D003280DD0D8F8D4
:1033E000001004280DD00D6008F1040846E1D8F85B
:1033F0000010EA17C1E90052F6E7D8F800100D8076
:10340000F2E70D70F0E718F8041B8DF800100020AB
:103410008DF80100EB46012003E058F804BB4FF0A3
:10342000FF3061074FF0000102D40DE009F1010106
:103430008946B9420FDA8145F8DB1BF809100029EB
:10344000F4D108E009F1010189468142FADB1BF859
:1034500009100029F6D103985346A0EB090721462D
:103460003846179A00F080FA284400EB090507E077
:1034700044E008E10DE01BF8010B52461799904714
:10348000B9F10109F7D2534621463846179AF2E0BE
:1034900039E00A21C4F302524FF0000B0091022AD6
:1034A00006D058F8040BC117032A09D00AE023E01C
:1034B00008F1070020F00702F2E80201904605E05B
:1034C00000B2C117042A01D140B2C117002906DA9F
:1034D0000A460021404261EB02012D2202E0220552
:1034E00004D52B228DF80420012203E0E20701D04D
:1034F0002022F7E7914657E00A2100E010214FF023
:10350000000B00910BE010214FF0000B44F004047D
:103510000827009103E008204FF0000B0090C4F34F
:103520000252022A05D058F8040B0021032A08D0C1
:1035300008E008F1070020F00702F2E802019046D7
:1035400003E080B2042A00D1C0B24FF00009220784
:103550002AD53278702A07D0DDF800C08CF0100C24
:103560005CEA0B0C05D00EE040228DF8042001220D
:1035700008E050EA010306D030238DF804308DF8BE
:10358000052002229146009B83F0080353EA0B03B7
:103590000AD150EA010201D1620705D530228DF827
:1035A00004204FF001097F1E3278582A04D039A236
:1035B0000C920CAA02920BE03BA2F9E75B46009A40
:1035C000FDF786FA0C9B9B5C029A521E02921370C6
:1035D00050EA0102F2D1029804A9081A00F1200B66
:1035E000600702D524F4803400E001275F4502DD46
:1035F000A7EB0B0000E0002000EB0B01009003980C
:103600004944401A0390E00306D453462146179AD2
:10361000039800F0A9F90544002706E001A85246E6
:10362000C05D179990476D1C7F1C4F45F6DBE0038A
:103630000CD553462146179A039800F095F9054496
:1036400004E030205246179990476D1C0099481E9F
:1036500000900029F5DC08E00298029952460078B3
:10366000491C0291179990476D1CBBF10001ABF109
:10367000010BF1DC5BE100F065F90544761C307864
:1036800000287FF40DAE19B02846BDE8F08F000089
:103690000928010030313233343536373839616228
:1036A00063646566000000003031323334353637EC
:1036B000383941424344454600000000600700D4C9
:1036C000062708F1070020F00700F0E802238046F3
:1036D00003F0004C5FEA0C0001D097A009E0200540
:1036E00001D596A005E0E00701D095A001E0AFF27A
:1036F0004C001390307823F0004365280CD006DC92
:10370000452809D046281DD047287FD13BE06628B0
:1037100018D067287AD136E00021112F01DB112063
:1037200000E0781CCDE9000104A90CA8FFF7E6FC35
:10373000DDE90D010C9A4FF0000B07F10109109221
:1037400000914EE04FF000400097CDE9011004A930
:103750000CA8FFF7D3FCDDE90D020C9B0F994FF08D
:10376000000B91461093009211B9791C00EB0109EE
:10377000B7EB090003D4C0F1FF3B07F10109A9EB46
:103780000700019042E0012F00DA01270021112FEC
:1037900001DD112000E03846CDE9000104A90CA8A4
:1037A000FFF7ACFCDDE90D010C9A00914FF0000B26
:1037B000B946109221070FD4009A4A4503DA914680
:1037C00001E0A9F10109B9F1010F05DD109AA9F194
:1037D0000101515C3029F4D0B84202DA10F1040F33
:1037E00003DA0121CDE9011010E0002803DC834455
:1037F000A9EB000102E0411C494500DD8946A0EB30
:103800000B00401C01904FF000400290200705D4AF
:103810000198484502DB4FF0FF30019000208DF801
:103820004B0002980DF14B07B0F1004F25D002205C
:103830000C902B200D90029800280CDA4042029048
:103840002D200D9007E00A210298FDF72BF9303169
:10385000029007F8011D0C99481E0C900029F2DC1B
:1038600002980028EFD1791E0D980870307800F08A
:10387000200040F0450007F8020D11A8C01BC01D34
:1038800002901398007800B1012000EB0901019823
:1038900001EBE071029801440398401A401E039026
:1038A000E00306D453462146179A039800F05CF8CB
:1038B00005441398007818B15246179990476D1C2B
:1038C000E00323D553462146179A039800F04CF89D
:1038D00005441BE0BBF1000F07DB0098584504DDF1
:1038E0001098179910F80B0001E0179930205246F4
:1038F000904701980BF1010B401E05F10105019065
:1039000004D12E205246179990476D1CB9F1000141
:10391000A9F10109DEDC05E017F8010B5246179901
:1039200090476D1C0299481E02900029F4DC534612
:103930002146179A03989EE62D0000002B000000F8
:10394000200000002DE9F041044600251E461746E0
:10395000880404D405E039462020B0476D1C641E5D
:10396000F9D52846BDE8F0812DE9F041044600254F
:103970001E469046C80301D5302700E02027880462
:1039800004D505E041463846B0476D1C641EF9D5A4
:103990002846BDE8F08110B530B1036823B1D0E905
:1039A0000121914201D204E0002010BD491C816038
:1039B00020B1914202D25C5C202CF7D99142F4D123
:1039C000491E816010BD000070B504460F4E19E01D
:1039D000A0892568C0050AD4A06820B1FFF7F4FFCC
:1039E000A089C00503D4206908B171688847A089FF
:1039F000800503D4206A08B1716888477168204641
:103A000088472C46002CE3D170BD000058000020F0
:103A1000002200F09BB810B50168282088470400F8
:103A200002D02821FCF7D1FB204610BD0022114610
:103A300000F06EB82DE9F04788B00F4606469A466A
:103A400015461C216846FCF7C0FB2F480024002EB9
:103A50000460446055D08146E7B30096CDE9017417
:103A6000D9E90212D9F810000491CDE9052009F135
:103A70000800FFF7D0FF5FEA00082BD000986F46E0
:103A800008B1029808B100200CE00198042808D978
:103A900003221EA10098FCF7B8FB10B90298C01CC5
:103AA00002903846FFF777FF0146404600F03AFEA5
:103AB00068B1BAF1000F13D06846FFF76CFFDDE97B
:103AC0000101814203D202990098405C40B1404616
:103AD000FFF77AFFDDE9011088420AD204460BE0C5
:103AE0001DB10299009808442860404608B0BDE81E
:103AF000F087081E00D0441E0DB130192860C9E9B6
:103B000000640020F2E7000050000020EFBBBF007F
:103B100070B515460E46040009D0FCF761FB411C48
:103B20002B4632462046BDE87040FFF783BF002099
:103B300070BD000013B54FF6FF73012269460248BD
:103B4000FEF78BFD00981CBD340200202DE9F041EA
:103B50008846A8B3B8F1000F33D085680AB90AE0E7
:103B60002D686DB3296A59B34046FCF740FB002825
:103B7000F6D120E02D681DB32E6A5FEA0804F9D063
:103B8000002EF7D0B44218D002E098B1641C761C25
:103B90002078FCF7FBFA07463078FCF7F7FA874203
:103BA0002078F2D0FCF7F2FA04463078FCF7EEFA0F
:103BB0008442DFD125B1286A10B12846BDE8F081E2
:103BC000FFE70020FAE700002DE9F04786B0044641
:103BD00000F046FF002860D13148FFF727FF064676
:103BE00030A1FFF715FF304D50B12EA13046FFF741
:103BF0000FFFD0E906211046FCF738FF68606061CE
:103C00002AA13046FFF704FF50B128A13046FFF744
:103C1000FFFED0E906211046FCF728FFA860A0614E
:103C200023A13046FFF7F4FE50B121A13046FFF743
:103C3000EFFED0E906211046FCF718FFE860E061CE
:103C40001CA13046FFF7E4FE50B11AA13046FFF741
:103C5000DFFED0E906211046FCF708FF286120604E
:103C6000FF210F48FCF7B1FA2869FCF7BBFE81463B
:103C70008A46E868FCF7B6FE07468846A868FCF75F
:103C8000B1FE04460E466868FCF7ACFE8DE8D0072E
:103C900002460B4608A0FFF7ABF906B0BDE8F08777
:103CA0003003002070000000640000206900000064
:103CB0006400000061000000703A252C3366206922
:103CC0003A252C336620643A252C336620703A2539
:103CD0002C33660D0A0000002DE9F0410B3020F076
:103CE0000706104D19E02068B04215D3B0420AD93A
:103CF000871B201DD4F80480FCF74EFAA019C0E9F8
:103D00000078286004E060682860201DFCF744FA11
:103D1000201D2660BDE8F081251D2C68002CE2D115
:103D20000020F7E77C000020FDF7C8FAFEF7C8FE88
:103D3000FEF7E2FCFEF7A2FEFEF73CFDFEF7A4FD57
:103D4000FEF7D8FDFEF70CFEFEF740FEFEF774FE10
:103D50002248FDF77BFE00F0DBF800F081F900F06F
:103D60005FFD1F480068C16841F02001C1601D4D22
:103D700000201D4FA860E86028611C4E1C4C4FF4C9
:103D80008078686141463846FDF780FA28B980217D
:103D90003846FDF77BFA012806D041463846FDF744
:103DA00075FA012804D008E02E61C5E9024607E053
:103DB00080213846FDF76AFA50B1AC602C61EC60A6
:103DC0006C610C48FFF700FF0A20FDF755F9D9E7B1
:103DD0002C61C5E902646E61F3E70000EC0100208C
:103DE000340200200000002000200140000020419B
:103DF000000048427C0200202DE9F05F3C48026848
:103E0000506A3C4CDFF8F08001B22180D8F8000005
:103E1000406A3A4B07B267801868406ADFF8E0C032
:103E200006B2A680DCF80000406A05B2E5800020FA
:103E30005062D8F8002050621A685062DCF8002006
:103E400050620846FCF78DFDDFF8B8B05946FCF724
:103E5000F3FB5946FCF7F0FBDFF8AC804146FCF77A
:103E60001DFCDFF8A8904946FCF718FC6FF0010A2A
:103E70005146FCF751FCA0603846FCF772FD5946EC
:103E8000FCF7DAFB5946FCF7D7FB4146FCF706FC8A
:103E90004946FCF703FC5146FCF73EFCE060304627
:103EA000FCF75FFD5946FCF7C7FB5946FCF7C4FB1E
:103EB0004146FCF7F3FB4946FCF7F0FB5146FCF7A3
:103EC0002BFC20612846FCF74CFD5946FCF7B4FB5F
:103ED0005946FCF7B1FB4146FCF7E0FB4946FCF7CD
:103EE000DDFB5146FCF718FC6061BDE8F09F000067
:103EF000CC00002028000020140100205C010020DC
:103F0000A40100200000C842000016430000304118
:103F100010B53C210E48FDF7DBFE3C210D48FDF7B6
:103F2000D7FE3C210C48FDF7D3FE3C210B48FDF7A2
:103F3000CFFE0748FDF78AFD0648FDF787FD0648D6
:103F4000FDF784FDBDE810400448FDF77FBD00008B
:103F5000CC000020140100205C010020A4010020FE
:103F60002DE9F047364CA068FCF73CFDDFF8D48023
:103F7000DFF8D49042464B46FCF781FCDFF8CCA03A
:103F800000225346FCF77BFC05460E46A069FCF771
:103F900029FD2A463346FCF7CBFBFCF767FD0746B5
:103FA000A061E068FCF71EFD42464B46FCF767FC4B
:103FB00000225346FCF763FC05460E46E069FCF719
:103FC00011FD2A463346FCF7B3FBFCF74FFDE061D9
:103FD0002069FCF707FD42464B46FCF750FC0022E7
:103FE0005346FCF74CFC05460E46206AFCF7FAFCEB
:103FF0002A463346FCF79CFBFCF738FD20626069DB
:10400000FCF7F0FC42464B46FCF739FC00225346D5
:10401000FCF735FC05460E46606AFCF7E3FC2A46D1
:104020003346FCF785FBFCF721FD60623846FCF760
:10403000D9FCBDE8F04702460B4605A0FEF7D8BF05
:10404000280000207B14AE47E17A943F0000344002
:10405000C0EFB3CCCAFD3A252E32660D0A0000002F
:1040600010B500210848FEF70DF804210648FEF7B8
:1040700009F808210448FEF705F8BDE810400C21B6
:104080000148FDF7FFBF0000840000202DE9F04744
:104090001C4615460E46071E00DC78420F2800DA43
:1040A0000027002E01DD084600E070420F2800DAEC
:1040B0000026002D01DD104600E068420F2800DADE
:1040C0000025002C01DD184600E060420F2800DAD0
:1040D0000024DFF85C916FF0620A002F09DB632F88
:1040E00000DD6327002201214846FDF7D4F80122B4
:1040F00008E0574500DA5746012211464846FDF7C9
:10410000CAF8002202214846FDF7C5F8002F00DC5E
:104110007F42DFF82081D8F800004763002E09DDD8
:10412000632E00DD6326002204214846FDF7B3F824
:10413000012214E00AD1002204214846FDF7ABF821
:10414000002208214846FDF7A6F80EE0564500DAA1
:104150005646012204214846FDF79DF80022082119
:104160004846FDF798F8002E00DC7642D8F80000AB
:104170008663002D0ADD632D00DD632501222021E9
:104180004E464846FDF787F8002216E00BD1002284
:1041900020214E464846FDF77EF800221021304689
:1041A000FDF779F80FE0554500DA55460022202149
:1041B0004E464846FDF76FF8012210213046FDF7C4
:1041C0006AF8002D00DC6D42D8F80000C563002CB1
:1041D0000ADD632C00DD6324012280214D46484620
:1041E000FDF759F8002216E00BD1002280214D4640
:1041F0004846FDF750F8002240212846FDF74BF8CD
:104200000FE0544500DA5446002280214D464846CE
:10421000FDF741F8012240212846FDF73CF8002C2B
:1042200000DC6442D8F800000464BDE8F0870000B8
:1042300000180140840000202DE9F0411F46164679
:104240000D46FCF78EFB234C20602846FCF789FBCB
:10425000214D28603046FCF784FB204E3060384604
:10426000FCF77FFB1E4F38601E480168204600F0B7
:1042700019FB1D480168284600F014FB1B48016823
:10428000304600F00FFB1A480168384600F00AFB80
:10429000396A3868FCF778F9FCF76CFB0746316A35
:1042A0003068FCF771F9FCF765FB0646296A286857
:1042B000FCF76AF9FCF75EFB0546216A2068FCF70B
:1042C00063F9FCF757FB3B4632462946BDE8F0410F
:1042D000FFF7DCBE7C020020C4020020E8020020C0
:1042E0000C030020300000203400002038000020A3
:1042F0003C0000202DE9F04107460026C8680C4626
:104300003546B0F57A7F5BD2401CE0602168A0683A
:10431000095C5B2954D1401CA0602046FFF73BFBA1
:104320004CB1D4E90110884203D22268125C5D2AA4
:1043300033D0884203D3A068401EA06040E0401EF6
:1043400004F11008A0604046FFF765FB98B30EB378
:10435000286045600546A068401CA0602046FFF725
:104360001AFB2146284600F0DDF930B32046FFF75E
:1043700012FB14B3D4E90110884203D22168095C0E
:104380002C29E0D06268904217D22168085C5D2831
:1043900013D102E006463546DDE7E068401EE060E6
:1043A00006B175602020C7E90260A068401CA060CB
:1043B0000120BDE8F081FFE716B13046FFF704FBAE
:1043C0000020F6E7034610B500200246995CA1F1F3
:1043D0003004092C01D830380AE0A1F14104052C41
:1043E00001D8373804E0A1F16104052C08D857380A
:1043F0000844032A00D20001521C042AE6D310BD4F
:10440000002010BD2DE9F04192B04FF000070C00E4
:1044100005464FF02E063B4610973CD02068D0B39F
:10442000694627E0226810441A5C342A1BD00ADC53
:10443000A2F12B00092823D2DFE800F0152215177E
:10444000221515151500382A0DD006DC352A0AD09C
:10445000362A08D0372A13D105E0392A03D0452A55
:1044600001D0652A0CD1CA5400E0CE545B1C3F2B0E
:1044700006D22CB1A068D4F804C0C2186245D1D3CA
:104480008846CF54404610A900F0BEFA0F46109956
:104490000646884503D1002012B0BDE8F081124ADB
:1044A000124B30463946C5E90667FCF7C7FA02D811
:1044B0006FF000400DE000220D4B30463946FCF70E
:1044C000A5FA02D84FF0004003E030463946FCF729
:1044D0006AFA68610820E860109AA168A2EB0800F7
:1044E0000844A0600120D7E70000C0FFFFFFDF41C4
:1044F0000000E0C12DE9F04107460026C8680C46DF
:104500003546B0F57A7F78D2401CE060002C74D03C
:10451000D4E90110884270D22168095C7B296CD1F2
:10452000401CA0602046FFF736FAD4E9011088420B
:1045300003D22268125C7D2A4CD08842A0F101008F
:10454000A0605AD204F110084046FFF764FAE8B3BD
:10455000F6B1286045600546A068401CA060204672
:10456000FFF719FA2146284600F049F878B32046AB
:10457000FFF711FA28692862002028613CB3D4E9CA
:104580000110884236D22168095C3A2932D102E012
:1045900006463546E0E7401CA0602046FFF7FBF9E1
:1045A0002146284600F0BEF888B12046FFF7F3F90F
:1045B000D4E90110884203D22168095C2C29C3D0B8
:1045C0006268904216D22168085C01E011E011E0B7
:1045D0007D280FD1E068401EE06006B17560402084
:1045E000C7E90260A068401CA0600120BDE8F0811E
:1045F00003E016B13046FFF7E7F90020F6E72DE9B2
:10460000F84F8146D1F8088008684FF0000ACDF8CD
:1046100000A0D1F800C000EB0804651C1CF80800DD
:10462000641C0E465746222876D10021706807E0A8
:104630005C2B04D1521C82426AD2491C641C641C4B
:10464000A4EB0C02824202D22378222BF0D1A4EBFD
:104650000C0282425CD22078222859D10CEB08004F
:10466000201A401A3169401C8847070054D000972F
:104670003DE029785C2905D000986D1C00F8011BED
:10468000009034E00221601B012841DB6878662835
:1046900014D008DC22281DD02F281BD05C2819D06C
:1046A000622835D108E06E280ED072280ED074280A
:1046B0000ED075282CD112E0082200E00C220098C0
:1046C00000F8012B009011E00A22F8E70D22F6E72E
:1046D0000922F4E7009A02F8010B009206E06A460C
:1046E0002146284600F0D0F9010011D00D44A54222
:1046F000BFD3009981F800A01021C9E903173068E1
:10470000201A401CB0600120BDE8F88F04E0FFE7EC
:1047100017B171693846884715B13068281AB060FA
:104720000020F1E770B50C0005465ED02168002935
:104730005BD0A0686368021D9A4205D80844042231
:1047400031A1FBF762FD78B3A0686268411D0126C4
:10475000914206D82168052208442DA1FBF755FD9A
:1047600028B3A0686268011D914206D8216804221E
:10477000084429A1FBF749FDE8B1D4E901018142D0
:1047800003D22268525C222A1DD0814221D22268A3
:10479000525C2D2A02D0303A092A1AD821462846DE
:1047A000BDE87040FFF72EBE0420E86006E0EE6032
:1047B000A068401D04E002206E61E860A068001D52
:1047C000A060012070BD21462846BDE87040FFF77B
:1047D00016BF814203D22268525C5B2A07D0814215
:1047E00003D22068405C7B2807D0002070BD2146A2
:1047F0002846BDE87040FFF77DBD21462846BDE84C
:104800007040FFF777BE00006E756C6C0000000012
:1048100066616C73650000007472756500000000CD
:104820001D4930B50020486008608860C860086194
:104830008861C86101F148020862506010609060B0
:10484000D06010619061D06101F16C03106258601A
:1048500018609860D86018619861D86101F190047F
:10486000186260602060A060E0602061A061E0618B
:1048700001F12405206268602860A860E860286172
:10488000A861286205484861506158610449606127
:10489000E961686130BD00007C0200200000204119
:1048A0000AD7233C2DE9F041044641600068FBF73C
:1048B000BDFE0546A06029462069FBF765FE206124
:1048C00007462846E168FBF7B1FEE169FBF7B4FE55
:1048D00006463946A069FBF7AFFE074629466069E0
:1048E000FBF7AAFE3946FBF74FFE3146FBF74CFEBD
:1048F000E5602062BDE8F0812DE9F04104464160A9
:104900000068FBF793FE1F494FF00008A060884243
:1049100005DA1D49884202D24046C4F8088005469F
:1049200029462069FBF730FE206107462846E168EA
:10493000FBF77CFEE169FBF77FFE06463946A0697E
:10494000FBF77AFE074629466069FBF775FE394694
:10495000FBF71AFE3146FBF717FE0C49E5602062B3
:10496000884202DC0A49884201D9216207E00949EC
:10497000884204D20849884201DAC4F82080206ABB
:10498000BDE8F08100002041000020C10000A042ED
:104990000000A0C20000A0C00000A0402DE9F04728
:1049A00004008A4616D054F8047CD4F800903E1FC8
:1049B000564500D956462046FEF73AFB054688463E
:1049C000324621465046FFF787F940B1C0F80090C3
:1049D000BDE8F087BDE8F0470846FEF757BB44E95D
:1049E000017955B129686A18211F8A4202D9611BD1
:1049F000091F2960C5F80480EAE7024AC2F800806E
:104A0000E6E700007C00002000B583B00A460021E4
:104A1000CDE9001101466846FCF7E7F8DDE9000141
:104A200003B000BD0B4800680068800610D50A4A34
:104A30001078FF2801D3002010700849C0B201444B
:104A4000401C10704FF47A7301220248FDF7AEBD8E
:104A50007047000034020020640000203003002072
:104A600008490022087830B14B78984206D10A7084
:104A70004A70002070474A70012070474870022039
:104A800070470000640000202DE9F047074600262B
:104A9000C81B1446894606285CDBB81CFFF792FC4D
:104AA0000546A0F55C404FF48061884252D3A5F5DD
:104AB00058408A4650451AD2B81DA9EB00014FF064
:104AC0000C08062946DB01785C2943D14178752919
:104AD00040D1801CFFF776FCA0F55C41514539D2EE
:104AE000C5F3090161F39F2000F5803002E04FF02B
:104AF00006082846802801D2012210E0B0F5006F98
:104B000002D20222C0260AE0B0F5803F02D2032280
:104B1000E02604E0B0F5881F1CD20422F026511EC6
:104B200007E000F0BF03256843F0800380096B5461
:104B3000491E11F0FF01F4D1012A01D9304301E0EF
:104B400000F07F0021680870206810442060404613
:104B5000BDE8F0870020FBE7010202030405060719
:104B600008090A0B0C0D0E0F1010000000000000C9
:104B7000000001020304060708090000000001020A
:104B80000304DDDDDDDDDCBBBBDDDDDDDDDDDDDD4D
:104B9000DDDD988888888888888877777777778830
:104BA0008888855555566666666666666666666872
:104BB0008888833333322222222222222222222870
:104BC000888D0000E44B00080000002084000000F5
:104BD000DC300008684C000884000020AC090000AC
:104BE000EC300008000000000000000000000000A1
:104BF00000000000000000000000000001000000B4
:104C000010000000000000000024F400000000007C
:104C10000000000000000000000000000000000094
:104C20000000000000000000000000000000000084
:104C30000000000000000000000000008D300008AF
:104C4000313000089D49000800000000000000000D
:104C50000000000000000000000000000000000054
:084C600000000000000000004C
:0400000508000131BD
:00000001FF
