:020000040800F2
:100000002806002049010008471F0008831B00083C
:10001000451F00086D080008B32300080000000019
:100020000000000000000000000000004B1F00085E
:100030006F08000800000000491F00084D1F00085D
:100040006301000863010008630100086301000800
:1000500063010008630100086301000863010008F0
:1000600063010008630100086301000863010008E0
:1000700063010008630100086301000863010008D0
:1000800063010008630100086301000863010008C0
:1000900063010008630100086301000863010008B0
:1000A00063010008630100086301000863010008A0
:1000B000B11F0008BD1F0008C91F00086301000828
:1000C0006301000863010008630100086301000880
:1000D0006301000863010008630100086301000870
:1000E0006301000863010008630100086301000860
:1000F000E11F0008630100086301000863010008B4
:100100006301000863010008D51F000863010008AF
:10011000630100086301000863010008630100082F
:10012000630100086301000863010008630100081F
:10013000DFF810D000F00AFB00480047B92C000897
:10014000AFF3008028060020064880470648004795
:10015000FEE7FEE7FEE7FEE7FEE7FEE7FEE7FEE777
:10016000FEE7FEE7AD1F000831010008202A04DB8E
:10017000203A21FA02F00021704721FA02F3D04020
:10018000C2F120029140084319467047D2B201E003
:1001900000F8012B491EFBD270470022F6E710B58C
:1001A00013460A4604461946FFF7F0FF204610BDE5
:1001B00080EA010210B502F00043400022D04A005C
:1001C0001FD0010E01EB1261C0F35600C2F35602BC
:1001D00040F4000042F40002A0FB022000047F393A
:1001E000140400D0401C50EA124001D44000491EC3
:1001F000C2B20C0604EBD010401C4008802A02D08A
:1002000003E0002010BD20F00100002900DA0020EA
:10021000184310BD30B480EA010202F0004530F00E
:10022000004221F0004013D090B1C30DD40DC2F3B1
:100230001601C0F31600E41A41F4000140F4000274
:100240007D34914201D3641C00E04900002C02DAA5
:1002500030BC002070474FF400000023914201D3CE
:10026000891A034340084FEA4101F7D151B1914245
:1002700002D14FF0004105E002D24FF0010101E050
:100280006FF0010103EBC450284430BC00F06FB89C
:10029000420005D0C0F3C7525242914201DC002017
:1002A000704700EBC1507047C10F80EAE07008440E
:1002B000CA079623002100F063B800F0004230F036
:1002C00000400AD0C10D01F56071C0F3160042EA8A
:1002D0000151C20840071143704700200146704792
:1002E00030B50B46014600202022012409E021FA06
:1002F00002F59D4205D303FA02F5491B04FA02F503
:100300002844151EA2F10102F1DC30BD2DE9F05F99
:100310000546002092469B46884606468146402474
:100320001BE02846414647462246FFF71FFF53463B
:100330005A46C01A914110D311461846224600F081
:1003400017FA2D1A67EB01084F46224601200021BB
:1003500000F00EFA17EB00094E41201EA4F1010433
:10036000DFDC484631462A464346BDE8F09F002977
:10037000A8BF7047401C490008BF20F0010070472B
:1003800010B4B0FA80FC00FA0CF050EA010404BF8B
:1003900010BC704749B1CCF1200421FA04F411FAE1
:1003A0000CF118BF012121430843A3EB0C01CB1D25
:1003B0004FEA00614FEA102042BF002010BC704796
:1003C00000EBC35010440029A4BF10BC7047401C70
:1003D000490008BF20F0010010BC70472DE9FE4F16
:1003E000804681EA0300C00F0C46009021F00041D6
:1003F00023F00045B8EB0200A94105D24046214652
:1004000090461C460B46024623F00040104347D05E
:10041000270DC7F30A00C3F30A510290401A019056
:1004200040286BDAC3F3130040F4801B0098924617
:1004300020B10023D2EB030A63EB0B0B0198594662
:10044000C0F14002504600F093F906460D46504672
:100450005946019A00F09BF910EB08006141002415
:1004600087EA115284EAE7731A4340D0009A62B3D4
:10047000019A012A4FEA075215DC001B61EB0201C9
:100480004FF0004202EA0752CDE90042001C41F55C
:10049000801132462B4600F09BF903B0BDE8F08F87
:1004A00040462146F9E7001B61EB0201001C41F5C3
:1004B000801300185B412018A2F5001747EB0301D9
:1004C00040EAD570B6196D4111E06D084FEA360665
:1004D00045EAC0754FEA0752001B61EB0201001CA0
:1004E00041F5801149084FEA300000195141324668
:1004F0002B4603B0BDE8F04F00F05BB90098012235
:1005000040000023D0EB020263EBE0730098214629
:100510004FEAE074B8EB000061EB0401E9E783F017
:1005200000435BE781F0004158E72DE9FE4F81EA87
:10053000030404F0004421F0004100944FF0000B4C
:1005400023F0004350EA01045ED052EA03045BD07A
:10055000C3F30A54C1F30A552C44A4F2F3340194B2
:10056000A0FB0254C1F3130141F48011C3F3130340
:1005700043F4801301FB024400FB034E840A970AF4
:1005800044EA815447EA8357A4FB076802958D0A21
:1005900005FB07854FEA932C04FB0C542705029DAD
:1005A0004FEA065847EA1637B5EB08056EEB070C1D
:1005B000870E920E47EA811742EA8312A7FB0201D7
:1005C000B6EB0B0164EB00042B0D43EA0C335E1811
:1005D00044EB1C50DA465146E7FB0201C5F3130415
:1005E0004FEA0B3343EA14534FEA0432019C43EAC7
:1005F0000603A4F10C040294009CCDE900B400F0C1
:10060000E7F803B0BDE8F08F00200146F9E72DE9D7
:10061000F04D81EA030404F0004B21F0004514463C
:100620004FF0000A23F0004150EA050220D054EABE
:1006300001021DD0C5F30A570246C5F31303C1F3E7
:100640001300C1F30A5640F4801543F48013A7EB5E
:100650000608101BD64608F2FD3873EB050002D3DE
:1006600008F1010801E092185B41B8F1000F03DACC
:1006700000200146BDE8F08D00204FF480110646B1
:1006800084460EE0171B73EB050705D3121B63EBC3
:10069000050306434CEA010C49084FEA3000921862
:1006A0005B4150EA0107EDD152EA030012D082EA21
:1006B000040083EA0501084305D0101BAB4106D2B4
:1006C0000122002306E000224FF0004302E06FF019
:1006D000010253101AEB06004CEB085110EB0A0014
:1006E00041EB0B01BDE8F04D00F063B8C1F30A52D5
:1006F000C1F3130140F2FF3341F480119A4202DA50
:1007000000200146704740F233439A42A2F233423E
:1007100002DC5242FFF72ABD00F02AB830B5041EB1
:1007200071F1000404DB4FF00044404264EB01012E
:10073000141E73F1000405DB1C464FF000435242C7
:1007400063EB0403994208BF904230BD064C074D4D
:1007500006E0E06840F0010394E807009847103491
:10076000AC42F6D3FFF7E8FCF82F00081830000879
:10077000202A04DB203A00FA02F100207047914061
:10078000C2F1200320FA03F3194390407047202A56
:1007900006DBCB17203A41FA02F043EAE07306E0A9
:1007A00041FA02F3D040C2F12002914008431946B9
:1007B000704710B5141E73F1000408DA401C41F1B3
:1007C000000192185B411A4301D120F0010010BDD5
:1007D0002DE9F04D92469B4611B1B1FA81F202E04B
:1007E000B0FA80F220329046FFF7C2FF04460F466F
:1007F00040EA0A0041EA0B0153465A46084313D027
:10080000114653EA010019D0C8F140025046FFF7E3
:10081000ADFC05460E46504659464246FFF7A8FF36
:10082000084305D0012004E020463946BDE8F08D9C
:100830000020054346EAE0762C4337430A986305D7
:10084000E40AA0EB08000022FD0A44EA47540A30FB
:1008500002D500200146E9E7010510196941DDE9EB
:10086000084500196941BDE8F04DA2E7FEE7704771
:1008700072B6FEE770B5044600F00CF90546601C40
:1008800002D004480078044400F004F9401BA04260
:10089000FAD370BD000000202DE9F84FDFF8C091B9
:1008A0000024A9F1040B23464FF00F0809F1040AB4
:1008B000ABF1040ECCE00127A7403A40BA4272D116
:1008C000DFF8A0C14D68A5EB0C0665452BD00DDC0B
:1008D000032D34D005DC35B3012D19D0022D2FD1D5
:1008E0001BE0112D16D0122D2AD119E0B6F5881F64
:1008F00019D006DCB6F5803F15D0B6F5801F1FD1A4
:1009000011E0B6F5001F0ED0B6F5041F18D10AE0AD
:10091000CB6815E0CB681B1D12E0CB6808330FE0F5
:10092000CB680C330CE08B682BB1012B4FF0080324
:1009300003D0476104E0042302E0076100E00023E4
:10094000FF2A01D8064601E000F104064FEA8405BB
:1009500001D9A5F12005376808FA05FC27EA0C073C
:1009600003FA05F547EA050737604D68ED006ED5D7
:100970003D4DAE6946F00106AE61AD6924F0030657
:1009800005F001050095394D7719BE68A5072D0FB3
:1009900008FA05FC26EA0C06DFF8D4C0604503D14E
:1009A0004FF0000C25E052E0DFF8C8C0604502D1EE
:1009B0004FF0010C1DE0DFF8C0C0604502D14FF0E0
:1009C000020C16E0DFF8B4C0604502D14FF0030C12
:1009D0000FE0DFF8ACC0604502D14FF0040C08E036
:1009E000DFF8A0C0604502D14FF0050C01E04FF0E8
:1009F000060C0CFA05FC4CEA060CC7F808C04D685A
:100A0000D9F80060ED024D4601D5164300E096434B
:100A10002E604D68DAF80060AD02554601D51643E8
:100A200000E096432E604D68DBF80060AD035D4644
:100A300001D5164300E096432E604D68DEF8006055
:100A4000ED03754601D5164300E096432E60641C05
:100A50000A6832FA04F57FF42EAFBDE8F88F000083
:100A60000804014000001110001002400000014085
:100A700000080140000C014000100140001401403A
:100A800000180140001C01400AB1016170470904CF
:100A9000FBE700000148806870470000000000206C
:100AA000024881680278114481607047000000208C
:100AB000074810B5016841F010010160032000F003
:100AC00075F80F2000F006F800F024F8002010BDA3
:100AD0000020024070B50D4D04464FF47A7128781D
:100AE000B1FBF0F00A490968B1FBF0F000F0DEFA62
:100AF00048B9102C07D200222146501E00F036F8CB
:100B000000206C6070BD012070BD0000000000205E
:100B10000C0000200C4808B5816941F00101816199
:100B2000816901F001010091C16941F08051C16109
:100B3000C069064900F080500090486820F0E060ED
:100B400040F00070486008BD001002400000014005
:100B5000002809DB00F01F020121914040098000BC
:100B600000F1E020C0F8001170470000F0B40E4B17
:100B70001B68C3F30223C3F10704042C00D9042427
:100B80001D1D072D01D2002300E0DB1E012606FA01
:100B900004F56D1E0D409D409E40761E164045EAB0
:100BA0000601F0BC01F016BC0CED00E0064A00F0B6
:100BB000070110684FF6FF03184040EA012003497F
:100BC00008431060704700000CED00E00000FA05DB
:100BD0002DE9F0470D46040067D0DFF81881D8F8FA
:100BE000000000F00700A8420CD2D8F8001021F055
:100BF00007012943C8F80010D8F8000000F00700EA
:100C0000A84252D120683C4E810712D5400703D537
:100C1000706840F4E06070602078000703D5706869
:100C200040F4605070607068A16820F0F0000843E4
:100C300070602078C00727D06068012810D0316824
:100C4000022810D0890700292FDA716821F00301EA
:100C500001437160FFF71EFF074641F288390CE03F
:100C600031688903EFE78901EDE7FFF713FFC11B47
:100C7000494502D90320BDE8F0877068616800F03B
:100C80000C00B0EB810FF0D1D8F80010404601F015
:100C90000701A9420BD9016821F00701294301602E
:100CA000006800F00700A84201D00120E3E72078A7
:100CB000400705D57068E16820F4E0600843706083
:100CC0002078000706D57068216920F4605040EA5A
:100CD000C100706000F038F87168084AC1F3031170
:100CE000515CC8400649086006480068FFF7F2FEFC
:100CF0000020C0E70020024000100240DE2F000864
:100D00000C000020040000200448054900684968E0
:100D1000044AC1F30221515CC84070470C00002016
:100D200000100240EE2F0008044805490068496899
:100D3000044AC1F3C221515CC84070470C00002036
:100D400000100240EE2F00080E4B59680E4801F0CB
:100D50000C02042A11D0082A0FD10C48C1F3834297
:100D6000C903805C0AD55968084AC1F34041921E04
:100D7000515C054A5043B0FBF1F0704704494843C9
:100D8000704700000010024000127A00CE2F0008C9
:100D900000093D002DE9F84F04006FD02078BE4DCA
:100DA000C00747D06868C0F38100012807D0686891
:100DB000C0F38100022809D16868C00306D52868FD
:100DC000800337D560680028E7D033E06068B0F56D
:100DD000803F0BD010B1B0F5A02F11D0286820F4BF
:100DE00080302860286820F4802002E0286840F4E1
:100DF00080302860606888B1FFF74CFE064609E045
:100E0000286840F480202860F0E7FFF743FE801B4D
:100E1000642873D828688003F7D50BE0FFF73AFE03
:100E2000064604E0FFF736FE801B6428F1D82868E8
:100E30008003F7D42078DFF8648280074FF0010A3E
:100E40004FF0000939D5686810F00C0F07D06868BA
:100E5000C0F38100022809D16868C00306D428685D
:100E6000800714D52069012808D110E02069B0B1AD
:100E7000C8F800A0FFF70EFE064605E007E1FFF701
:100E800009FE801B0228C4D828688007F7D5286887
:100E9000616920F0F80040EAC10028600DE0C8F860
:100EA0000090FFF7F7FD064604E0FFF7F3FD801B17
:100EB000022823D828688007F7D4207800072CD58B
:100EC0007748A169D9B1C0F800A0FFF7E3FD064655
:100ED00004E0FFF7DFFD801B02280FD8686A800757
:100EE000F7D570484FF4FA510068B0FBF1F000906C
:100EF00000BF0098411E0091FAD20EE07CE0C0F8DD
:100F00000090FFF7C7FD064604E0FFF7C3FD801B16
:100F1000022871D8686A8007F7D4207840075BD52B
:100F2000E8690027C00008D4E86940F08050E86113
:100F3000E869012700F0805000905B480168C9050E
:100F400011D40168834641F480710160FFF7A2FD6E
:100F5000064604E0FFF79EFD801B64284CD8DBF8B2
:100F60000000C005F6D5E06801280AD008B10528C0
:100F700013D0286A20F001002862286A20F00400BB
:100F800002E0286A40F001002862E06841F2883BF4
:100F900088B1FFF77FFD064609E0286A40F00400AB
:100FA0002862EEE7FFF776FD811B59455BD8286A7A
:100FB0008007F7D50BE0FFF76DFD064604E0FFF76D
:100FC00069FD811B59454ED8286A8007F7D41FB1A7
:100FD000E86920F08050E861E069A8B36968C1F36E
:100FE0008101022946D00228484606D0C8F8600090
:100FF000FFF750FD044639E035E04746C8F8600089
:10100000FFF748FD064604E0FFF744FD801B022879
:1010100029D828688001F7D4206AB0F5803F05D12F
:101020006868A16820F4003008436860D4E90801CA
:101030000843696821F4741108436860C7F860A028
:10104000FFF728FD044605E023E0FFF723FD001B22
:10105000022808D828688001F7D51AE0FFF71AFDA2
:10106000001B022802D90320BDE8F88F2868800100
:10107000F4D40EE00128F7D06868226A00F48031C9
:10108000914204D1616A00F47010884201D00120BD
:10109000EAE70020E8E700000010024000004242BA
:1010A000800442420C0000200070004010B5401E39
:1010B000B0F1807F01D3012010BD4FF0E0246061CA
:1010C0000F21601701F086F90020A0610720206140
:1010D000002010BD7047704710B590F83C20012AE1
:1010E00022D0012280F83C20CA688C6822F4407229
:1010F00022434C6822F4806222430C6822F400628E
:1011000022430C6922F4805222434C6922F400529B
:101110002243C969002322F480420A4301684A64D9
:1011200080F83C30002010BD022010BD70B590F852
:101130003C20012A2CD0012580F83C50022280F866
:101140003D2002685368946823F070060B683343AF
:101150005360104B02689A420ED00F4B9A420BD04C
:10116000B2F1804F08D00D4B9A4205D00C4B9A42F9
:1011700002D00C4B9A4204D1496824F080031943F1
:10118000916080F83D50002180F83C10084670BD09
:10119000022070BD002C01400034014000040040DA
:1011A00000080040000C004010B5040003D094F883
:1011B0003D0010B107E0012010BD002084F83C0084
:1011C000204600F01FF8022084F83D00211D206811
:1011D00000F00CFF012084F8460084F83E0084F8FB
:1011E0003F0084F8400084F8410084F8420084F80D
:1011F000430084F8440084F8450084F83D00002052
:1012000010BD000008B500680B49884212D10B4898
:10121000816941F4005181618069002200F400502D
:10122000009011462C20FFF7A1FCBDE808402C20BF
:10123000FFF78EBC08BD00000034014000100240E2
:1012400090F83D10012901D001207047022180F85B
:101250003D100168CA6842F00102CA6000680E4988
:1012600088420ED00D4988420BD0B0F1804F08D093
:101270000B49884205D00B49884202D00A4988426E
:1012800004D1816801F00701062903D0016841F00B
:101290000101016000207047002C01400034014032
:1012A0000004004000080040000C004070B50446F7
:1012B00090F83C000025012817D0012684F83C60F6
:1012C000022084F83D002068826822F0770222F430
:1012D0007F4282600868502838D00DDC20284FD02B
:1012E00005DC90B3102811D14AE0022070BD3028EF
:1012F00046D040280AD13BE060282FD070280DD07E
:10130000B0F5805F03D0B0F5005F12D0012584F8FE
:101310003D60002084F83C00284670BDCB68D1E9D0
:101320000121206800F0B5FE2068816841F0770156
:1013300009E0CB68D1E90121206800F0AAFE20680D
:10134000816841F480418160E1E719E0CA68496839
:10135000206800F073FF5021206806E0CA684968E1
:10136000206800F07CFF6021206800F09CFECEE742
:10137000CA684968206800F061FF40212068F4E7EE
:10138000226801461046F0E72DE9F0410D460400C1
:1013900003D094F83D0018B108E00120BDE8F081C9
:1013A000002084F83C00204600F040F8022084F839
:1013B0003D002068816844F2070291438160211D4D
:1013C000206800F013FE206881688269066A2B6835
:1013D000AF690B4340F203318A4342EA0722A9680E
:1013E000EF6911434FF6FC429143EA6841EA072155
:1013F0000A4329692F6A090141EA073111436A68E2
:101400006D6926F0220646EA05152A4383602068A6
:10141000816154F8460B0262012004F81F09E0754F
:101420002076E0762077A0750020B7E770B586B00B
:10143000002400940194029403940068514901250A
:10144000514A524EB0F1804F23D0514CC023A0429C
:1014500056D1C86940F00200C861C86900F00200B6
:101460000490886940F0040088618869694600F04A
:1014700004000490029500931046FFF70DFA002235
:1014800011461D20FFF772FB1D20FFF761FB06B020
:1014900070BDC86940F00100C861C86900F0010072
:1014A0000490886940F004008861886900F00400B5
:1014B0000490886940F0080088618869694600F0F6
:1014C000080004904FF40040009002951046FFF78A
:1014D000E3F908208DE8310069463046FFF7DCF972
:1014E0002C49486820F4407040F0E06040F480707F
:1014F0004860002211461C20FFF738FB1C20C4E77F
:10150000254CA0421CD1C86940F00400C861C869DC
:1015100000F004000490886940F008008861886940
:10152000694600F008000490029500933046FFF7EA
:10153000B3F9002211461E20FFF718FB1E20A4E776
:10154000164B9842A3D1C86940F00800C861C86929
:1015500000F008000490886940F004008861886900
:10156000694600F0040004900320009002951046A4
:10157000FFF792F9002211463220FFF7F7FA3220E6
:1015800083E700000010024000080140000C014009
:10159000000400400000014000080040000C004032
:1015A00070B590F83E50044690F83F3090F84220D5
:1015B00090F84300022621B104290BD0012D16D149
:1015C0000FE0012D13D1012A11D184F83E6084F877
:1015D000426016E0012B0AD1012808D184F83F604F
:1015E0000DE0012B03D1012A01D1012801D00120F6
:1015F00070BD84F83E6084F83F6084F8426084F8EF
:10160000436091B1042904D001220021206800F038
:1016100033FD01220421206800F02EFD20680168BE
:1016200041F001010160002070BD0122002120680D
:10163000F2E7704770B50446006801694FF0000595
:10164000C943890715D4C168C943890711D4E91E64
:10165000016101202077206880698007204602D040
:10166000FFF7E7FF04E000F0CBF8204600F070F948
:10167000257720680169C943490717D4C168C94360
:10168000490713D46FF0040101610220207720681C
:10169000806910F4407F204602D0FFF7CAFF04E0C3
:1016A00000F0AEF8204600F053F925772068016974
:1016B000C943090716D4C168C943090712D46FF09A
:1016C00008010161042020772068C0698007204656
:1016D00002D0FFF7AEFF04E000F092F8204600F0E1
:1016E00037F9257720680169C943C90617D4C1684D
:1016F000C943C90613D46FF0100101610820207797
:101700002068C06910F4407F204602D0FFF791FFA7
:1017100004E000F075F8204600F01AF925772068FB
:101720000169C943C90708D1C168C943C90704D1C0
:10173000891E0161204600F06BF920680169C943E8
:10174000090609D4C168C943090605D46FF08001B0
:1017500001612046FFF7BEFC20680169C9434906C4
:1017600009D4C168C943490605D46FF0400101613D
:10177000204600F04EF920680169C94389060BD460
:10178000C168C943890607D46FF020010161204672
:10179000BDE87040FFF79FBC70BD000000B585B08C
:1017A0000021009101910291039100681049884243
:1017B0001BD11048816941F040018161806969460F
:1017C00000F0400004904FF4D440009002200190BB
:1017D00003900948FFF760F80849486820F0C00006
:1017E00040F0E06040F0C000486005B000BD00007F
:1017F000002C014000100240001801400000014090
:10180000704770B5044690F83C0000260D4601284C
:101810000FD0012084F83C006AB1042A1DD0082AA8
:101820002FD00C2A3FD00126002084F83C003046FF
:1018300070BD022070BD206800F03EFC2068816908
:1018400041F0080181612068816921F00401816112
:10185000206881692A69114311E0206800F05CFC6E
:101860002068816941F4006181612068816921F407
:1018700080618161206881692A6941EA0221816170
:10188000D2E7206800F07EFC2068C16941F00801C1
:10189000C1612068C16921F00401C1612068C1698A
:1018A0002A69114311E0206800F0A0FC2068C1699A
:1018B00041F40061C1612068C16921F48061C161A6
:1018C0002068C1692A6941EA0221C161ACE710B50B
:1018D000040003D094F83D0010B107E0012010BDD2
:1018E000002084F83C00204600F01EF8022084F816
:1018F0003D00211D206800F079FB012084F846009E
:1019000084F83E0084F83F0084F8400084F84100E9
:1019100084F8420084F8430084F8440084F84500C9
:1019200084F83D00002010BD08B5006806498842D3
:1019300008D10648816941F400618161806900F441
:101940000060009008BD0000002C01400010024023
:101950007047000010B5044649B104290AD008298F
:101960000BD094F8410001280AD0012010BD94F852
:101970003E00F8E794F83F00F5E794F84000F2E7FE
:10198000022081B3042932D0082933D084F84100E1
:101990000122206800F070FB184A20681849904224
:1019A00001D0884203D1436C43F400434364206870
:1019B00090420DD088420BD0B0F1804F08D0114931
:1019C000884205D01049884202D01049884204D18B
:1019D000816801F00701062903D0016841F0010187
:1019E0000160002010BDFFE784F83E00D0E784F8D6
:1019F0003F00CDE784F84000CAE70000002C01401A
:101A0000003401400004004000080040000C004089
:101A10007047704770B5040004D094F84100002569
:101A200010B106E0012070BD84F84050204600F05F
:101A300023F8242084F841002068C16821F4005173
:101A4000C160204600F01EFC2068016921F490412D
:101A500001612068416921F02A0141612068C16863
:101A600041F40051C1606564202084F8410084F88D
:101A700042006563002070BD30B585B0002400943D
:101A800001940294039400681449884223D11448B5
:101A9000C16941F40031C161C16901F400310491AF
:101AA000816941F00401816180690E4D00F00400FC
:101AB00004900420009002200190032003906946C6
:101AC0002846FEF7E9FE0820CDE9000469462846CD
:101AD0000294FEF7E1FE05B030BD00000044004076
:101AE00000100240000801402DE9F843044690F838
:101AF00041001F4615460E46202802D00220BDE8B0
:101B0000F8837EB175B100206064212084F8410023
:101B1000FEF7C0FFA5848046E584A068B0F5805F2D
:101B200002D003E00120EAE7206910B13546002623
:101B30000EE000250CE08021204600F0FFFBA0B95C
:101B4000ADB115F8010B21684860E08C401EE084BF
:101B5000E08C43464FF0000200970028EBD14FF095
:101B60004001204600F0EAFB30B10320C7E736F819
:101B7000020BC0F30800E6E7202084F841000020B3
:101B8000BDE7FEE72DE9F04186B00024204800942F
:101B9000019402940394816941F04001816181695B
:101BA00001F040010491816941F004018161816982
:101BB00001F004010491816941F0080181618069AB
:101BC000144F00F0080004900022FF213846FEF771
:101BD0005BFFDFF84480002220214046FEF754FFDF
:101BE000FF2001250226CDE90005CDE90246694620
:101BF0003846FEF751FE2020CDE90005CDE902462A
:101C000069464046FEF748FE06B0BDE8F081000098
:101C10000010024000180140000C014010B592B0C5
:101C200000240F941C2168461094FEF7B6FA202178
:101C300007A8FEF7B2FA2D482B49016040F29F51E8
:101C4000C0E901146321C0E903148021C0E9054102
:101C5000FFF73DFE08B1FEF70BFE0F940FA92348D6
:101C60001094FFF763FA08B1FEF702FE60200090BF
:101C70003220CDE9010403940494059400226946BE
:101C80001A480694FFF7BDFD08B1FEF7F1FD0422E6
:101C900069461648FFF7B5FD08B1FEF7E9FD0822D1
:101CA00069461248FFF7ADFD08B1FEF7E1FD0C22D1
:101CB00069460E48FFF7A5FD08B1FEF7D9FD079468
:101CC000089409944FF400500A94CDE90B4007A9F9
:101CD00006480E94FFF700FA08B1FEF7C9FD034865
:101CE000FFF75CFD12B010BD002C01402C0000205D
:101CF00010B58CB024216846FEF74FFA0024164830
:101D000009944FF080410A94C0E900144FF6FF7126
:101D1000C0E90241046184610320CDE9000401208F
:101D2000CDE9020406210491CDE90540CDE9074142
:101D300069460948FFF728FB08B1FEF799FD0994A9
:101D400009A905480A94FFF7F1F9002801D0FEF728
:101D50008FFD0CB010BD00007400002010B58CB0D9
:101D600024216846FEF719FA0024164809941449FC
:101D70000A94C0E900144FF6FF71C0E90241046102
:101D800084610320CDE900040120CDE9020406218D
:101D90000491CDE90540CDE9074169460948FFF7BF
:101DA000F3FA08B1FEF764FD099409A905480A94FD
:101DB000FFF7BCF9002801D0FEF75AFD0CB010BDAA
:101DC00000040040BC00002010B58CB024216846FF
:101DD000FEF7E3F900241648099414490A94C0E96F
:101DE00000144FF6FF71C0E90241046184610320D1
:101DF000CDE900040120CDE9020406210491CDE9DA
:101E00000540CDE9074169460948FFF7BDFA08B129
:101E1000FEF72EFD099409A905480A94FFF786F9F3
:101E2000002801D0FEF724FD0CB010BD00080040D2
:101E30000401002010B58CB024216846FEF7ADF9EE
:101E400000241648099414490A94C0E900144FF676
:101E5000FF71C0E90241046184610320CDE90004FF
:101E60000120CDE9020406210491CDE90540CDE928
:101E7000074169460948FFF787FA08B1FEF7F8FC01
:101E8000099409A905480A94FFF750F9002801D0E0
:101E9000FEF7EEFC0CB010BD000C00404C01002021
:101EA00010B586B00024184800940194029403945D
:101EB000049414490594016040F29F51C0E9011453
:101EC0006321C0E903148021C0E90541FFF76CF9E3
:101ED00008B1FEF7CDFC4FF48050009069460A48E7
:101EE000FFF7E4F908B1FEF7C3FC049404A906481F
:101EF0000594FFF71BF9002801D0FEF7B9FC06B0E6
:101F000010BD000000340140940100200C4810B5C1
:101F10000A4901604FF4E1314160002181600C22E7
:101F2000C160C0E904128161C161FFF773FD00283F
:101F300003D0BDE81040FEF79BBC10BD004400403C
:101F4000DC010020FEE7FEE770477047FEF7A8BD02
:101F500030B58FB028216846FEF71FF914210AA872
:101F6000FEF71BF90120010400248DE81300049002
:101F70004FF4E010CDE90810022507956846FEF7FA
:101F800009FF08B172B6FEE70F20CDE90A054FF44C
:101F90008060CDE90C4002210AA80E94FEF718FEDD
:101FA000002801D072B6FEE70FB030BD70470000C8
:101FB0000148FFF73FBB0000740000200148FFF715
:101FC00039BB0000BC0000200148FFF733BB000014
:101FD000040100200148FFF72DBB00004C01002048
:101FE0000148FFF727BB000094010020F0B502680C
:101FF0001C4D1D4E1D4FDFF878C01E4B4FF0804E1C
:10200000A84209D0984207D0704505D0B04203D00D
:10201000B84201D0604503D122F070044A682243DF
:10202000A84209D0984207D0704505D0B04203D0ED
:10203000B84201D0604503D122F44074CA682243FB
:102040004C6922F08002224302608A68C2620A68F8
:102050008262A84201D0984201D10969016301213D
:102060004161F0BD002C0140000400400008004028
:10207000000C00400034014010B501F01F010123A5
:10208000046A8B409C430462036A8A4013430362E0
:1020900010BD10B5846842EA032224F47F440A4349
:1020A0002243826010BD826822F070020A4342F02F
:1020B0000701816070470000F0B5026A036A23F0EF
:1020C0000103036243688469114E24F073050C68B0
:1020D000104F2C4322F002058A682A43B04201D0F7
:1020E000B84205D122F00805CA682A4322F004024A
:1020F000B04201D0B84205D14D6923F440731D436D
:102100008B692B4343608461496841630262F0BD7F
:10211000002C014000340140F0B5026A036A23F04C
:1021200010030362436884690D6824F4E64444EABA
:1021300005248D6822F0200242EA05120F4D104E50
:10214000A84201D0B04206D1CF6822F0800242EA14
:10215000071222F04002A84201D0B04207D14D69D7
:1021600023F4406343EA85038D6943EA85034360B2
:102170008461496881630262F0BD0000002C014067
:1021800000340140F0B5026A036A23F480730362ED
:102190004368C46922F4007224F073050C68124E7F
:1021A0002C438D6842EA05220E4DA84201D0B04270
:1021B00006D1CF6822F4006242EA072222F480624C
:1021C000A84201D0B04207D14D6923F4405343EAFD
:1021D00005138D6943EA05134360C4614968C1630F
:1021E0000262F0BD002C01400034014030B5036AAA
:1021F000026A22F4805202624268C4690D6824F4C3
:10220000E64444EA05248D6823F4005343EA053389
:10221000084DA84202D0084DA84204D14D6922F4CD
:10222000804242EA85124260C461496801640362E7
:1022300030BD0000002C01400034014010B5046A9C
:10224000036A23F001030362836923F0F00343EA86
:10225000021324F00A020A438361026210BD10B522
:10226000036A046A24F010040462846923F0A00362
:1022700024F4704444EA023243EA011182610162AB
:1022800010BD000070B5044600680169E26821F4E1
:10229000405111430161A168206901436069014314
:1022A0002068C26841F20C639A430A43C260206806
:1022B0004169A26921F44071114341611E492068BE
:1022C000884202D1FEF730FD01E0FEF71DFD00EB74
:1022D000C00101EB0011606864228000B1FBF0F3E3
:1022E000B3FBF2F36FF018067343B1FBF0F5B1FBEB
:1022F000F0F605EB8305322303EB0515B5FBF2F58C
:10230000B6FBF2F605F0F00505EB0615B1FBF0F6AD
:10231000B1FBF0F0B0FBF2F06FF01801484306EBB0
:10232000800003EB0010B0FBF2F0216800F00F001A
:102330002844886070BD0000003801402DE9F0415C
:102340001E46174688460446069D26E0681C24D093
:1023500025B1FEF79FFB801BA8421ED920680C30D8
:1023600050E8001F21F4D07140E80012002AF5D196
:102370002068143050E8001F21F0010140E80012ED
:10238000002AF5D1202084F8410084F84200002082
:1023900084F840000320BDE8F0812068016838EA35
:1023A000010004D00020B842D0D00020F3E7012083
:1023B000F9E7FEE70FB4054B10B503A9044A0298EC
:1023C00000F0EAF810BC5DF814FB0000A12C000836
:1023D000280000200907090E002804DB00F1E02096
:1023E00080F80014704700F00F0000F1E02080F842
:1023F000141D704702E008C8121F08C1002AFAD154
:1024000070477047002001E001C1121F002AFBD174
:10241000704700002DE9FF5F82B00021DDE9043044
:10242000020DDDF840B0034318D044F61050A2F27C
:10243000FF3242431514119801281FD0A5EB0B0061
:10244000401C5FEA000A4FF000064E4FDFF838915B
:10245000B046504615D5CAF1000413E01198012486
:102460004AA3012801D16FEA0B010298119AC0E931
:102470000031C0E9024206B0BDE8F09FCBF1000098
:10248000DFE704460021404A491842EB0450CDE9F9
:10249000001012E0E00707D032463B46404649466E
:1024A000FEF743F88046894632463B4610461946B9
:1024B000FEF73BF806460F466410002CEAD1DDE932
:1024C0000401DDE90023BAF1000F06DAFEF72DF86A
:1024D00042464B46FEF729F805E0FEF798F84246DB
:1024E0004B46FEF794F804460E460022284BFEF7B2
:1024F00015F903D84FF0FF30014607E00022254BC5
:1025000020463146FDF76AFFFEF7F0F8102409E097
:10251000002C0ADB0A220023FDF7F8FE039B303271
:102520001A55641E50EA0102F2D1641C039AC4F1E8
:1025300011031444119A012A03D0012208430DD13A
:102540000AE0084304D000204FF0110B119072E70D
:10255000A3EB0B056D1E0DE05B4504DD4FF00002A3
:1025600005F1010504E003DA4FF00002A5F10105D1
:10257000002AECD002981199C0E90231C0E9004567
:1025800079E70000000014400000F03F3000000038
:102590000000F0430000E03F2DE9FF4F95B09A4660
:1025A000884606460025EEE1252877D100242746F7
:1025B000F94A0121039400E0044316F8013F203B4F
:1025C00001FA03F01042F7D130782A2811D06FF0C9
:1025D0002F033078A0F13002092A16D8039A44F06C
:1025E000020402EB820203EB42021044761C0390C9
:1025F000EFE758F8042B0392002A03DA504244F420
:102600000054039044F00204761C30782E2816D132
:1026100016F8010F44F004042A280DD06FF02F02A1
:102620003078A0F13003092B09D807EB870302EBC0
:102630004303C718761CF3E758F8047B761C307800
:102640006C280FD006DC4C2817D068280DD06A28DB
:1026500014D104E0742810D07A280FD10DE044F48E
:1026600000140AE044F4801401E044F44014727849
:10267000824202D104F58014761C761C30786628DC
:102680000BD013DC582877D009DC002875D04528FA
:10269000F6D04628F4D047281AD193E118E06328F1
:1026A00035D0642879D0652812D18BE1702873D099
:1026B00008DC6728F1D069286FD06E280DD06F280C
:1026C00006D1ACE073282CD0752874D0782853D06C
:1026D0005246179990476D1C54E1C4F302500228EA
:1026E00009D003280DD0D8F8001004280DD00D60B3
:1026F00008F1040846E1D8F80010EA17C1E90052D1
:10270000F6E7D8F800100D80F2E70D70F0E718F842
:10271000041B8DF8001000208DF80100EB4601200D
:1027200003E058F804BB4FF0FF3061074FF00001A1
:1027300002D40DE009F101018946B9420FDA814561
:10274000F8DB1BF809100029F4D108E009F10101B8
:1027500089468142FADB1BF809100029F6D103985B
:102760005346A0EB090721463846179A00F080FA35
:10277000284400EB090507E044E008E10DE01BF800
:10278000010B524617999047B9F10109F7D2534608
:1027900021463846179AF2E039E00A21C4F3025282
:1027A0004FF0000B0091022A06D058F8040BC11715
:1027B000032A09D00AE023E008F1070020F007020D
:1027C000F2E80201904605E000B2C117042A01D1E7
:1027D00040B2C117002906DA0A460021404261EBE7
:1027E00002012D2202E0220504D52B228DF80420BF
:1027F000012203E0E20701D02022F7E7914657E0EB
:102800000A2100E010214FF0000B00910BE0102195
:102810004FF0000B44F004040827009103E0082067
:102820004FF0000B0090C4F30252022A05D058F872
:10283000040B0021032A08D008E008F1070020F06B
:102840000702F2E80201904603E080B2042A00D1B8
:10285000C0B24FF0000922072AD53278702A07D07B
:10286000DDF800C08CF0100C5CEA0B0C05D00EE01B
:1028700040228DF80420012208E050EA010306D02E
:1028800030238DF804308DF8052002229146009BFC
:1028900083F0080353EA0B030AD150EA010201D185
:1028A000620705D530228DF804204FF001097F1E04
:1028B0003278582A04D039A20C920CAA02920BE06A
:1028C0003BA2F9E75B46009AFDF720FD0C9B9B5C61
:1028D000029A521E0292137050EA0102F2D102983B
:1028E00004A9081A00F1200B600702D524F48034F3
:1028F00000E001275F4502DDA7EB0B0000E00020B0
:1029000000EB0B01009003984944401A0390E00348
:1029100006D453462146179A039800F0A9F90544B6
:10292000002706E001A85246C05D179990476D1C2C
:102930007F1C4F45F6DBE0030CD553462146179A22
:10294000039800F095F9054404E0302052461799A9
:1029500090476D1C0099481E00900029F5DC08E0A6
:102960000298029952460078491C029117999047A3
:102970006D1CBBF10001ABF1010BF1DC5BE100F080
:1029800065F90544761C307800287FF40DAE19B047
:102990002846BDE8F08F00000928010030313233AD
:1029A000343536373839616263646566000000008B
:1029B0003031323334353637383941424344454675
:1029C00000000000600700D4062708F1070020F08F
:1029D0000700F0E80223804603F0004C5FEA0C0099
:1029E00001D097A009E0200501D596A005E0E007F9
:1029F00001D095A001E0AFF24C001390307823F0A5
:102A0000004365280CD006DC452809D046281DD097
:102A100047287FD13BE0662818D067287AD136E076
:102A20000021112F01DB112000E0781CCDE900010D
:102A300004A90CA8FFF7EEFCDDE90D010C9A4FF09C
:102A4000000B07F10109109200914EE04FF0004099
:102A50000097CDE9011004A90CA8FFF7DBFCDDE924
:102A60000D020C9B0F994FF0000B914610930092B2
:102A700011B9791C00EB0109B7EB090003D4C0F1CF
:102A8000FF3B07F10109A9EB0700019042E0012F8C
:102A900000DA01270021112F01DD112000E0384666
:102AA000CDE9000104A90CA8FFF7B4FCDDE90D0194
:102AB0000C9A00914FF0000BB946109221070FD4E9
:102AC000009A4A4503DA914601E0A9F10109B9F1FA
:102AD000010F05DD109AA9F10101515C3029F4D0F4
:102AE000B84202DA10F1040F03DA0121CDE9011036
:102AF00010E0002803DC8344A9EB000102E0411C44
:102B0000494500DD8946A0EB0B00401C01904FF0C9
:102B100000400290200705D40198484502DB4FF0A1
:102B2000FF30019000208DF84B0002980DF14B070B
:102B3000B0F1004F25D002200C902B200D90029870
:102B400000280CDA404202902D200D9007E00A2167
:102B50000298FDF7C5FB3031029007F8011D0C9972
:102B6000481E0C900029F2DC02980028EFD1791E53
:102B70000D980870307800F0200040F0450007F80C
:102B8000020D11A8C01BC01D02901398007800B15F
:102B9000012000EB0901019801EBE071029801446A
:102BA0000398401A401E0390E00306D45346214682
:102BB000179A039800F05CF805441398007818B150
:102BC0005246179990476D1CE00323D55346214682
:102BD000179A039800F04CF805441BE0BBF1000F76
:102BE00007DB0098584504DD1098179910F80B0082
:102BF00001E0179930205246904701980BF1010BE4
:102C0000401E05F10105019004D12E20524617996E
:102C100090476D1CB9F10001A9F10109DEDC05E066
:102C200017F8010B5246179990476D1C0299481EE0
:102C300002900029F4DC53462146179A03989EE639
:102C40002D0000002B000000200000002DE9F041C5
:102C5000044600251E461746880404D405E039467C
:102C60002020B0476D1C641EF9D52846BDE8F081D0
:102C70002DE9F041044600251E469046C80301D5C3
:102C8000302700E02027880404D505E04146384677
:102C9000B0476D1C641EF9D52846BDE8F0810000E0
:102CA00013B54FF6FF73012269460248FEF71CFF79
:102CB00000981CBDDC010020FDF7FAFEFFF748F983
:102CC000FEF760FFFFF722F9FEF7A8FFFFF710F805
:102CD000FFF744F8FFF778F8FFF7ACF8FFF7E0F8F4
:102CE00000F0F4F800F0C6F832231A4619461846E8
:102CF00000F002F900F004F80A20FDF7BBFDF3E74D
:102D00002DE9F05F47480168486A474C474B00B2DD
:102D100020801A68526A12B262809046444A15684E
:102D20006D6A444F2EB2A6803D686D6A4FF0000C6C
:102D30002DB2E580C1F824C01968C1F824C011681B
:102D4000C1F824C03968C1F824C0FDF7ADFADFF836
:102D5000E8904946FDF72CFADFF8E0A05146FDF770
:102D600059FADFF8DCB05946FDF754FA6FF001016B
:102D7000FDF78EFA0746A0604046FDF795FA4946F2
:102D8000FDF716FA5146FDF745FA5946FDF742FAA6
:102D90006FF00101FDF77CFAE0603046FDF784FA40
:102DA0004946FDF705FA5146FDF734FA5946FDF755
:102DB00031FA6FF00101FDF76BFA20612846FDF74B
:102DC00073FA4946FDF7F4F95146FDF723FA5946DF
:102DD000FDF720FA6FF00101FDF75AFA60613846FD
:102DE000FDF76BFA02460B4616A0FFF7E3FAE06820
:102DF000FDF763FA02460B4615A0FFF7DBFA2069E0
:102E0000FDF75BFA02460B4614A0FFF7D3FA6069A0
:102E1000FDF753FABDE8F05F02460B4612A0FFF73C
:102E2000C9BA00007400002010000020BC0000207F
:102E3000040100204C0100200000C842000016439D
:102E400000003041313A252E32660D0A00000000A4
:102E5000323A252E32660D0A00000000333A252E44
:102E600032660D0A00000000343A252E32660D0A43
:102E70000000000010B53C210F48FEF791FB3C21FB
:102E80000E48FEF78DFB3C210D48FEF789FB3C21E7
:102E90000C48FEF785FB0848FEF7D2F90748FEF715
:102EA000CFF90748FEF7CCF90648FEF7C9F9BDE8A7
:102EB00010400548FEF7C4B974000020BC00002093
:102EC000040100204C0100209401002010B50021D5
:102ED0000848FEF73FFD04210648FEF73BFD0821A8
:102EE0000448FEF737FDBDE810400C210148FEF70D
:102EF00031BD00002C000020F0B500250126314C2A
:102F00006FF06207002807DB632800DD6320C4F848
:102F10008061C4F8845106E0B84200DA3846C4F84B
:102F20008051C4F88461002800DC4042DFF898C07A
:102F3000DCF800E0CEF83400002907DB632900DD6F
:102F40006321C4F88851C4F88C6106E0B94200DA04
:102F50003946C4F88861C4F88C51002900DC494224
:102F6000DCF800008163002A07DB632A00DD6322AE
:102F7000C4F89461C4F8905106E0BA4200DA3A46C7
:102F8000C4F89451C4F89061002A00DC5242DCF885
:102F90000000C263002B07DB632B00DD6323C4F852
:102FA0009C51C4F8986106E0BB4200DA3B46C4F885
:102FB0009C61C4F89851002B00DC5B42DCF80000F7
:102FC0000364F0BD000023422C0000200102020334
:102FD0000405060708090A0B0C0D0E0F101000005F
:102FE00000000000000001020304060708090000B9
:102FF0000000010203040000183000080000002057
:103000002C000000F4230008443000082C000020AD
:10301000FC0500000424000801000000100000006E
:10302000000000000024F400000000000000000088
:103030000000000000000000000000000000000090
:04304000000000008C
:0400000508000131BD
:00000001FF
