:020000040800F2
:10000000A009002049010008872C000821260008CB
:10001000852C0008A9090008B13300080000000081
:100020000000000000000000000000008B2C000811
:10003000E309000800000000892C00088D2C00084E
:100040006301000863010008630100086301000800
:1000500063010008630100086301000863010008F0
:1000600063010008630100086301000863010008E0
:10007000630100086301000863010008AD0900087E
:1000800063010008630100086301000863010008C0
:1000900063010008630100086301000863010008B0
:1000A00063010008630100086301000863010008A0
:1000B000F12C0008FD2C0008092D00086301000840
:1000C0006301000863010008630100086301000880
:1000D00063010008493300089D33000863010008EC
:1000E0006301000863010008630100086301000860
:1000F0006301000863010008630100086301000850
:100100006301000863010008152D00086301000861
:100110006301000863010008212D00086301000845
:10012000630100086301000863010008630100081F
:10013000DFF810D000F026FC00480047D13C000852
:10014000AFF30080A009002006488047064800471A
:10015000FEE7FEE7FEE7FEE7FEE7FEE7FEE7FEE777
:10016000FEE7FEE7ED2C000831010008202A04DB41
:10017000203A21FA02F00021704721FA02F3D04020
:10018000C2F120029140084319467047D2B201E003
:1001900000F8012B491EFBD270470022F6E710B58C
:1001A00013460A4604461946FFF7F0FF204610BDE5
:1001B000F0B480EA0102D40F4200B2EB410F02D248
:1001C0000246084611464A0042D0C30DDDB2C1F3D3
:1001D000C752AD1A202D35DAC1F3160141F40002E1
:1001E00004B15242C5F1200602FA06F12A41104438
:1001F000B3EBD05F23D0C4B1012DA0EBC35009DC19
:10020000F0BC4FF0004202EAC352DBB200F500003E
:1002100000F015BB400000F1807000EBC350A0F16E
:10022000807040EAD170490009E0490841EAC07194
:10023000A0EBC35000F50000400800EBC350F0BC39
:1002400000F0F4BA6142012202EB4101001BF6E723
:10025000F0BC704781F00041AAE780F00040A7E7BA
:1002600080EA010210B502F00043400022D04A00AB
:100270001FD0010E01EB1261C0F35600C2F356020B
:1002800040F4000042F40002A0FB022000047F3989
:10029000140400D0401C50EA124001D44000491E12
:1002A000C2B20C0604EBD010401C4008802A02D0D9
:1002B00003E0002010BD20F00100002900DA00203A
:1002C000184310BD30B480EA010202F0004530F05E
:1002D000004221F0004013D090B1C30DD40DC2F301
:1002E0001601C0F31600E41A41F4000140F40002C4
:1002F0007D34914201D3641C00E04900002C02DAF5
:1003000030BC002070474FF400000023914201D31D
:10031000891A034340084FEA4101F7D151B1914294
:1003200002D14FF0004105E002D24FF0010101E09F
:100330006FF0010103EBC450284430BC00F076BAE2
:10034000420005D0C0F3C7525242914201DC002066
:10035000704700EBC15070472DE9FE4F804681EA9F
:100360000300C00F0C46009021F0004123F000452F
:10037000B8EB0200A94105D24046214690461C46F2
:100380000B46024623F00040104347D0270DC7F329
:100390000A00C3F30A510290401A019040286BDA18
:1003A000C3F3130040F4801B0098924620B1002351
:1003B000D2EB030A63EB0B0B01985946C0F14002E4
:1003C000504600F012FA06460D4650465946019A2C
:1003D00000F01AFA10EB08006141002487EA11527C
:1003E00084EAE7731A4340D0009A62B3019A012A63
:1003F0004FEA075215DC001B61EB02014FF000428F
:1004000002EA0752CDE90042001C41F58011324654
:100410002B4600F051FA03B0BDE8F08F404621466C
:10042000F9E7001B61EB0201001C41F58013001885
:100430005B412018A2F5001747EB030140EAD57095
:10044000B6196D4111E06D084FEA360645EAC075F0
:100450004FEA0752001B61EB0201001C41F58011BD
:1004600049084FEA30000019514132462B4603B08B
:10047000BDE8F04F00F011BA0098012240000023BF
:10048000D0EB020263EBE073009821464FEAE07480
:10049000B8EB000061EB0401E9E783F000435BE7A0
:1004A00081F0004158E72DE9FE4F81EA030404F092
:1004B000004421F0004100944FF0000B23F0004372
:1004C00050EA01045ED052EA03045BD0C3F30A543D
:1004D000C1F30A552C44A4F2F3340194A0FB025456
:1004E000C1F3130141F48011C3F3130343F48013E8
:1004F00001FB024400FB034E840A970A44EA81543C
:1005000047EA8357A4FB076802958D0A05FB078518
:100510004FEA932C04FB0C542705029D4FEA065822
:1005200047EA1637B5EB08056EEB070C870E920EFF
:1005300047EA811742EA8312A7FB0201B6EB0B01DF
:1005400064EB00042B0D43EA0C335E1844EB1C50A3
:10055000DA465146E7FB0201C5F313044FEA0B33B9
:1005600043EA14534FEA0432019C43EA0603A4F120
:100570000C040294009CCDE900B400F09DF903B096
:10058000BDE8F08F00200146F9E72DE9F04D81EA42
:10059000030404F0004B21F0004514464FF0000A1C
:1005A00023F0004150EA050220D054EA01021DD098
:1005B000C5F30A570246C5F31303C1F31300C1F391
:1005C0000A5640F4801543F48013A7EB0608101B6D
:1005D000D64608F2FD3873EB050002D308F1010896
:1005E00001E092185B41B8F1000F03DA00200146E8
:1005F000BDE8F08D00204FF48011064684460EE0E1
:10060000171B73EB050705D3121B63EB05030643AA
:100610004CEA010C49084FEA300092185B4150EA5D
:100620000107EDD152EA030012D082EA040083EA06
:100630000501084305D0101BAB4106D2012200235F
:1006400006E000224FF0004302E06FF00102531079
:100650001AEB06004CEB085110EB0A0041EB0B01C2
:10066000BDE8F04D00F019B9C10F80EAE070084410
:10067000CA079623002100F0E2B80EB5C10F80EA48
:10068000E0700844CA07002140F233438DE80E00B1
:100690000A460B4600F010F903B000BD00F000421E
:1006A00020F00040C10DC0F3160040F400007F2987
:1006B00001DA00207047962903DCC1F19601C84099
:1006C00001E096398840002AF4D04042704700F09B
:1006D000004230F000400AD0C10D01F56071C0F356
:1006E000160042EA0151C20840071143704700203A
:1006F0000146704730B5041E71F1000404DB4FF071
:100700000044404264EB0101141E73F1000405DB58
:100710001C464FF00043524263EB0403994208BF6A
:10072000904230BD01F0004330B421F0004150EA66
:10073000010206D00A0DA2F56072C1F31301002A6E
:1007400002DC30BC00207047440F44EAC104C10001
:10075000E01830BC00EBC25000F068B830B50B4672
:10076000014600202022012409E021FA02F59D42E1
:1007700005D303FA02F5491B04FA02F52844151EB5
:10078000A2F10102F1DC30BD2DE9F05F0546002049
:1007900092469B4688460646814640241BE02846F2
:1007A000414647462246FFF7E1FC53465A46C01AE7
:1007B000914110D311461846224600F016F82D1A22
:1007C00067EB01084F4622460120002100F00DF89A
:1007D00017EB00094E41201EA4F10104DFDC48465E
:1007E00031462A464346BDE8F09F202A04DB203AE2
:1007F00000FA02F1002070479140C2F1200320FA74
:1008000003F3194390407047202A06DBCB17203AA8
:1008100041FA02F043EAE07306E041FA02F3D04005
:10082000C2F1200291400843194670470029A8BF31
:100830007047401C490008BF20F00100704710B409
:10084000B0FA80FC00FA0CF050EA010404BF10BCBE
:10085000704749B1CCF1200421FA04F411FA0CF1EB
:1008600018BF012121430843A3EB0C01CB1D4FEA24
:1008700000614FEA102042BF002010BC704700EB1F
:10088000C35010440029A4BF10BC7047401C49004D
:1008900008BF20F0010010BC704710B5141E73F1A2
:1008A000000408DA401C41F1000192185B411A4330
:1008B00001D120F0010010BD2DE9F04D92469B467C
:1008C00011B1B1FA81F202E0B0FA80F22032904622
:1008D000FFF78BFF04460F4640EA0A0041EA0B018E
:1008E00053465A46084313D0114653EA010019D023
:1008F000C8F140025046FFF739FC05460E46504607
:1009000059464246FFF771FF084305D0012004E035
:1009100020463946BDE8F08D0020054346EAE076E2
:100920002C4337430A986305E40AA0EB0800002231
:10093000FD0A44EA47540A3002D500200146E9E79F
:10094000010510196941DDE9084500196941BDE853
:10095000F04DA2E7C1F30A52C1F3130140F2FF3395
:1009600041F480119A4202DA00200146704740F2B9
:1009700033439A42A2F2334202DC5242FFF7F6BB03
:10098000FFF733BF064C074D06E0E06840F0010377
:1009900094E8070098471034AC42F6D3FFF7CCFB3D
:1009A0002844000848440008FEE70000014800F021
:1009B000D7B80000E002002030B590F84050012484
:1009C000AC40C56B6C60046863604368102B0368BF
:1009D00003D099600068C26030BD9A600068C16051
:1009E00030BD704772B6FEE710B590F821100022B6
:1009F000022905D00421816380F82020012010BD48
:100A000001680B6823F00E030B6001680B6823F08C
:100A100001030B6090F84030012404FA03F1C36B2A
:100A2000596080F8214080F82020104610BD000059
:100A30002DE9F05F90F821100024022903D0042151
:100A40008163012485E001680A6822F00E020A60D1
:100A500001680A6822F001020A603F4E3E4FB2155B
:100A6000DFF8F4C0DFF8F090DFF8ECA0DFF8E8B0D2
:100A7000DFF8E4E00168783F13011502ACF1640C83
:100A8000A9F15009AAF13C0AABF1280BAEF1140E02
:100A90004FF48018B14227D9B9420ED0614512D027
:100AA00049451DD0514518D0594518D0714501D13F
:100AB000424615E0294EB14201D1012210E0274EF5
:100AC0001436B14201D110220AE0244E2836B14238
:100AD00006D0224A3C32914201D11A4600E02A4611
:100AE0001E49091F0A602BE0B94213D0614517D097
:100AF000494522D051451DD059451DD0714501D1E0
:100B000042461AE0B14202D14FF0807215E0134E16
:100B1000B14201D1012210E0104E1436B14201D190
:100B200010220AE00D4E2836B14206D00B4A3C3264
:100B3000914201D11A4600E02A46074980394A60AD
:100B4000012180F82110002180F82010416B01B1B3
:100B500088472046BDE8F09F80000240080402401C
:100B60002DE9F05FC16B0B6801680A68046C4FF0F7
:100B7000040808FA04F8844D844E854FDFF814C247
:100B8000DFF81492DFF814A2DFF814B2DFF814E2F1
:100B900018EA030F65D05FEA427862D50A689206C8
:100BA00003D40A6822F004020A60DFF8F0814FF4EF
:100BB0008062016808F1140813011402414524D928
:100BC000A9420DD0B1420FD0B9421AD0614515D01B
:100BD000494515D0514501D1120312E0594501D1C3
:100BE00004220EE0714501D140220AE06D4D14351A
:100BF000A94206D06B4A2832914201D11A4600E040
:100C000022466749091F0A6029E0A94213D0B14270
:100C100015D0B94220D061451BD049451BD0514564
:100C200002D14FF4800217E0414502D14FF08062BB
:100C300012E0594501D104220EE0714501D1402254
:100C40000AE0584D1435A94206D0564A283291423E
:100C500001D11A4600E022464B4908394A60C16A70
:100C600071E04FF0020808FA04F818EA030F70D098
:100C70005FEA82786DD50A68920606D40A6822F087
:100C80000A020A60012180F82110DFF810814FF478
:100C90000072016808F1140813011402414524D9B7
:100CA000A9420DD0B1420FD0B9421AD0614515D03A
:100CB000494515D0514501D1120312E0594501D1E2
:100CC00002220EE0714501D120220AE0354D143593
:100CD000A94206D0334A2832914201D11A4600E097
:100CE00022462F49091F0A6029E0A94213D0B142C8
:100CF00015D0B94220D061451BD049451BD0514584
:100D000002D14FF4001217E0414502D14FF00072BA
:100D100012E0594501D102220EE0714501D1202295
:100D20000AE0204D1435A94206D01E4A28329142CD
:100D300001D11A4600E02246134908394A600021D1
:100D400080F82010816A00291CD0BDE8F05F0847B8
:100D5000FFE70825A5401D4214D0120712D50A68E6
:100D600022F00E020A6090F84020C36B012101FAC4
:100D700002F25A60816380F82110002180F820106F
:100D8000016BE0E7BDE8F09F080002401C00024054
:100D90003000024044000240580002406C00024013
:100DA000080402401C04024030B560B11A4B0168CF
:100DB0001422994209D2194B0B44B3FBF2F2920070
:100DC0000264174A0AE0012030BD134B5B420B441A
:100DD000B3FBF2F2920002640F4A083AC2630222A5
:100DE00080F821200A6843F6F0739A43F0E9013451
:100DF0002343D0E902452C43234304692343446938
:100E000023438469234313430B6000214163012280
:100E100042770177084630BD08040240F8FFFDBF65
:100E20000000024070B5044690F82000002501281B
:100E30000CD0012084F8200094F821600020012EBD
:100E400006D084F820000225284670BD022070BD1F
:100E5000022684F82160A0632068066826F0010657
:100E600006602046FFF7A8FDE06A002820680168B8
:100E700002D041F00E0106E021F00401016020687B
:100E8000016841F00A0101602068016841F0010138
:100E90000160D9E770B5044600F00CF90546601C06
:100EA00002D004480078044400F004F9401BA0423A
:100EB000FAD370BD180000202DE9F84FDFF8C0917B
:100EC0000024A9F1040B23464FF00F0809F1040A8E
:100ED000ABF1040ECCE00127A7403A40BA4272D1F0
:100EE000DFF8A0C14D68A5EB0C0665452BD00DDCE5
:100EF000032D34D005DC35B3012D19D0022D2FD1AF
:100F00001BE0112D16D0122D2AD119E0B6F5881F3D
:100F100019D006DCB6F5803F15D0B6F5801F1FD17D
:100F200011E0B6F5001F0ED0B6F5041F18D10AE087
:100F3000CB6815E0CB681B1D12E0CB6808330FE0CF
:100F4000CB680C330CE08B682BB1012B4FF00803FE
:100F500003D0476104E0042302E0076100E00023BE
:100F6000FF2A01D8064601E000F104064FEA840595
:100F700001D9A5F12005376808FA05FC27EA0C0716
:100F800003FA05F547EA050737604D68ED006ED5B1
:100F90003D4DAE6946F00106AE61AD6924F0030631
:100FA00005F001050095394D7719BE68A5072D0F8D
:100FB00008FA05FC26EA0C06DFF8D4C0604503D128
:100FC0004FF0000C25E052E0DFF8C8C0604502D1C8
:100FD0004FF0010C1DE0DFF8C0C0604502D14FF0BA
:100FE000020C16E0DFF8B4C0604502D14FF0030CEC
:100FF0000FE0DFF8ACC0604502D14FF0040C08E010
:10100000DFF8A0C0604502D14FF0050C01E04FF0C1
:10101000060C0CFA05FC4CEA060CC7F808C04D6833
:10102000D9F80060ED024D4601D5164300E0964325
:101030002E604D68DAF80060AD02554601D51643C2
:1010400000E096432E604D68DBF80060AD035D461E
:1010500001D5164300E096432E604D68DEF800602F
:10106000ED03754601D5164300E096432E60641CDF
:101070000A6832FA04F57FF42EAFBDE8F88F00005D
:10108000080401400000111000100240000001405F
:1010900000080140000C0140001001400014014014
:1010A00000180140001C01400AB1016170470904A9
:1010B000FBE700000148806870470000180000202E
:1010C000024881680278114481607047180000204E
:1010D000074810B5016841F010010160032000F0DD
:1010E00075F80F2000F006F800F024F8002010BD7D
:1010F0000020024070B50D4D04464FF47A712878F7
:10110000B1FBF0F00A490968B1FBF0F000F0DEFA3B
:1011100048B9102C07D200222146501E00F036F8A4
:1011200000206C6070BD012070BD00001800002020
:10113000240000200C4808B5816941F0010181615B
:10114000816901F001010091C16941F08051C161E3
:10115000C069064900F080500090486820F0E060C7
:1011600040F00070486008BD0010024000000140DF
:10117000002809DB00F01F02012191404009800096
:1011800000F1E020C0F8001170470000F0B40E4BF1
:101190001B68C3F30223C3F10704042C00D9042401
:1011A0001D1D072D01D2002300E0DB1E012606FADB
:1011B00004F56D1E0D409D409E40761E164045EA8A
:1011C0000601F0BC02F012B90CED00E0064A00F096
:1011D000070110684FF6FF03184040EA0120034959
:1011E00008431060704700000CED00E00000FA05B5
:1011F0002DE9F0470D46040067D0DFF81881D8F8D4
:10120000000000F00700A8420CD2D8F8001021F02E
:1012100007012943C8F80010D8F8000000F00700C3
:10122000A84252D120683C4E810712D5400703D511
:10123000706840F4E06070602078000703D5706843
:1012400040F4605070607068A16820F0F0000843BE
:1012500070602078C00727D06068012810D03168FE
:10126000022810D0890700292FDA716821F00301C4
:1012700001437160FFF71EFF074641F288390CE019
:1012800031688903EFE78901EDE7FFF713FFC11B21
:10129000494502D90320BDE8F0877068616800F015
:1012A0000C00B0EB810FF0D1D8F80010404601F0EF
:1012B0000701A9420BD9016821F007012943016008
:1012C000006800F00700A84201D00120E3E7207881
:1012D000400705D57068E16820F4E060084370605D
:1012E0002078000706D57068216920F4605040EA34
:1012F000C100706000F038F87168084AC1F303114A
:10130000515CC8400649086006480068FFF7F2FED5
:101310000020C0E700200240001002400E440008F8
:10132000240000201C00002004480549006849688A
:10133000044AC1F30221515CC840704724000020D8
:10134000001002401E44000804480549006849682E
:10135000044AC1F3C221515CC840704724000020F8
:10136000001002401E4400080E4B59680E4801F060
:101370000C02042A11D0082A0FD10C48C1F3834271
:10138000C903805C0AD55968084AC1F34041921EDE
:10139000515C054A5043B0FBF1F0704704494843A3
:1013A000704700000010024000127A00FE4300085F
:1013B00000093D002DE9F84F04006FD02078BE4DA4
:1013C000C00747D06868C0F38100012807D068686B
:1013D000C0F38100022809D16868C00306D52868D7
:1013E000800337D560680028E7D033E06068B0F547
:1013F000803F0BD010B1B0F5A02F11D0286820F499
:1014000080302860286820F4802002E0286840F4BA
:1014100080302860606888B1FFF74CFE064609E01E
:10142000286840F480202860F0E7FFF743FE801B27
:10143000642873D828688003F7D50BE0FFF73AFEDD
:10144000064604E0FFF736FE801B6428F1D82868C2
:101450008003F7D42078DFF8648280074FF0010A18
:101460004FF0000939D5686810F00C0F07D0686894
:10147000C0F38100022809D16868C00306D4286837
:10148000800714D52069012808D110E02069B0B187
:10149000C8F800A0FFF70EFE064605E007E1FFF7DB
:1014A00009FE801B0228C4D828688007F7D5286861
:1014B000616920F0F80040EAC10028600DE0C8F83A
:1014C0000090FFF7F7FD064604E0FFF7F3FD801BF1
:1014D000022823D828688007F7D4207800072CD565
:1014E0007748A169D9B1C0F800A0FFF7E3FD06462F
:1014F00004E0FFF7DFFD801B02280FD8686A800731
:10150000F7D570484FF4FA510068B0FBF1F0009045
:1015100000BF0098411E0091FAD20EE07CE0C0F8B6
:101520000090FFF7C7FD064604E0FFF7C3FD801BF0
:10153000022871D8686A8007F7D4207840075BD505
:10154000E8690027C00008D4E86940F08050E861ED
:10155000E869012700F0805000905B480168C905E8
:1015600011D40168834641F480710160FFF7A2FD48
:10157000064604E0FFF79EFD801B64284CD8DBF88C
:101580000000C005F6D5E06801280AD008B105289A
:1015900013D0286A20F001002862286A20F0040095
:1015A00002E0286A40F001002862E06841F2883BCE
:1015B00088B1FFF77FFD064609E0286A40F0040085
:1015C0002862EEE7FFF776FD811B59455BD8286A54
:1015D0008007F7D50BE0FFF76DFD064604E0FFF747
:1015E00069FD811B59454ED8286A8007F7D41FB181
:1015F000E86920F08050E861E069A8B36968C1F348
:101600008101022946D00228484606D0C8F8600069
:10161000FFF750FD044639E035E04746C8F8600062
:10162000FFF748FD064604E0FFF744FD801B022853
:1016300029D828688001F7D4206AB0F5803F05D109
:101640006868A16820F4003008436860D4E90801A4
:101650000843696821F4741108436860C7F860A002
:10166000FFF728FD044605E023E0FFF723FD001BFC
:10167000022808D828688001F7D51AE0FFF71AFD7C
:10168000001B022802D90320BDE8F88F28688001DA
:10169000F4D40EE00128F7D06868226A00F48031A3
:1016A000914204D1616A00F47010884201D0012097
:1016B000EAE70020E8E70000001002400000424294
:1016C00080044242240000200070004010B5401EFB
:1016D000B0F1807F01D3012010BD4FF0E0246061A4
:1016E0000F21601701F082FE0020A0610720206119
:1016F000002010BD7047704710B590F83C20012ABB
:1017000022D0012280F83C20CA688C6822F4407202
:1017100022434C6822F4806222430C6822F4006267
:1017200022430C6922F4805222434C6922F4005275
:101730002243C969002322F480420A4301684A64B3
:1017400080F83C30002010BD022010BD70B590F82C
:101750003C20012A2CD0012580F83C50022280F840
:101760003D2002685368946823F070060B68334389
:101770005360104B02689A420ED00F4B9A420BD026
:10178000B2F1804F08D00D4B9A4205D00C4B9A42D3
:1017900002D00C4B9A4204D1496824F080031943CB
:1017A000916080F83D50002180F83C10084670BDE3
:1017B000022070BD002C01400034014000040040B4
:1017C00000080040000C004010B5040003D094F85D
:1017D0003D0010B107E0012010BD002084F83C005E
:1017E000204600F01FF8022084F83D00211D2068EB
:1017F00001F09CFA012084F8460084F83E0084F849
:101800003F0084F8400084F8410084F8420084F8E6
:10181000430084F8440084F8450084F83D0000202B
:1018200010BD000008B500680B49884212D10B4872
:10183000C16941F01001C161C069002200F01000CF
:10184000009011463620FFF7A1FCBDE80840362085
:10185000FFF78EBC08BD00000010004000100240E1
:1018600090F83D10012901D001207047022180F835
:101870003D100168CA6842F00102CA6000680E4962
:1018800088420ED00D4988420BD0B0F1804F08D06D
:101890000B49884205D00B49884202D00A49884248
:1018A00004D1816801F00701062903D0016841F0E5
:1018B0000101016000207047002C0140003401400C
:1018C0000004004000080040000C00402DE9F041F9
:1018D0000D46040003D094F83D0018B108E0012043
:1018E000BDE8F081002084F83C00204600F040F87C
:1018F000022084F83D002068816844F20702914389
:101900008160211D206801F011FA206881688269D8
:10191000066A2B68AF690B4340F203318A4342EAFF
:101920000722A968EF6911434FF6FC429143EA6828
:1019300041EA07210A4329692F6A090141EA07316F
:1019400011436A686D6926F0220646EA05152A43A6
:1019500083602068816154F8460B0262012004F81C
:101960001F09E0752076E0762077A0750020B7E7A4
:1019700070B586B00024009401940294039400682A
:1019800051490125514A524EB0F1804F23D0514C5C
:10199000C023A04256D1C86940F00200C861C8699E
:1019A00000F002000490886940F0040088618869B2
:1019B000694600F004000490029500931046FFF77A
:1019C0007BFA002211461D20FFF7E0FB1D20FFF7E8
:1019D000CFFB06B070BDC86940F00100C861C8699E
:1019E00000F001000490886940F004008861886973
:1019F00000F004000490886940F00800886188695C
:101A0000694600F0080004904FF4004000900295F1
:101A10001046FFF751FA08208DE83100694630463C
:101A2000FFF74AFA2C49486820F4407040F0E06023
:101A300040F480704860002211461C20FFF7A6FB8E
:101A40001C20C4E7254CA0421CD1C86940F004000A
:101A5000C861C86900F004000490886940F008007B
:101A600088618869694600F0080004900295009337
:101A70003046FFF721FA002211461E20FFF786FBB1
:101A80001E20A4E7164B9842A3D1C86940F0080075
:101A9000C861C86900F008000490886940F004003B
:101AA00088618869694600F0040004900320009072
:101AB00002951046FFF700FA002211463220FFF788
:101AC00065FB322083E7000000100240000801405F
:101AD000000C0140000400400000014000080040EC
:101AE000000C004070B590F83E50044690F83F302E
:101AF00090F8422090F84300022621B104290BD02F
:101B0000012D16D10FE0012D13D1012A11D184F836
:101B10003E6084F8426016E0012B0AD1012808D10A
:101B200084F83F600DE0012B03D1012A01D1012887
:101B300001D0012070BD84F83E6084F83F6084F8D5
:101B4000426084F8436091B1042904D0012200214D
:101B5000206801F031F901220421206801F02CF9FC
:101B60002068016841F001010160002070BD012280
:101B700000212068F2E7704770B5044600680169EB
:101B80004FF00005C943890715D4C168C9438907C7
:101B900011D4E91E01610120207720688069800747
:101BA000204602D0FFF7E7FF04E000F0CBF8204624
:101BB00000F070F9257720680169C943490717D4F7
:101BC000C168C943490713D46FF0040101610220C1
:101BD00020772068806910F4407F204602D0FFF70C
:101BE000CAFF04E000F0AEF8204600F053F9257774
:101BF00020680169C943090716D4C168C9430907A8
:101C000012D46FF008010161042020772068C069B8
:101C10008007204602D0FFF7AEFF04E000F092F804
:101C2000204600F037F9257720680169C943C906C5
:101C300017D4C168C943C90613D46FF010010161FC
:101C4000082020772068C06910F4407F204602D029
:101C5000FFF791FF04E000F075F8204600F01AF954
:101C6000257720680169C943C90708D1C168C943FC
:101C7000C90704D1891E0161204600F06BF9206874
:101C80000169C943090609D4C168C943090605D4D5
:101C90006FF0800101612046FFF72CFD206801698B
:101CA000C943490609D4C168C943490605D46FF040
:101CB00040010161204600F0D7F920680169C9435D
:101CC00089060BD4C168C943890607D46FF0200187
:101CD00001612046BDE87040FFF70DBD70BD0000FA
:101CE00000B585B000210091019102910391006837
:101CF000104988421BD11048816941F0400181613F
:101D00008069694600F0400004904FF4D440009090
:101D10000220019003900948FFF7CEF8084948686F
:101D200020F0C00040F0E06040F0C000486005B026
:101D300000BD0000002C01400010024000180140CE
:101D400000000140704770B5044690F83C00002642
:101D50000D4601280FD0012084F83C006AB1042A06
:101D60001DD0082A2FD00C2A3FD00126002084F84D
:101D70003C00304670BD022070BD206801F02AF89A
:101D80002068816941F0080181612068816921F042
:101D900004018161206881692A69114311E020688A
:101DA00001F048F82068816941F400618161206890
:101DB000816921F480618161206881692A6941EA31
:101DC00002218161D2E7206801F06AF82068C169C8
:101DD00041F00801C1612068C16921F00401C161BD
:101DE0002068C1692A69114311E0206801F08CF86C
:101DF0002068C16941F40061C1612068C16921F4B2
:101E00008061C1612068C1692A6941EA0221C1611A
:101E1000ACE710B5040003D094F83D0010B107E022
:101E2000012010BD002084F83C00204600F01EF880
:101E3000022084F83D00211D206800F077FF01207A
:101E400084F8460084F83E0084F83F0084F840009F
:101E500084F8410084F8420084F8430084F8440088
:101E600084F8450084F83D00002010BD08B50068E6
:101E70000649884208D10648816941F400618161C0
:101E8000806900F40060009008BD0000002C014053
:101E9000001002407047000010B5044649B1042903
:101EA0000AD008290BD094F8410001280AD001205B
:101EB00010BD94F83E00F8E794F83F00F5E794F879
:101EC0004000F2E7022081B3042932D0082933D040
:101ED00084F841000122206800F06EFF184A206853
:101EE0001849904201D0884203D1436C43F4004327
:101EF0004364206890420DD088420BD0B0F1804FEF
:101F000008D01149884205D01049884202D01049B2
:101F1000884204D1816801F00701062903D00168D5
:101F200041F001010160002010BDFFE784F83E0090
:101F3000D0E784F83F00CDE784F84000CAE700000E
:101F4000002C014000340140000400400008004023
:101F5000000C00402DE9FF473649884256D1364CE7
:101F60002088401C80B220806188491C61800A2141
:101F7000B0FBF1F201FB120008B901F0E5FE208888
:101F80001421B0FBF1F201FB120000283ED1606881
:101F90002A4E4FF0000A01283AD02949C6F800A07D
:101FA000C1F800A02749C1F800A02749C1F800A046
:101FB0006069FEF773FB07462069FEF76FFB064674
:101FC000E068FEF76BFB0546A068FEF767FB3B4643
:101FD0003246294602F0D8F81C48D0F86890D0E97B
:101FE0001B50FEF774FB074688462846FEF76FFB3A
:101FF00005460E464846FEF76AFB8DE8E0010246BC
:102000000B4613A001F0E2F9A4F800A0BDE8FF8799
:1020100001F04EFF134D124828602846316802F047
:102020007DF9286AFEF73AFB03461A46114602F08C
:10203000ABF8E9E708020020000000204000002083
:1020400044000020480000204C000020D80300205D
:10205000252E32662C252E32662C252E32660A005D
:102060000080BB45480300207047704710B5044608
:102070000068406994F84110C0F3C010212911D1C3
:1020800080B12068143050E8001F21F0800140E842
:102090000012002AF5D1A06B08B1FEF7A5FC20467E
:1020A00001F000F82068406994F84210C0F38010F5
:1020B000222911D180B12068143050E8001F21F08E
:1020C000400140E80012002AF5D1E06B08B1FEF7AC
:1020D0008BFC204600F0BFFF002010BD70470000C1
:1020E000F8B5016804460868CA684B6910F00F0F1C
:1020F0004FF0000559D003F0010602F49077374302
:1021000065D0C10705D0D10503D5616C41F001014F
:102110006164410705D5D90703D0616C41F0020124
:102120006164810705D5D90703D0616C41F00401D2
:102130006164010707D502F02001314303D0616CCF
:1021400041F008016164616C00293AD0800604D531
:10215000900602D5204600F0B3FF20684069616C0C
:10216000C0F38010090700D460B3204600F073FF6D
:1021700020684069400621D52068143050E8001FCF
:1021800021F0400140E80012002AF5D1E06BA8B12F
:102190006D494163E06BFEF74BFC002811D0E06B0A
:1021A000416B01B0BDE8F040084783060FD59306A8
:1021B0000DD52046BDE8F84000F082BF2046FFF76D
:1021C0008DFFF8BD2046FFF789FF6564F8BD266BDB
:1021D0002023012E7CD1C6067AD5D60678D508688C
:1021E0004868009048694FF00206400640D5E16B10
:1021F000086840680004000CE8D0A28D8242E5D94E
:10220000E085886920282DD020680C3050E8001F18
:1022100021F4807140E80012002AF5D120681430C2
:1022200050E8001F21F0010140E80012002AF5D11A
:102230002068143050E8001F21F0400140E80012EF
:10224000002AF5D184F84230256320680C3050E82C
:10225000001F21F0100140E80012002AF5D1E06BC8
:10226000FEF7C2FB6663A08DE18D401A81B22AE0C1
:10227000A08DE18D401A81B2E08D0028A6D0002902
:10228000A4D020680C3050E8002F22F4907240E86F
:102290000027002FF5D12068143050E8002F22F0DD
:1022A000010240E80027002FF5D184F84230256371
:1022B00020680C3050E8002F22F0100240E8002384
:1022C000002BF5D166632046FFF7CFFEF8BDFFE790
:1022D00005062BD5150629D594F841002128F5D1FE
:1022E000A068B0F5805F01D12069B0B1206A411CBF
:1022F0002162216800784860E08C401E0004000CD8
:10230000E084E3D12068C16821F08001C1602068C9
:10231000C16841F04001C160D8E7206A0088C0F37D
:1023200008004860206A801C2062E5E74006CDD5A1
:102330005006CBD5CA68204622F04002CA6084F815
:10234000413000F06CF9C1E7592F000870B5040066
:1023500004D094F84100002510B106E0012070BDC2
:1023600084F84050204600F023F8242084F84100EF
:102370002068C16821F40051C160204600F002FFCE
:102380002068016921F4904101612068416921F0D0
:102390002A0141612068C16841F40051C16065644F
:1023A000202084F8410084F842006563002070BD5D
:1023B000F0B585B00024009401940294039406467D
:1023C000374F0168374802220323374DB9423AD1CB
:1023D000816941F480418161816901F48041049106
:1023E000816941F0040181618069694600F004005F
:1023F00004901002CDE9000203932846FEF75CFD2D
:102400002815CDE90004694628460294FEF754FDDC
:10241000274D2648C5E900048020C5E90240202058
:102420002C61C5E905402846EC61FEF7BDFC08B10A
:10243000FEF7D8FAF5630022114625206E62FEF7FA
:10244000A5FE252028E01B4EB14227D1C16941F4E9
:102450000031C161C16901F400310491816941F029
:10246000040181618069694600F004000490042041
:10247000CDE9000203932846FEF71EFD0820CDE9B2
:102480000004694628460294FEF716FD0022114614
:102490002620FEF77BFE2620FEF76AFE05B0F0BD83
:1024A000003801400010024000080140580002407E
:1024B000E0020020004400402DE9F843044690F873
:1024C0004200984615460E46202802D00220BDE85C
:1024D000F883AEB1A5B100206064222184F84210D7
:1024E0002063FEF7E7FDA5858146E585A0684FF4EA
:1024F0008057B84201D1206920B13546002626E038
:102500000120E4E7002522E04B460022202120465E
:10251000CDF8008000F0DCFE08B10320D7E725B13C
:10252000A068B8421BD038B108E020684068C0F30A
:10253000080026F8020B07E0206980B12068406897
:1025400000F07F0005F8010BE08D401EE085E08D76
:102550000028D9D1202084F842000020B7E7206865
:102560004068EFE790F84230202B01D002207047FE
:1025700021B11AB10023036300F060BE012070474F
:10258000704770472DE9F843044690F841001F4614
:1025900015460E46202802D00220BDE8F8837EB101
:1025A00075B100206064212084F84100FEF782FDAF
:1025B000A5848046E584A068B0F5805F02D003E082
:1025C0000120EAE7206910B1354600260EE000251B
:1025D0000CE08021204600F07BFEA0B9ADB115F8DB
:1025E000010B21684860E08C401EE084E08C43468B
:1025F0004FF0000200970028EBD14FF04001204639
:1026000000F066FE30B10320C7E736F8020BC0F3D6
:102610000800E6E7202084F841000020BDE770476D
:10262000FEE700002DE9F05F764E00256FF00E0703
:1026300005EB450000EBC501734801448378CA7877
:102640009A427AD10A79513A092A1ED2DFE802F079
:10265000051E3E5DD27689D2B80051F8052F326052
:10266000496800248046716036F91400FDF7FCFFCC
:102670003946FDF765FE0421FDF762FE08EB840193
:10268000641CE4B24867032CEED3B3E051F8052F85
:10269000B260DFF870914968DFF870A1002409F199
:1026A00008098046F16039F91400FDF7DDFF39466D
:1026B000FDF746FE5146FDF7D3FD08EB8401641C8F
:1026C000E4B2C1F88000032CEDD393E051F8052F5C
:1026D0003261DFF830914968DFF834A1002409F154
:1026E00010098046716139F91400FDF7BDFF3946C4
:1026F000FDF726FE5146FDF7B3FD08EB8401641C8F
:10270000E4B28866032CEED374E051F8052FB26171
:10271000DFF8F0904968002409F118098046F1615A
:1027200039F91400FDF7A0FF08EB8401641CE4B242
:10273000C1F88C00032CF3D35CE060E0804651F8D4
:10274000050F30624C687462FDF78EFFC8F8980080
:102750002046FDF789FF2F49FDF7B4FDC8F89C001E
:1027600048E0824651F8050FF0622B4CDFF8948068
:1027700090FBF4F0496808F128083163D8F80000AC
:10278000DFF898B090FBF4F1814604FB1100FDF7EF
:1027900074FF00225B46FDF7F8FE04468846484673
:1027A000FDF762FF1E49FDF78DFDFDF790FF4346E3
:1027B0002246FDF7D1FDFDF7B5FFCAF8AC0019E0E0
:1027C00051F8052F3263DFF83C90496800248046B9
:1027D00009F13009716339F91400FDF745FF3946F5
:1027E000FDF7AEFD08EB8401641CE4B2C1F8B8004B
:1027F000042CF0D36D1CEDB2092DFFF419AFBDE828
:10280000F09F000050000020D80300200000FA4490
:10281000000034430000C84280969800006AF840E7
:102820008096184B094808B5416941F001014161A2
:102830004069002200F00100009011460F20FEF7D1
:10284000A5FCBDE808400F20FEF792BC0010024036
:102850002DE9F04186B0002431480094019402949F
:102860000394816941F040018161816901F0400177
:102870000491816941F004018161816901F00401E1
:102880000491816941F480718161816901F48071F1
:102890000491816941F0080181618069214F00F054
:1028A000080004900022FF213846FEF7FDFBDFF808
:1028B0007880002220214046FEF7F6FBFF2001260B
:1028C000CDE90006022569463846CDE90245FEF706
:1028D000F3FA4FF47860CDE9000469461348029496
:1028E000FEF7EAFA2020CDE9000669464046CDE928
:1028F0000245FEF7E1FA4FF440700090122001907B
:102900000320039069464046FEF7D6FA0849486816
:1029100040F0E06040F00200486006B0BDE8F081A1
:102920000010024000180140000C0140002001404E
:102930000000014010B592B000240F941C2168469D
:102940001094FDF72AFC202107A8FDF726FC2D484E
:102950002B49016040F29F51C0E901146321C0E995
:1029600003148021C0E90541FFF753FA08B1FEF7CF
:1029700039F80F940FA923481094FEF7E7FE08B129
:10298000FEF730F8602000903220CDE90104039476
:1029900004940594002269461A480694FFF7D3F977
:1029A00008B1FEF71FF8042269461648FFF7CBF975
:1029B00008B1FEF717F8082269461248FFF7C3F975
:1029C00008B1FEF70FF80C2269460E48FFF7BBF975
:1029D00008B1FEF707F80794089409944FF40050E3
:1029E0000A94CDE90B4007A906480E94FEF784FE31
:1029F00008B1FDF7F7FF0348FFF772F912B010BDF9
:102A0000002C0140A000002010B58CB024216846A5
:102A1000FDF7C3FB0024164809944FF080410A9447
:102A2000C0E900144FF6FF71C0E9024104618461FE
:102A30000320CDE900040120CDE902040621049120
:102A4000CDE90540CDE9074169460948FEF73EFF5B
:102A500008B1FDF7C7FF099409A905480A94FEF7D4
:102A600075FE002801D0FDF7BDFF0CB010BD0000C1
:102A7000E800002010B58CB024216846FDF78DFBDE
:102A800000241648099414490A94C0E900144FF62A
:102A9000FF71C0E90241046184610320CDE90004B3
:102AA0000120CDE9020406210491CDE90540CDE9DC
:102AB000074169460948FEF709FF08B1FDF792FF93
:102AC000099409A905480A94FEF740FE002801D0A0
:102AD000FDF788FF0CB010BD00040040300100205D
:102AE00010B58CB024216846FDF757FB002416482A
:102AF000099414490A94C0E900144FF6FF71C0E923
:102B00000241046184610320CDE900040120CDE984
:102B1000020406210491CDE90540CDE9074169464B
:102B20000948FEF7D3FE08B1FDF75CFF099409A937
:102B300005480A94FEF70AFE002801D0FDF752FF6F
:102B40000CB010BD000800407801002010B58CB01A
:102B500024216846FDF721FB0024164809941449F6
:102B60000A94C0E900144FF6FF71C0E90241046104
:102B700084610320CDE900040120CDE9020406218F
:102B80000491CDE90540CDE9074169460948FEF7C2
:102B90009DFE08B1FDF726FF099409A905480A948E
:102BA000FEF7D4FD002801D0FDF71CFF0CB010BDCE
:102BB000000C0040C00100201CB500240E48009409
:102BC0000C490194016040F2CF21C0E90114632156
:102BD0008461C160FEF7F8FD08B1FDF703FF0094C2
:102BE000694605480194FEF7B1FD002801D0FDF7C4
:102BF000F9FE1CBD001000400802002010B5114C69
:102C00000F480C2120604FF4165060600020A06037
:102C1000E060C4E90401A061E0612046FFF796FB93
:102C200008B1FDF7DFFE2068C16841F01001C16006
:102C3000BDE81040632204490248FFF793BC00003E
:102C40000038014050020020DB0300200C4810B582
:102C50000A4901604FF4E1314160002181600C229A
:102C6000C160C0E904128161C161FFF76FFB0028F8
:102C700003D0BDE81040FDF7B5BE10BD00440040D4
:102C800098020020FEE7FEE770477047FEF718BA8B
:102C900030B58FB028216846FDF77FFA14210AA8C5
:102CA000FDF77BFA0120010400248DE81300049055
:102CB0004FF4E010CDE90810022507956846FEF7AD
:102CC00079FB08B172B6FEE70F20CDE90A054FF493
:102CD0008060CDE90C4002210AA80E94FEF788FA24
:102CE000002801D072B6FEE70FB030BD704700007B
:102CF0000148FEF741BF0000E80000200148FEF750
:102D00003BBF0000300100200148FEF735BF000046
:102D1000780100200148FEF72FBF0000C00100200D
:102D20000148FEF729BF000008020020F0B5026844
:102D30001C4D1D4E1D4FDFF878C01E4B4FF0804ECE
:102D4000A84209D0984207D0704505D0B04203D0C0
:102D5000B84201D0604503D122F070044A68224392
:102D6000A84209D0984207D0704505D0B04203D0A0
:102D7000B84201D0604503D122F44074CA682243AE
:102D80004C6922F08002224302608A68C2620A68AB
:102D90008262A84201D0984201D1096901630121F0
:102DA0004161F0BD002C01400004004000080040DB
:102DB000000C00400034014010B501F01F01012358
:102DC000046A8B409C430462036A8A401343036293
:102DD00010BD0000F0B5026A036A23F0010303622C
:102DE00043688469114E24F073050C68104F2C431E
:102DF00022F002058A682A43B04201D0B84205D1C8
:102E000022F00805CA682A4322F00402B04201D029
:102E1000B84205D14D6923F440731D438B692B43A0
:102E200043608461496841630262F0BD002C014047
:102E300000340140F0B5026A036A23F01003036214
:102E4000436884690D6824F4E64444EA05248D68E7
:102E500022F0200242EA05120F4D104EA84201D086
:102E6000B04206D1CF6822F0800242EA071222F077
:102E70004002A84201D0B04207D14D6923F440631B
:102E800043EA85038D6943EA8503436084614968A9
:102E900081630262F0BD0000002C0140003401405B
:102EA000F0B5026A036A23F4807303624368C4695D
:102EB00022F4007224F073050C68124E2C438D68C6
:102EC00042EA05220E4DA84201D0B04206D1CF6899
:102ED00022F4006242EA072222F48062A84201D072
:102EE000B04207D14D6923F4405343EA05138D697D
:102EF00043EA05134360C4614968C1630262F0BDDF
:102F0000002C01400034014030B5036A026A22F40B
:102F1000805202624268C4690D6824F4E64444EABF
:102F200005248D6823F4005343EA0533084DA84275
:102F300002D0084DA84204D14D6922F4804242EAF1
:102F400085124260C46149680164036230BD0000BB
:102F5000002C01400034014010B5406A0021C185B9
:102F6000C184FFF7BBF810BD70B5446A20684069A2
:102F700094F84110C0F3C0100025212904D118B1E4
:102F8000E584204600F08EF82068406994F84210ED
:102F9000C0F38010222904D118B1E585204600F045
:102FA0005AF8606C40F0100060642046FFF796F815
:102FB00070BD10B50146406A096809684FF000030A
:102FC00089062ED4C38501680C3151E8002F22F404
:102FD000807241E80024002CF5D10168143151E8D9
:102FE000002F22F0010241E80024002CF5D10168F5
:102FF000143151E8002F22F0400241E80024002C57
:10300000F5D1202180F84210016B012909D1016816
:103010000C3151E8002F22F0100241E80024002C6E
:10302000F5D14363016B012902D0FFF7A9FA10BD66
:10303000818DFFF71AF810BD10B5406A0121416378
:10304000016B012902D0FFF79CFA10BD818D490860
:10305000FFF70BF810BD01680C3151E8002F22F486
:10306000907241E80023002BF5D10168143151E83A
:10307000002F22F0010241E80023002BF5D1016B63
:10308000012909D101680C3151E8002F22F010020A
:1030900041E80023002BF5D1202180F842100021C7
:1030A0000163704701680C3151E8002F22F0C00223
:1030B00041E80023002BF5D1202180F84110704712
:1030C00008B590F84210222901D0022008BD81687D
:1030D0004FF48053994201D1026922B1826A994228
:1030E0001BD049B10AE00268816A5268C2F3080243
:1030F0000A80816A891C08E0016971B10168496828
:1031000001F07F011170816A491C8162C18D491EE5
:103110000904090CC18503D01BE001684968F1E787
:103120000168CA6822F02002CA600168CA6822F4F5
:103130008072CA6001684A6922F001024A61202156
:1031400080F8421000214163026B012A03D0FFF78F
:1031500017FA002008BD016301680C3151E8002F07
:1031600022F0100241E80023002BF5D101680A6823
:10317000D20602D50A6849680091818DFEF775FF75
:10318000E7E7000070B5044600680169E26821F4D1
:10319000405111430161A168206901436069014305
:1031A0002068C26841F20C639A430A43C2602068F7
:1031B0004169A26921F44071114341611E492068AF
:1031C000884202D1FEF7C0F801E0FEF7ADF800EB4F
:1031D000C00101EB0011606864228000B1FBF0F3D4
:1031E000B3FBF2F36FF018067343B1FBF0F5B1FBDC
:1031F000F0F605EB8305322303EB0515B5FBF2F57D
:10320000B6FBF2F605F0F00505EB0615B1FBF0F69E
:10321000B1FBF0F0B0FBF2F06FF01801484306EBA1
:10322000800003EB0010B0FBF2F0216800F00F000B
:103230002844886070BD00000038014037B582B076
:103240001346039A8262044683850020606422212B
:1032500084F84210E56B1B49A962E56B1A49E962E3
:10326000E56B1A492963E16B48632168E06B091D2E
:10327000FDF7D8FD2068016840680090206948B1DA
:1032800020680C3050E8001F41F4807140E80012C3
:10329000002AF5D12068143050E8001F41F00101E8
:1032A00040E80012002AF5D12068143050E8001FD1
:1032B00041F0400140E80012002AF5D105B000209D
:1032C00030BD0000B32F000839300008692F000816
:1032D0002DE9F0411E46174688460446069D26E025
:1032E000681C24D025B1FDF7E5FE801BA8421ED93D
:1032F00020680C3050E8001F21F4D07140E8001223
:10330000002AF5D12068143050E8001F21F0010197
:1033100040E80012002AF5D1202084F8410084F80A
:103320004200002084F840000320BDE8F0812068BE
:10333000016838EA010004D00020B842D0D0002053
:10334000F3E70120F9E7000038B51148006801688B
:10335000104CC1F300128AB1016841680091016804
:1033600040680B48FEF782FE0B4800684068C0F1D9
:1033700063006070FFF756F9012020706322E11CA2
:103380000348FFF7EFF8BDE838400148FEF7A8BE54
:1033900050020020D8030020E002002010B501F008
:1033A0000FF8BDE810400148FEF79ABE98020020D1
:1033B000FEE700210A464318491C89B2DA706329E6
:1033C000F9D3552181700270427070470FB4054BDC
:1033D00010B503A9044A029800F0EAF810BC5DF8A1
:1033E00014FB0000B93C00089C0000200907090EEE
:1033F000002804DB00F1E02080F80014704700F0A2
:103400000F0000F1E02080F8141D704702E008C8AA
:10341000121F08C1002AFAD170477047002001E04E
:1034200001C1121F002AFBD1704700002DE9FF5F88
:1034300082B00021DDE90430020DDDF840B0034325
:1034400018D044F61050A2F2FF32424315141198DE
:1034500001281FD0A5EB0B00401C5FEA000A4FF0CB
:1034600000064E4FDFF83891B046504615D5CAF1E8
:10347000000413E0119801244AA3012801D16FEA46
:103480000B010298119AC0E90031C0E9024206B06E
:10349000BDE8F09FCBF10000DFE704460021404A81
:1034A000491842EB0450CDE9001012E0E00707D0C4
:1034B00032463B4640464946FCF7F5FF8046894682
:1034C00032463B4610461946FCF7EDFF06460F46CE
:1034D0006410002CEAD1DDE90401DDE90023BAF132
:1034E000000F06DAFCF7DFFF42464B46FCF7DBFF36
:1034F00005E0FDF74AF842464B46FDF746F804461C
:103500000E460022284BFDF7F5F803D84FF0FF30A8
:10351000014607E00022254B20463146FCF71CFF00
:10352000FDF718FA102409E0002C0ADB0A22002318
:10353000FDF72AF9039B30321A55641E50EA010246
:10354000F2D1641C039AC4F111031444119A012AA4
:1035500003D0012208430DD10AE0084304D0002023
:103560004FF0110B119072E7A3EB0B056D1E0DE0F0
:103570005B4504DD4FF0000205F1010504E003DACC
:103580004FF00002A5F10105002AECD00298119934
:10359000C0E90231C0E9004579E7000000001440AD
:1035A0000000F03F300000000000F0430000E03F6A
:1035B0002DE9FF4F95B09A46884606460025EEE174
:1035C000252877D100242746F94A0121039400E0F9
:1035D000044316F8013F203B01FA03F01042F7D1F3
:1035E00030782A2811D06FF02F033078A0F1300204
:1035F000092A16D8039A44F0020402EB820203EB74
:1036000042021044761C0390EFE758F8042B039213
:10361000002A03DA504244F40054039044F00204B8
:10362000761C30782E2816D116F8010F44F00404C9
:103630002A280DD06FF02F023078A0F13003092B2B
:1036400009D807EB870302EB4303C718761CF3E79F
:1036500058F8047B761C30786C280FD006DC4C2898
:1036600017D068280DD06A2814D104E0742810D02F
:103670007A280FD10DE044F400140AE044F48014D9
:1036800001E044F440147278824202D104F58014BF
:10369000761C761C307866280BD013DC582877D03F
:1036A00009DC002875D04528F6D04628F4D04728F4
:1036B0001AD193E118E0632835D0642879D06528C1
:1036C00012D18BE1702873D008DC6728F1D069280B
:1036D0006FD06E280DD06F2806D1ACE073282CD0A7
:1036E000752874D0782853D05246179990476D1C8E
:1036F00054E1C4F30250022809D003280DD0D8F8B1
:10370000001004280DD00D6008F1040846E1D8F837
:103710000010EA17C1E90052F6E7D8F800100D8052
:10372000F2E70D70F0E718F8041B8DF80010002088
:103730008DF80100EB46012003E058F804BB4FF080
:10374000FF3061074FF0000102D40DE009F10101E3
:103750008946B9420FDA8145F8DB1BF809100029C8
:10376000F4D108E009F1010189468142FADB1BF836
:1037700009100029F6D103985346A0EB090721460A
:103780003846179A00F080FA284400EB090507E054
:1037900044E008E10DE01BF8010B524617999047F1
:1037A000B9F10109F7D2534621463846179AF2E09B
:1037B00039E00A21C4F302524FF0000B0091022AB3
:1037C00006D058F8040BC117032A09D00AE023E0F9
:1037D00008F1070020F00702F2E80201904605E038
:1037E00000B2C117042A01D140B2C117002906DA7C
:1037F0000A460021404261EB02012D2202E022052F
:1038000004D52B228DF80420012203E0E20701D029
:103810002022F7E7914657E00A2100E010214FF0FF
:10382000000B00910BE010214FF0000B44F004045A
:103830000827009103E008204FF0000B0090C4F32C
:103840000252022A05D058F8040B0021032A08D09E
:1038500008E008F1070020F00702F2E802019046B4
:1038600003E080B2042A00D1C0B24FF00009220761
:103870002AD53278702A07D0DDF800C08CF0100C01
:103880005CEA0B0C05D00EE040228DF804200122EA
:1038900008E050EA010306D030238DF804308DF89B
:1038A000052002229146009B83F0080353EA0B0394
:1038B0000AD150EA010201D1620705D530228DF804
:1038C00004204FF001097F1E3278582A04D039A213
:1038D0000C920CAA02920BE03BA2F9E75B46009A1D
:1038E000FCF752FF0C9B9B5C029A521E02921370D3
:1038F00050EA0102F2D1029804A9081A00F1200B43
:10390000600702D524F4803400E001275F4502DD22
:10391000A7EB0B0000E0002000EB0B0100900398E8
:103920004944401A0390E00306D453462146179AAF
:10393000039800F0A9F90544002706E001A85246C3
:10394000C05D179990476D1C7F1C4F45F6DBE00367
:103950000CD553462146179A039800F095F9054473
:1039600004E030205246179990476D1C0099481E7C
:1039700000900029F5DC08E0029802995246007890
:10398000491C0291179990476D1CBBF10001ABF1E6
:10399000010BF1DC5BE100F065F90544761C307841
:1039A00000287FF40DAE19B02846BDE8F08F000066
:1039B0000928010030313233343536373839616205
:1039C00063646566000000003031323334353637C9
:1039D000383941424344454600000000600700D4A6
:1039E000062708F1070020F00700F0E802238046D0
:1039F00003F0004C5FEA0C0001D097A009E020051D
:103A000001D596A005E0E00701D095A001E0AFF256
:103A10004C001390307823F0004365280CD006DC6E
:103A2000452809D046281DD047287FD13BE066288D
:103A300018D067287AD136E00021112F01DB112040
:103A400000E0781CCDE9000104A90CA8FFF7EEFC0A
:103A5000DDE90D010C9A4FF0000B07F101091092FE
:103A600000914EE04FF000400097CDE9011004A90D
:103A70000CA8FFF7DBFCDDE90D020C9B0F994FF062
:103A8000000B91461093009211B9791C00EB0109CB
:103A9000B7EB090003D4C0F1FF3B07F10109A9EB23
:103AA0000700019042E0012F00DA01270021112FC9
:103AB00001DD112000E03846CDE9000104A90CA881
:103AC000FFF7B4FCDDE90D010C9A00914FF0000BFB
:103AD000B946109221070FD4009A4A4503DA91465D
:103AE00001E0A9F10109B9F1010F05DD109AA9F171
:103AF0000101515C3029F4D0B84202DA10F1040F10
:103B000003DA0121CDE9011010E0002803DC834431
:103B1000A9EB000102E0411C494500DD8946A0EB0C
:103B20000B00401C01904FF000400290200705D48C
:103B30000198484502DB4FF0FF30019000208DF8DE
:103B40004B0002980DF14B07B0F1004F25D0022039
:103B50000C902B200D90029800280CDA4042029025
:103B60002D200D9007E00A210298FCF7F7FD303177
:103B7000029007F8011D0C99481E0C900029F2DCF8
:103B800002980028EFD1791E0D980870307800F067
:103B9000200040F0450007F8020D11A8C01BC01D11
:103BA00002901398007800B1012000EB0901019800
:103BB00001EBE071029801440398401A401E039003
:103BC000E00306D453462146179A039800F05CF8A8
:103BD00005441398007818B15246179990476D1C08
:103BE000E00323D553462146179A039800F04CF87A
:103BF00005441BE0BBF1000F07DB0098584504DDCE
:103C00001098179910F80B0001E0179930205246D0
:103C1000904701980BF1010B401E05F10105019041
:103C200004D12E205246179990476D1CB9F100011E
:103C3000A9F10109DEDC05E017F8010B52461799DE
:103C400090476D1C0299481E02900029F4DC5346EF
:103C50002146179A03989EE62D0000002B000000D5
:103C6000200000002DE9F041044600251E461746BD
:103C7000880404D405E039462020B0476D1C641E3A
:103C8000F9D52846BDE8F0812DE9F041044600252C
:103C90001E469046C80301D5302700E0202788043F
:103CA00004D505E041463846B0476D1C641EF9D581
:103CB0002846BDE8F081000013B54FF6FF730122DE
:103CC00069460248FEF75EFC00981CBD9802002081
:103CD000FDF7FEF9FEF7DCFFFEF7BAFDFEF7A2FDE9
:103CE000FEF7B4FFFEF726FEFEF78EFEFEF7C2FEDD
:103CF000FEF7F6FEFEF72AFFFEF75EFFFEF77EFFF9
:103D00000D48FDF7ADFD00F0ABF800F051F900F003
:103D100099FA0A480068C16841F02001C160084969
:103D200000208860C860086148610648FFF741FBD1
:103D30000A20FDF7AFF8FBE70802002098020020F8
:103D400000000020D80300202DE9F05F3C48026805
:103D5000506A3C4CDFF8F08001B22180D8F80000B6
:103D6000406A3A4B07B267801868406ADFF8E0C0E3
:103D700006B2A680DCF80000406A05B2E5800020AB
:103D80005062D8F8002050621A685062DCF80020B7
:103D900050620846FCF768FCDFF8B8B05946FCF7FB
:103DA0005FFA5946FCF75CFADFF8AC804146FCF755
:103DB00089FADFF8A8904946FCF784FA6FF0010A07
:103DC0005146FCF7BDFAA0603846FCF74DFC594659
:103DD000FCF746FA5946FCF743FA4146FCF772FAFB
:103DE0004946FCF76FFA5146FCF7AAFAE060304604
:103DF000FCF73AFC5946FCF733FA5946FCF730FA1F
:103E00004146FCF75FFA4946FCF75CFA5146FCF77D
:103E100097FA20612846FCF727FC5946FCF720FA60
:103E20005946FCF71DFA4146FCF74CFA4946FCF7A7
:103E300049FA5146FCF784FA6061BDE8F09F000042
:103E4000E800002028000020300100207801002038
:103E5000C00100200000C8420000164300003041AD
:103E600010B53C210E48FDF73DFE3C210D48FDF705
:103E700039FE3C210C48FDF735FE3C210B48FDF78F
:103E800031FE0748FDF7ECFC0648FDF7E9FC064863
:103E9000FDF7E6FCBDE810400448FDF7E1BC00007A
:103EA000E80000203001002078010020C00100203F
:103EB0002DE9F047364CA068FCF709FCDFF8D48008
:103EC000DFF8D49042464B46FCF7EDFADFF8CCA081
:103ED00000225346FCF7E7FA05460E46A069FCF7B8
:103EE000F6FB2A463346FCF737FAFCF71BFC07467D
:103EF000A061E068FCF7EBFB42464B46FCF7D3FAC7
:103F000000225346FCF7CFFA05460E46E069FCF75F
:103F1000DEFB2A463346FCF71FFAFCF703FCE061A0
:103F20002069FCF7D4FB42464B46FCF7BCFA002262
:103F30005346FCF7B8FA05460E46206AFCF7C7FB65
:103F40002A463346FCF708FAFCF7ECFB206260696E
:103F5000FCF7BDFB42464B46FCF7A5FA0022534650
:103F6000FCF7A1FA05460E46606AFCF7B0FB2A464C
:103F70003346FCF7F1F9FCF7D5FB60623846FCF7F5
:103F8000A6FBBDE8F04702460B4605A0FFF71EBAA8
:103F9000280000207B14AE47E17A943F00003440B3
:103FA000C0EFB3CCCAFD3A252E32660D0A000000E0
:103FB00010B500210848FDF76FFF04210648FDF702
:103FC0006BFF08210448FDF767FFBDE810400C2196
:103FD0000148FDF761BF0000A00000202DE9F04777
:103FE0001C4615460E46071E00DC78420F2800DAF4
:103FF0000027002E01DD084600E070420F2800DA9D
:104000000026002D01DD104600E068420F2800DA8E
:104010000025002C01DD184600E060420F2800DA80
:104020000024DFF85C916FF0620A002F09DB632F38
:1040300000DD6327002201214846FDF735F8012203
:1040400008E0574500DA5746012211464846FDF779
:104050002BF8002202214846FDF726F8002F00DC4D
:104060007F42DFF82081D8F800004763002E09DD89
:10407000632E00DD6326002204214846FDF714F874
:10408000012214E00AD1002204214846FDF70CF871
:10409000002208214846FDF707F80EE0564500DAF1
:1040A0005646012204214846FCF7FEFF0022082163
:1040B0004846FCF7F9FF002E00DC7642D8F80000F5
:1040C0008663002D0ADD632D00DD6325012220219A
:1040D0004E464846FCF7E8FF002216E00BD10022CE
:1040E00020214E464846FCF7DFFF002210213046D3
:1040F000FCF7DAFF0FE0554500DA55460022202193
:104100004E464846FCF7D0FF012210213046FCF70E
:10411000CBFF002D00DC6D42D8F80000C563002CF9
:104120000ADD632C00DD6324012280214D464846D0
:10413000FCF7BAFF002216E00BD1002280214D4689
:104140004846FCF7B1FF002240212846FCF7ACFFAF
:104150000FE0544500DA5446002280214D4648467F
:10416000FCF7A2FF012240212846FCF79DFF002C0E
:1041700000DC6442D8F800000464BDE8F087000069
:1041800000180140A00000202DE9F0411F4616460E
:104190000D46FCF769FA234C20602846FCF764FAC8
:1041A000214D28603046FCF75FFA204E30603846DB
:1041B000FCF75AFA1E4F38601E480168204600F08E
:1041C00083F81D480168284600F07EF81B48016806
:1041D000304600F079F81A480168384600F074F863
:1041E000396A3868FBF7E4FFFCF758FA0746316A8A
:1041F0003068FBF7DDFFFCF751FA0646296A2868AC
:10420000FBF7D6FFFCF74AFA0546216A2068FBF760
:10421000CFFFFCF743FA3B4632462946BDE8F04162
:10422000FFF7DCBE240300206C0300209003002075
:10423000B4030020300000203400002038000020AB
:104240003C0000201D4930B50020486008608860AF
:10425000C86008618861C86101F148020862506065
:1042600010609060D06010619061D06101F16C03CA
:104270001062586018609860D86018619861D861C1
:1042800001F19004186260602060A060E06020612D
:10429000A061E06101F12405206268602860A860E7
:1042A000E8602861A861286205484861506158614A
:1042B00004496061E961686130BD000024030020A9
:1042C000000020410AD7233C2DE9F041044641601B
:1042D0000068FBF7BFFF0546A06029462069FBF791
:1042E00067FF206107462846E168FBF7B3FFE169F5
:1042F000FBF7B6FF06463946A069FBF7B1FF074654
:1043000029466069FBF7ACFF3946FBF751FF3146A0
:10431000FBF74EFFE5602062BDE8F0812DE9F0413A
:10432000044641600068FBF795FF1F494FF0000805
:10433000A060884205DA1D49884202D24046C4F88E
:104340000880054629462069FBF732FF20610746B1
:104350002846E168FBF77EFFE169FBF781FF06462F
:104360003946A069FBF77CFF074629466069FBF7E1
:1043700077FF3946FBF71CFF3146FBF719FF0C4965
:10438000E5602062884202DC0A49884201D9216244
:1043900007E00949884204D20849884201DAC4F892
:1043A0002080206ABDE8F08100002041000020C18B
:1043B0000000A0420000A0C20000A0C00000A04079
:1043C0000B4800680068800610D50A4A1078FF285C
:1043D00001D3002010700849C0B20144401C107085
:1043E0004FF47A7301220248FEF766B87047000066
:1043F0009802002088000020A0040020010202038F
:104400000405060708090A0B0C0D0E0F101000001A
:104410000000000000000102030406070809000074
:1044200000000102030400004844000800000020CE
:10443000A00000000C340008E8440008A0000020A0
:10444000000900001C34000800000000000000000B
:10445000000000000000000000000000000000005C
:104460000100000010000000000000000024F40023
:10447000000000000000000000000000000000003C
:10448000000000000000000000000000000000002C
:10449000000000000000000000000000000000001C
:1044A000000000000000000000000000000000000C
:1044B00000000000000000000000000000000000FC
:1044C00000000000000000000000000000000000EC
:1044D00000000000000000000000000000000000DC
:0844E0000000000000000000D4
:0400000508000131BD
:00000001FF
