:020000040800F2
:10000000D8190020650200083B250008451E00089D
:1000100039250008D1030008492C00080000000021
:10002000000000000000000000000000CD010008FA
:10003000190400080000000011020008F926000859
:100040007F0200087F0200087F0200087F0200088C
:100050007F0200087F0200087F0200087F0200087C
:100060007F0200087F0200087F0200087F0200086C
:100070007F0200087F0200087F0200087F0200085C
:100080007F0200087F0200087F0200087F0200084C
:100090007F0200087F0200087F0200087F0200083C
:1000A0007F020008A92700087F0200087F020008DD
:1000B0007F0200087F0200087F0200087F0200081C
:1000C0007F0200087F0200087F0200087F0200080C
:1000D0007F0200087F0200087F0200087F020008FC
:1000E0007F0200087F0200087F0200087F020008EC
:1000F000C12700087F0200087F0200087F02000875
:100100007F0200087F0200087F0200087F020008CB
:10011000652A00087F020008B52700087F02000852
:100120007F0200087F0200087F0200087F020008AB
:1001300000F002F800F03AF80AA090E8000C8244BF
:100140008344AAF10107DA4501D100F02FF8AFF29C
:10015000090EBAE80F0013F0010F18BFFB1A43F0A5
:1001600001031847E83C0000083D0000103A24BF96
:1001700078C878C1FAD8520724BF30C830C144BF0C
:1001800004680C607047000000230024002500264E
:10019000103A28BF78C1FBD8520728BF30C148BFEA
:1001A0000B6070471FB51FBD10B510BD00F0DBF828
:1001B0001146FFF7F7FF02F081FD00F0F9F803B4F4
:1001C000FFF7F2FF03BC00F0FDF80000224B1968B6
:1001D0000868B0E8F00F80F30988BFF36F8F4FF025
:1001E000000080F311884EF00D0E704700000000F3
:1001F00006480068006880F3088862B661B6BFF3FD
:100200004F8FBFF36F8F00DF00BF00BF08ED00E02E
:10021000EFF30980BFF36F8F0F4B1A6820E9F00FDF
:10022000106008B54FF0500080F31188BFF34F8F76
:10023000BFF36F8F03F056F94FF0000080F3118881
:10024000BDE8084019680868B0E8F00F80F3098835
:10025000BFF36F8F704700BF14000020EFF30580DD
:10026000704700000948804709480047FEE7FEE75D
:10027000FEE7FEE7FEE7FEE7FEE7FEE7FEE7FEE756
:1002800004480549054A064B70470000A5270008A9
:1002900031010008D8130020D8190020D8150020FB
:1002A000D815002010B5203AC0F00B80B1E81850E6
:1002B000203AA0E81850B1E81850A0E81850BFF450
:1002C000F5AF5FEA027C24BFB1E81850A0E81850EF
:1002D00044BF18C918C0BDE810405FEA827C24BF43
:1002E00051F8043B40F8043B08BF7047D20728BFD1
:1002F00031F8023B48BF11F8012B28BF20F8023B20
:1003000048BF00F8012B70474FF0000200B51346BC
:1003100094469646203922BFA0E80C50A0E80C5025
:10032000B1F12001BFF4F7AF090728BFA0E80C50D6
:1003300048BF0CC05DF804EB890028BF40F8042BCF
:1003400008BF704748BF20F8022B11F0804F18BF3C
:1003500000F8012B7047704770477047004870479E
:100360007813002070477546FFF7F8FFAE4605008A
:100370006946534620F00700854618B020B5FFF7C0
:100380007FFFBDE820404FF000064FF000074FF020
:1003900000084FF0000B21F00701AC46ACE8C009A3
:1003A000ACE8C009ACE8C009ACE8C0098D467047AC
:1003B00010B50446AFF300802046BDE81040FFF7BB
:1003C000FEBE000001491820ABBEFEE72600020079
:1003D000FEE700000E48016821F0807101600168AD
:1003E00041F0807101600B48016821F0010101605A
:1003F000016841F0010101600021416000BF00BFC0
:1004000000BF406808B1002070470120704700001D
:10041000FCED00E0001000E0704772B6FEE710B59A
:1004200090F821100022022905D00421816380F870
:100430002020012010BD01680B6823F00E030B6023
:1004400001680B6823F001030B6090F84030C46B27
:10045000012101FA03F3636080F8211080F8202065
:10046000104610BD2DE9F05F90F8211000240229FC
:1004700003D004218163012485E001680A6822F029
:100480000E020A6001680A6822F001020A603F4E0B
:100490003E4FB215DFF8F4C0DFF8F090DFF8ECA0C3
:1004A000DFF8E8B0DFF8E4E00168783F13011502F7
:1004B000ACF1640CA9F15009AAF13C0AABF1280B8C
:1004C000AEF1140E4FF48018B14227D9B9420ED0C4
:1004D000614512D049451DD0514518D0594518D015
:1004E000714501D1424615E0294EB14201D10122A8
:1004F00010E0274E1436B14201D110220AE0244EFA
:100500002836B14206D0224A3C32914201D11A46E5
:1005100000E02A461E49091F0A602BE0B94213D0A9
:10052000614517D0494522D051451DD059451DD0B0
:10053000714501D142461AE0B14202D14FF08072BA
:1005400015E0134EB14201D1012210E0104E1436D5
:10055000B14201D110220AE00D4E2836B14206D038
:100560000B4A3C32914201D11A4600E02A46074923
:1005700080394A60012180F82110002180F8201084
:10058000416B01B188472046BDE8F09F80000240E2
:10059000080402402DE9F84FDFF8C8910024A9F1C2
:1005A000040B23460F2709F1040AABF1040ED1E036
:1005B0000125A54006EA0502AA4276D1DFF8A8C1C6
:1005C0004E68A6EB0C0866452BD00DDC032E34D00C
:1005D00005DC36B3012E19D0022E2FD11BE0112ECF
:1005E00016D0122E2AD119E0B8F5881F19D006DCD2
:1005F000B8F5803F15D0B8F5801F1FD111E0B8F5D0
:10060000001F0ED0B8F5041F18D10AE0CB6815E022
:10061000CB681B1D12E0CB6808330FE0CB680C33AE
:100620000CE08B682BB1012B4FF0080303D0456120
:1006300004E0042302E0056100E00023FF2A01D862
:10064000064601E000F104064FEA840501D9A5F150
:100650002005D6F8008007FA05FC28EA0C0803FA02
:1006600005F548EA0508C6F800804D68ED0070D52C
:100670003E4DAE6946F00106AE61AD6924F0030659
:1006800005F0010500953A4D06EB050CDCF8085025
:10069000A607360F07FA06F825EA0805DFF8D48022
:1006A000404503D14FF0000825E052E0DFF8C88054
:1006B000404502D14FF001081DE0DFF8C080404501
:1006C00002D14FF0020816E0DFF8B480404502D1B5
:1006D0004FF003080FE0DFF8AC80404502D14FF047
:1006E000040808E0DFF8A080404502D14FF005087B
:1006F00001E04FF0060808FA06F848EA0508CCF8C9
:1007000008804D68D9F80060ED024D4601D51643CA
:1007100000E096432E604D68DAF80060AD02554661
:1007200001D5164300E096432E604D68DBF800606B
:10073000AD035D4601D5164300E096432E604D683B
:10074000DEF80060ED03754601D5164300E09643E0
:100750002E60641C0A681646E2407FF429AFBDE8AB
:10076000F88F000008040140000011100010024042
:100770000000014000080140000C01400010014051
:100780000014014000180140001C01400AB1016141
:1007900070470904FBE700000148806870470000CB
:1007A000040000200248816802781144816070478B
:1007B00004000020074810B5016841F010010160F5
:1007C000032000F0A1F80F2000F006F800F04AF82E
:1007D000002010BD0020024030B505461C4887B0FF
:1007E000816941F400518161806906A900F40050DB
:1007F000009001A800F008FA00F036FA1549164AF0
:10080000B0FBF1F11548491E0260416040F2E73249
:100810000021C0E903218160816100F0D7FC040060
:1008200012D10E4800F064FD04000DD12C2000F020
:100830003DF8102D07D2002229462C2000F044F864
:100840000748056000E0012407B0204630BD0000E5
:100850000010024040420F000034014060050020BB
:10086000080000200F4808B5816941F0010181614D
:10087000816901F001010091C16941F08051C161BC
:10088000C069002200F0805000900F21901E00F0FF
:100890001BF80548416821F0E06141F000714160BA
:1008A00008BD00000010024000000140002809DBE4
:1008B00000F01F02012191404009800000F1E0207A
:1008C000C0F8001170470000F0B40E4B1B680C46D6
:1008D000C3F30223C3F10705042D00D90425191D14
:1008E000072901D2002300E0DB1E012606FA05F1EC
:1008F000491E214099409E40761E16403143F0BC6F
:1009000002F0A3B90CED00E0064900F00702086808
:100910004FF6FF03184040EA0220034A10430860E4
:10092000704700000CED00E00000FA0501490120CD
:100930000862704700000E4210B501460020284CA6
:1009400004292FD00BDC012930D0022929D100F055
:100950008BF96168C1F38131491C49001FE0082906
:1009600020D010291DD161682268D20119D51D48F7
:10097000C1F38342C903805C0AD56168194AC1F397
:100980004041921E515C184AB2FBF1F1484301E02C
:10099000164948436168490203D440000321B0FB73
:1009A000F1F010BDBDE8104000F06EB9226AC2F34C
:1009B0000121012903D1920701D5C80310BD0229E5
:1009C00005D1626A920702D549F6404010BD03295D
:1009D000FCD121688903F9D54FF2244010BD0000F5
:1009E00000100240183E000800127A0000093D0085
:1009F0002DE9F84305460078354CC00754D0E0692E
:100A00000026C00008D4E06940F08050E061E06951
:100A1000012600F0805000902E480168C90512D4CC
:100A20000168804641F480710160FFF7B5FE07461A
:100A300005E000BFFFF7B0FEC01B642823D8D8F83C
:100A40000000C005F6D5206A10F4407021D0A988B6
:100A500001F4407181421CD0206A1F49012220F418
:100A600040700A6000220A602062C00711D0FFF7C0
:100A700093FE074641F2883808E000BFFFF78CFE7E
:100A8000C11B414502D90320BDE8F883206A8007D5
:100A9000F4D5206A696820F44070084320621EB1D2
:100AA000E06920F08050E0612878800705D5606813
:100AB000A96820F44040084360602878C00605D546
:100AC0006068696920F48000084360600020DBE70B
:100AD0000010024000700040400442422DE9F047FF
:100AE0000F46050061D0434E306800F00700B84261
:100AF00009D2306820F0070038433060306800F0D9
:100B00000700B84251D128683B4C810712D54007F5
:100B100003D5606840F4E06060602878000703D582
:100B2000606840F4605060606068A96820F0F00080
:100B3000084360602878C00728D06868012810D072
:100B40002168022810D0890700292EDA616821F077
:100B5000030101436160FFF71FFE804641F28839BF
:100B60000DE021688903EFE78901EDE7FFF714FE47
:100B7000A0EB0801494502D90320BDE8F087606871
:100B8000696800F00C00B0EB810FEFD1306800F025
:100B90000700B8420BD9306820F0070038433060B6
:100BA000306800F00700B84201D00120E5E728785E
:100BB000400705D56068E96820F4E060084360609C
:100BC0002878000706D56068296920F4605040EA5B
:100BD000C100606000F058F86168084AC1F3031171
:100BE000515CC8400649086006480068FFF7F4FDFC
:100BF0000020C2E70020024000100240283E00080A
:100C000010000020080000200F2202600C4A5368E8
:100C100003F003034360536803F0F00383605368F9
:100C200003F4E063C36052684FF4E06303EAD20266
:100C300002610448006800F0070008607047000087
:100C4000001002400020024004480549006849683D
:100C5000044AC1F30221515CC840704710000020D3
:100C600000100240383E0008044805490068496801
:100C7000044AC1F3C221515CC840704710000020F3
:100C800000100240383E00080E4A51680E4801F03C
:100C90000C03042B11D0082B0FD10C48C1F3834354
:100CA000C903C05C0AD55168084AC1F34041921E8D
:100CB000515C054A5043B0FBF1F07047044948438A
:100CC000704700000010024000127A00063E000843
:100CD00000093D002DE9F84F040070D02078C04D88
:100CE000C00749D06868C0F38100012807D0686850
:100CF000C0F38100022809D16868C00306D52868BE
:100D0000800339D560680028E7D035E06068B0F529
:100D1000803F0BD010B1B0F5A02F11D0286820F47F
:100D200080302860286820F4802002E0286840F4A1
:100D300080302860606890B1FFF72EFD06460AE01B
:100D4000286840F480202860F0E700BFFFF724FD0A
:100D5000801B642873D828688003F7D50CE0FFF760
:100D60001BFD064605E000BFFFF716FD801B64284B
:100D7000F0D828688003F7D420789A4E80074FF087
:100D800001094FF0000839D5686810F00C0F07D042
:100D90006868C0F38100022809D16868C00306D4DE
:100DA0002868800714D52069012808D110E020693F
:100DB000B0B1C6F80090FFF7EFFC074605E00AE186
:100DC000FFF7EAFCC01B0228C4D828688007F7D5C3
:100DD0002868616920F0F80040EAC10028600DE051
:100DE000C6F80080FFF7D8FC074604E0FFF7D4FC04
:100DF000C01B022823D828688007F7D42078000772
:100E00002CD57948A169D9B1C0F80090FFF7C4FC8E
:100E1000074604E0FFF7C0FCC01B02280FD8686A31
:100E20008007F7D571484FF4FA510068B0FBF1F034
:100E3000009000BF0098411E0091FAD20EE080E0C1
:100E4000C0F80080FFF7A8FC074604E0FFF7A4FC09
:100E5000C01B022875D8686A8007F7D4207840073D
:100E600060D5E8690027C00008D4E86940F08050E8
:100E7000E861E869012700F0805000905C48016853
:100E8000C90513D40168834641F480710160FFF7FE
:100E900083FC824606E000BFFFF77EFCA0EB0A0061
:100EA00064284ED8DBF80000C005F5D5E0680128BD
:100EB0000AD008B1052813D0286A20F00100286262
:100EC000286A20F0040002E0286A40F0010028624D
:100ED000E06841F2883B98B1FFF75EFC82460BE088
:100EE000286A40F004002862EEE700BFFFF754FCD8
:100EF000A0EB0A0159455AD8286A8007F6D50CE0BC
:100F0000FFF74AFC824605E0FFF746FCA0EB0A012A
:100F100059454CD8286A8007F6D41FB1E86920F0FB
:100F20008050E861E06988B36968C1F381010229F2
:100F300044D00228C6F8608004D0FFF72DFC044698
:100F400038E034E0FFF728FC074604E0FFF724FC14
:100F5000C01B02282BD828688001F7D4206AB0F57E
:100F6000803F05D16868A16820F4003008436860BC
:100F7000D4E908010843696821F4741108436860E2
:100F8000C6F86090FFF708FC044606E025E000BFC5
:100F9000FFF702FC001B022809D828688001F7D55A
:100FA0001BE000BFFFF7F8FB001B022802D903205B
:100FB000BDE8F88F28688001F4D40EE00128F7D04E
:100FC0006868226A00F48031914204D1616A00F4B9
:100FD0007010884201D00120EAE70020E8E7000015
:100FE00000100240000042428004424210000020F3
:100FF0000070004070B5040003D0607C002610B182
:1010000005E0012070BD2674204600F03DF8022066
:101010006074204600F052F8042550BB204601F0D1
:101020008DFA30BB2068416821F007014160A0685B
:1010300020B11448016821F0010101601148001F2E
:101040000168A26821F46071114301606068411C6D
:1010500004D10120FFF770FC58B1401E2268C0F394
:1010600003419160216880B2C860204601F080FA97
:1010700008B16574C5E7E67301206073A0736074FE
:10108000002070BD306C004008B5006808498842F7
:101090000DD1FFF74BFC0748C16941F00061C16108
:1010A000C069054900F0006000900120086008BD9B
:1010B00000280040001002403C04424270B5040089
:1010C0000AD02068416821F008014160FFF764FB05
:1010D00005464FF47A7608E0012070BDFFF75CFB0F
:1010E000401BB04201D9032070BD20684068000752
:1010F000F4D5002070BD7047704710B590F83C20C3
:10110000012A22D0012280F83C20CA688C6822F48F
:10111000407222434C6822F4806222430C6822F41D
:10112000006222430C6922F4805222434C6922F46B
:1011300000522243C969002322F480420A43016815
:101140004A6480F83C30002010BD022010BD000031
:1011500070B590F83C20012A2CD0012480F83C4046
:10116000022280F83D2003685A689D6822F07006CC
:101170000A6832435A60104B02689A420ED00F4BF5
:101180009A420BD0B2F1804F08D00D4B9A4205D055
:101190000C4B9A4202D00C4B9A4204D1496825F07C
:1011A00080031943916080F83D40002180F83C1095
:1011B000084670BD022070BD002C01400034014083
:1011C0000004004000080040000C004010B504007E
:1011D00003D094F83D0010B107E0012010BD0020BD
:1011E00084F83C00204600F01FF8022084F83D00FF
:1011F000211D206801F0EAFA012084F8460084F8F5
:101200003E0084F83F0084F8400084F8410084F8F0
:10121000420084F8430084F8440084F8450084F8D0
:101220003D00002010BD000008B5154A01681548B2
:1012300091420ED1816941F400618161806900228F
:1012400000F40060009005211920FFF73DFB1920F4
:1012500010E00D4A914211D1C16941F01001C16104
:10126000C069002200F01000009005213620FFF731
:101270002BFB3620BDE80840FFF718BB08BD000077
:10128000002C0140001002400010004090F83D107A
:10129000012901D001207047022180F83D1000682B
:1012A0000E4988420ED00E4988420BD0B0F1804FD3
:1012B00008D00C49884205D00B49884202D00B491E
:1012C000884204D1816801F00701062903D0016832
:1012D00041F001010160002070470000002C014036
:1012E000003401400004004000080040000C0040B1
:1012F00090F83D10012901D001207047022180F8AB
:101300003D100168CA6842F00102CA6000680E49D7
:1013100088420ED00D4988420BD0B0F1804F08D0E2
:101320000B49884205D00B49884202D00A498842BD
:1013300004D1816801F00701062903D0016841F05A
:101340000101016000207047002C01400034014081
:101350000004004000080040000C004070B5044646
:1013600090F83C000025012817D0012684F83C6045
:10137000022084F83D002068826822F0770222F47F
:101380007F4282600868502838D00DDC20284FD07A
:1013900005DC90B3102811D14AE0022070BD30283E
:1013A00046D040280AD13BE060282FD070280DD0CD
:1013B000B0F5805F03D0B0F5005F12D0012584F84E
:1013C0003D60002084F83C00284670BDCB68D1E920
:1013D0000121206801F04DFA2068816841F0770111
:1013E00009E0CB68D1E90121206801F042FA2068C8
:1013F000816841F480418160E1E719E0CA68496889
:10140000206801F00BFB5021206806E0CA6849689B
:10141000206801F014FB6021206801F034FACEE767
:10142000CA684968206801F0F9FA40212068F4E7A9
:10143000226801461046F0E72DE9F0410D46040010
:1014400003D094F83D0018B108E00120BDE8F08118
:10145000002084F83C00204600F040F8022084F888
:101460003D002068816844F2070291438160211D9C
:10147000206801F0ABF9226890689169166A2B68C0
:10148000AF69034340F20330814341EA0721A86872
:10149000EF6908434FF6FC418843E96840EA0720BA
:1014A000014328692F6A000140EA07300843696850
:1014B0006D6926F0220646EA0515294393602268E5
:1014C000906154F8460B0162012004F81F09E07591
:1014D0002076E0762077A0750020B7E730B585B09C
:1014E0000024009401940294039400683F49404B07
:1014F000404DB0F1804F15D03F4CC022A04243D1A7
:10150000C86940F00200C861C86900F00200049098
:10151000886940F0040088618869009200F0040046
:1015200004905FE0C86940F00100C861C86900F03C
:1015300001000490886940F004008861886900F027
:1015400004000490886940F0080088618869694651
:1015500000F0080004904FF4004000901846FFF798
:1015600019F80820CDE90004694628460294FFF7DF
:1015700011F82248416821F4407141F0E06141F4E2
:101580008071416005B030BD1D4CA04215D1C869C5
:1015900040F00400C861C86900F004000490886944
:1015A00040F0080088618869694600F008000490EE
:1015B00000922846FEF7EEFFE4E7124A9042E1D19E
:1015C000C86940F00800C861C86900F008000490CC
:1015D000886940F004008861886900F00400049084
:1015E0000320009069461846E4E70000001002401E
:1015F00000080140000C01400004004000000140D0
:1016000000080040000C004070B590F83E600446B1
:1016100090F83F5090F8423090F84320022021B1DA
:1016200004290ED0012E1BD114E0012E18D1012B5C
:1016300016D184F83E0084F842000122002120687F
:1016400020E0012D0CD1012A0AD184F83F0084F852
:10165000430014E0012D03D1012B01D1012A01D057
:10166000012070BD84F83E0084F83F0084F84200F9
:1016700084F8430001220021206801F0EDF80122E6
:101680000421206801F0E8F82068016841F00101B8
:101690000160002070BD704770B5044600680169A4
:1016A0004FF00005C943890715D4C168C9438907AC
:1016B00011D4E91E0161012020772068806980072C
:1016C000204602D0FFF7E7FF04E000F0CBF8204609
:1016D00000F05DF9257720680169C943490717D4EF
:1016E000C168C943490713D46FF0040101610220A6
:1016F00020772068806910F4407F204602D0FFF7F1
:10170000CAFF04E000F0AEF8204600F040F925776B
:1017100020680169C943090716D4C168C94309078C
:1017200012D46FF008010161042020772068C0699D
:101730008007204602D0FFF7AEFF04E000F092F8E9
:10174000204600F024F9257720680169C943C906BD
:1017500017D4C168C943C90613D46FF010010161E1
:10176000082020772068C06910F4407F204602D00E
:10177000FFF791FF04E000F075F8204600F007F94C
:10178000257720680169C943C90708D1C168C943E1
:10179000C90704D1891E0161204600F053F9206871
:1017A0000169C943090609D4C168C943090605D4BA
:1017B0006FF0800101612046FFF79DFC2068016900
:1017C000C943490609D4C168C943490605D46FF025
:1017D00040010161204600F053F920680169C943C6
:1017E00089060BD4C168C943890607D46FF020016C
:1017F00001612046BDE87040FFF77EBC70BD00006F
:1018000000B585B00021009101910291039100681B
:10181000104988421BD11048816941F04001816123
:101820008069694600F0400004904FF4D440009075
:101830000220019003900948FEF7ACFE0848416879
:1018400021F0C00141F0E06141F0C001416005B00C
:1018500000BD0000002C01400010024000180140B3
:1018600000000140704770B5044690F83C00002627
:101870000D4601280FD0012084F83C006AB1042AEB
:101880001DD0082A2FD00C2A3FD00126002084F832
:101890003C00304670BD022070BD206800F0FCFFA7
:1018A0002068816941F0080181612068816921F027
:1018B00004018161206881692A69114311E020686F
:1018C00001F01AF82068816941F4006181612068A3
:1018D000816921F480618161206881692A6941EA16
:1018E00002218161D2E7206801F03CF82068C169DB
:1018F00041F00801C1612068C16921F00401C161A2
:101900002068C1692A69114311E0206801F05EF87E
:101910002068C16941F40061C1612068C16921F496
:101920008061C1612068C1692A6941EA0221C161FF
:10193000ACE710B5040003D094F83D0010B107E007
:10194000012010BD002084F83C00204600F01EF865
:10195000022084F83D00211D206800F037FF01209F
:1019600084F8460084F83E0084F83F0084F8400084
:1019700084F8410084F8420084F8430084F844006D
:1019800084F8450084F83D00002010BD7047704782
:1019900010B50446022249B104290ED0082913D0FB
:1019A00094F84100012816D0012010BD94F83E00A3
:1019B0000128F9D184F83E200FE094F83F00012877
:1019C000F2D184F83F2008E094F840000128EBD1E0
:1019D00084F8402001E084F841200122206800F0D2
:1019E0003BFF13492068134A884201D0904203D13B
:1019F000436C43F400434364206888420DD0904216
:101A00000BD0B0F1804F08D00B49884205D00B496C
:101A1000884202D00A49884204D1816801F0070156
:101A2000062903D0016841F001010160002010BDCA
:101A3000002C014000340140000400400008004038
:101A4000000C004010B5044600680A49884201D1E4
:101A5000FEF7A8FE08492068884201D101F098F9F4
:101A600006492068884203D1BDE8104000F0CABD95
:101A700010BD00000034014000100040002C014067
:101A80007047704770470000F8B501680446086861
:101A9000CA684B6910F00F0F4FF0000559D003F0E2
:101AA000010602F49077374365D0C10705D0D10510
:101AB00003D5616C41F001016164410705D5D90787
:101AC00003D0616C41F002016164810705D5D9073B
:101AD00003D0616C41F004016164010707D502F095
:101AE0002001314303D0616C41F008016164616CF5
:101AF00000293AD0800604D5900602D5204600F091
:101B0000E6FF20684069616CC0F38010090700D4CB
:101B100060B3204600F0B4FF20684069400621D53C
:101B20002068143050E8001F21F0400140E8001206
:101B3000002AF5D1E06BA8B16D494163E06BFEF777
:101B400091FC002811D0E06B416B01B0BDE8F04082
:101B5000084783060FD593060DD52046BDE8F8400B
:101B600000F0B5BF2046FFF78DFFF8BD2046FFF718
:101B700089FF6564F8BD266B2023012E7CD1C60643
:101B80007AD5D60678D508684868009048694FF03D
:101B90000206400640D5E16B086840680004000C6E
:101BA000E8D0A28D8242E5D9E085886920282DD031
:101BB00020680C3050E8001F21F4807140E80012CA
:101BC000002AF5D12068143050E8001F21F00101EF
:101BD00040E80012002AF5D12068143050E8001FB8
:101BE00021F0400140E80012002AF5D184F842308B
:101BF000256320680C3050E8001F21F0100140E8F8
:101C00000012002AF5D1E06BFEF709FC6663A08D97
:101C1000E18D401A81B22AE0A08DE18D401A81B297
:101C2000E08D0028A6D00029A4D022680C3252E80A
:101C3000000F20F4907042E80007002FF5D12068D3
:101C4000143050E8002F22F0010240E80027002F56
:101C5000F5D184F84230256320680C3050E8002F1D
:101C600022F0100240E80023002BF5D166632046E5
:101C7000FFF707FFF8BDFFE705062BD5150629D5A9
:101C800094F841002128F5D1A068B0F5805F01D11A
:101C90002069B0B1206A411C216221680078486047
:101CA000E08C401E0004000CE084E3D12068C16891
:101CB00021F08001C1602068C16841F04001C1602D
:101CC000D8E7206A0088C0F308004860206A801CBA
:101CD0002062E5E74006CDD55006CBD5CA68204640
:101CE00022F04002CA6084F8413000F0AAF8C1E74F
:101CF000712A000870B5040004D094F84100002552
:101D000010B106E0012070BD84F84050204600F07C
:101D100023F8242084F841002068C16821F4005190
:101D2000C160204600F034FF2068016921F4904131
:101D300001612068416921F02A0141612068C16880
:101D400041F40051C1606564202084F8410084F8AA
:101D500042006563002070BD30B585B0002400945A
:101D6000019402940394304D036830480221032209
:101D7000AB422AD1C36943F40023C361C36903F4AE
:101D800000230493836943F0100383618069284D25
:101D900000F0100004904802CDE90001039269466A
:101DA0002846FEF7F7FBE814CDE90004694628460B
:101DB0000294FEF7EFFB002205213420FEF784FD9C
:101DC0003420FEF773FD05B030BD1A4DAB42FAD199
:101DD000C36943F48023C361C36903F4802304937C
:101DE000836943F0200383618069039200F020003F
:101DF0000490A815CDE900010F4D69462846FEF76D
:101E0000C9FB6815CDE90004694628460294FEF72F
:101E1000C1FB0A48416821F0300141F0E06141F026
:101E200030014160CFE70000004C0040001002404C
:101E30000010014000480040001401400000014033
:101E400070477047FEE700002DE9F047DFF870901B
:101E5000D9F80010081A01F0C8FD1A4E05460C46C4
:101E6000C6E90001D6E9020C2A462346614601F084
:101E7000E5FCC6E90201D6E906230746884628465E
:101E8000214601F0C7FEC6E904014FF033320E4B84
:101E90003846414601F0C0FD0746884600220B4BFC
:101EA0002846214601F0B8FD3A46434601F0C6FCFB
:101EB00001F06CFDC9F83400C6E90654BDE8F087AE
:101EC00074000020981200203333C33F00004440C8
:101ED0002DE9F047DFF87090D9F80410081A01F0E6
:101EE00084FD1A4E05460C46C6E90001D6E9020CEF
:101EF0002A462346614601F0A1FCC6E90201D6E963
:101F00000623074688462846214601F083FEC6E997
:101F100004014FF033320E4B3846414601F07CFD50
:101F20000746884600220B4B2846214601F074FDE7
:101F30003A46434601F082FC01F028FDC9F838001A
:101F4000C6E90654BDE8F08774000020B8120020EE
:101F50003333C33F000044402DE9F047DFF8709071
:101F6000D9F80810081A01F040FD1A4E05460C4633
:101F7000C6E90001D6E9020C2A462346614601F073
:101F80005DFCC6E90201D6E90623074688462846D5
:101F9000214601F03FFEC6E904014FF033320E4BFB
:101FA0003846414601F038FD0746884600220B4B73
:101FB0002846214601F030FD3A46434601F03EFCFA
:101FC00001F0E4FCC9F83C00C6E90654BDE8F0871E
:101FD00074000020D81200203333C33F0000444077
:101FE0002DE9F047DFF87490D9F80C10081A01F0C9
:101FF000FCFC1B4E05460C46C6E90001D6E9020C66
:102000002A462346614601F019FCC6E9020107464B
:10201000A6F140008846D0E906232846214601F073
:10202000F9FDC6E904014FF033320E4B3846414604
:1020300001F0F2FC0746884600220B4B2846214659
:1020400001F0EAFC3A46434601F0F8FB01F09EFC41
:10205000C9F84000C6E90654BDE8F08774000020C6
:10206000F81200203333C33F0000444030B5174816
:1020700085B0816941F040018161816901F04001D1
:102080000491816941F0080181618069202400F098
:10209000080004900120CDE9004002200C4D03907F
:1020A00069462846FEF776FA002220212846FEF7E8
:1020B0006DFB0094074C69462046FEF76BFA002240
:1020C00020212046FEF762FB05B030BD0010024023
:1020D000000C01400018014000B587B01C220649E1
:1020E0006846FEF7DFF80021684600F027FE034946
:1020F000086007B000BD0000E83D000800000020B7
:1021000030B585B0002428480094019402940394CB
:10211000816941F040018161816901F040010491D0
:10212000816941F010018161816901F01001049120
:10213000816941F004018161816901F00401049128
:10214000816941F020018161816901F020010491E0
:10215000816941F480718161816901F48071049128
:10216000816941F0080181618069104D00F008002B
:1021700004900022FF212846FEF708FBFF20009074
:102180000120CDE901040220039069462846FEF7AC
:1021900001FA4FF4C070CDE9000469460448029486
:1021A000FEF7F8F905B030BD0010024000180140FC
:1021B000002001400A4810B5084901604FF0FF3186
:1021C00041604FF480718160FEF714FF002803D056
:1021D000BDE81040FEF721B910BD00000028004006
:1021E0000C03002010B596B000240F9410941194A5
:1021F000129413941C2168461494FEF785F820214C
:1022000007A8FEF781F835483349016041F61F41C0
:10221000C0E9011442F20F71C0E903148021C0E942
:102220000541FEF7D3FF08B1FEF7F7F84FF48050F1
:102230000F900FA92948FFF791F808B1FEF7EDF8C4
:102240002648FFF776FB08B1FEF7E7F8139413A9C9
:1022500022481494FEF77CFF08B1FEF7DEF86020F8
:10226000CDE9000402940394049405940022694685
:102270001A480694FFF7F7FA08B1FEF7CEF80422E1
:1022800069461648FFF7EFFA08B1FEF7C6F80822CC
:1022900069461248FFF7E7FA08B1FEF7BEF80C22CC
:1022A00069460E48FFF7DFFA08B1FEF7B6F8079463
:1022B000089409944FF400500A94CDE90B4007A903
:1022C00006480E94FEF719FF08B1FEF7A6F803487A
:1022D000FFF796FA16B010BD002C01402003002035
:1022E00010B58CB024216846FEF70EF8002415487E
:1022F00009944FF080410A94C0E900144FF6FF7131
:10230000C0E90241046184610320CDE90004012099
:10231000CDE902040494CDE90540079469460948D3
:102320000894FFF789F808B1FEF777F8099409A92E
:1023300004480A94FEF70CFF002801D0FEF76DF860
:102340000CB010BD6803002010B58CB02421684685
:10235000FDF7DAFF00241548099413490A94C0E9EF
:1023600000144FF6FF71C0E902410461846101204D
:10237000CDE90004CDE902040494CDE905400794B9
:1023800069460A480894FFF757F808B1FEF745F880
:10239000099409A905480A94FEF7DAFE002801D03D
:1023A000FEF73BF80CB010BD00040040B003002065
:1023B00010B58CB024216846FDF7A6FF002415480F
:1023C000099413490A94C0E900144FF6FF71C0E95B
:1023D0000241046184610120CDE90004CDE90204D9
:1023E0000494CDE90540079469460A480894FFF72C
:1023F00023F808B1FEF711F8099409A905480A94D1
:10240000FEF7A6FE002801D0FEF707F80CB010BDBD
:1024100000080040F803002010B58CB02421684665
:10242000FDF772FF00241548099413490A94C0E986
:1024300000144FF6FF71C0E902410461846101207C
:10244000CDE90004CDE902040494CDE905400794E8
:1024500069460A480894FEF7EFFF08B1FDF7DDFF73
:10246000099409A905480A94FEF772FE002801D0D4
:10247000FDF7D3FF0CB010BD000C0040400400205D
:102480001CB500240F4800940D490194016041F6E9
:102490001F41C0E901146321C16080218161FEF701
:1024A00095FE08B1FDF7B9FF00946946054801940F
:1024B000FEF74EFE002801D0FDF7AFFF1CBD000067
:1024C00000100040880400200C4810B50A49016043
:1024D0004FF4E1314160002181600C22C160C0E90C
:1024E00004128161C161FFF705FC002803D0BDE83B
:1024F0001040FDF792BF10BD004C0040D0040020FA
:102500000C4810B50A4901604FF416514160002192
:1025100081600C22C160C0E904128161C161FFF7D2
:10252000E9FB002803D0BDE81040FDF776BF10BDE1
:102530000048004018050020FEE7FEE770B504469D
:10254000FEF72AF905464FF47A7606E0FEF724F9FD
:10255000401BB04201D9032070BD2068406880064E
:10256000F4D52068416841F010014160002070BD41
:1025700070B504460068416821F010014160FEF723
:102580000BF905464FF47A7607E000BFFEF704F931
:10259000401BB04201D9032070BD2068406880060E
:1025A000F4D5002070BD000000214CF2503202280A
:1025B00007D0032810D0042815D0052819D00020F2
:1025C00070474FF08043586A904203DD586AA0F587
:1025D0006A40603859627047074B05E01868A0F5FB
:1025E0006A40603803E0054B18689042F6DC1960D9
:1025F0007047034BF8E70000240400402408004023
:10260000240C004070B5344D344C686A002806DD57
:10261000002201212046FEF7B9F8012205E001223F
:1026200011462046FEF7B2F8002202212046FEF7AE
:10263000ADF8A86A002806DD002204212046FEF736
:10264000A5F8012205E0012204212046FEF79EF8AC
:10265000002208212046FEF799F8E86A002806DDE6
:10266000002210212046FEF791F8012205E0012208
:1026700010212046FEF78AF8002220212046FEF78E
:1026800085F8286B002806DD002240212046FEF751
:102690007DF8012205E0012240212046FEF776F870
:1026A000002280212046FEF771F8686A00F02BFBBB
:1026B0000B490A685063A86A00F025FB0A6890631A
:1026C000E86A00F020FB0A68D063286B00F01BFB6F
:1026D0000968086470BD0000740000200018014003
:1026E0002003002028231A461946184600F0B2FDA0
:1026F000052000F017FBF5E710B5502080F3118896
:10270000BFF34F8FBFF36F8F00F0C6FF18B10449BE
:102710004FF080500860002080F3118810BD000049
:1027200004ED00E070B596B028216846FDF7ECFD99
:1027300014210AA8FDF7E8FD18210FA8FDF7E4FD14
:102740000124052000250090CDE902544FF480308B
:10275000019002260494CDE907604FF4E01009903F
:102760006846FEF7B7FA08B172B6FEE70F20CDE96A
:102770000A064FF48060CDE90C5002210AA80E959C
:10278000FEF7ACF908B172B6FEE74FF48070CDE900
:102790000F400FA8FEF72CF9002801D072B6FEE713
:1027A00016B070BD704700000148FEF775BF00000D
:1027B000200300200148FEF76FBF000088040020BE
:1027C0000148FEF769BF000060050020F0B502680F
:1027D0001C4B1D4D1D4E1E4F1E4C4FF0804C984201
:1027E00009D0A04207D0604505D0A84203D0B0422E
:1027F00001D0B84204D122F0700E4A6842EA0E02BB
:10280000984209D0A04207D0604505D0A84203D025
:10281000B04201D0B84203D122F44075CA682A43BD
:102820004D6922F080022A4302608A68C2620A6807
:102830008262984201D0A04201D10969016301215D
:102840004161F0BD002C0140000400400008004040
:10285000000C00400034014010B501F01F030121BD
:10286000046A99408C430462016A9A4011430162F0
:1028700010BD10B5846842EA032224F47F440A4361
:102880002243826010BD826822F070020A4342F047
:102890000701816070470000F0B5036A026A22F008
:1028A0000102026242688469124E24F073050C68CA
:1028B0002C4323F002058B682B430D4DA84201D019
:1028C000B04205D123F00807CB683B4323F0040353
:1028D000A84201D0B04205D14D6922F4407215439F
:1028E0008A692A4342608461496841630362F0BD9A
:1028F000002C014000340140F0B5026A036A23F065
:1029000010030362436884690D6824F4E64444EAD2
:1029100005248D6822F0200242EA05120F4D104E68
:10292000A84201D0B04206D1CF6822F0800242EA2C
:10293000071222F04002A84201D0B04207D14D69EF
:1029400023F4406343EA85038D6943EA85034360CA
:102950008461496881630262F0BD0000002C01407F
:1029600000340140F0B5026A036A23F48073036205
:102970004368C46922F4007224F073050C68124E97
:102980002C438D6842EA05220E4DA84201D0B04288
:1029900006D1CF6822F4006242EA072222F4806264
:1029A000A84201D0B04207D14D6923F4405343EA15
:1029B00005138D6943EA05134360C4614968C16327
:1029C0000262F0BD002C01400034014030B5046AC1
:1029D000026A22F4805202624268C3690D6823F4DD
:1029E000E64343EA05238D6824F4005444EA0534A1
:1029F000084DA84202D0084DA84204D14D6922F4E6
:102A0000804242EA85124260C361496801640462FF
:102A100030BD0000002C01400034014010B5036AB5
:102A2000046A24F001040462846924F0F00444EA96
:102A3000021423F00A020A438461026210BD10B539
:102A4000036A046A24F010040462846923F0A0037A
:102A500024F4704444EA023243EA011182610162C3
:102A600010BD00000148FFF70FB80000D00400209F
:102A700010B5406A0021C185C184FFF703F810BD7D
:102A800001680C3151E8002F22F4907241E80023D4
:102A9000002BF5D10168143151E8002F22F001021A
:102AA00041E80023002BF5D1016B012909D1016810
:102AB0000C3151E8002F22F0100241E80023002BD6
:102AC000F5D1202180F8421000210163704708B53C
:102AD00090F84210222901D0022008BD82684FF4EC
:102AE00080539A4201D1016921B1816A9A421BD077
:102AF0004AB10AE00268816A5268C2F308020A8099
:102B0000816A891C08E0026972B10268526802F0A9
:102B10007F020A70816A491C8162C18D491E0904C5
:102B2000090CC18503D01BE002685268F1E7016817
:102B3000CA6822F02002CA600168CA6822F4807262
:102B4000CA6001684A6922F001024A61202180F8C6
:102B5000421000214163026B012A03D0FFF770F994
:102B6000002008BD016301680C3151E8002F22F0FC
:102B7000100241E80023002BF5D101680A68D20653
:102B800002D50A6849680091818DFEF77AFFE7E770
:102B900070B5044600680169E26821F440511143B0
:102BA00001612169A0680843616908432168CA6816
:102BB00041F20C639A430243CA6020684169A269EA
:102BC00021F44071114341611E492068884202D1BD
:102BD000FEF74AF801E0FEF737F800EBC00101EB21
:102BE0000012606864218000B2FBF0F3B3FBF1F3E4
:102BF0006FF018067343B2FBF0F5B2FBF0F605EB8D
:102C00008305322303EB0515B5FBF1F5B6FBF1F6B1
:102C100005F0F00505EB0615B2FBF0F6B2FBF0F09F
:102C2000B0FBF1F06FF01802504306EB800003EBAD
:102C30000010B0FBF1F0216800F00F00284488601C
:102C400070BD000000380140FEE70907090E0028AA
:102C500004DB00F1E02080F80014704700F00F0062
:102C600000F1E02080F8141D7047000010B5FDF75A
:102C7000B1FBFFF7FBF900F04BF800F0F3FA042189
:102C80000948FEF7C1FC04210848FEF7BDFC0421F9
:102C90000748FEF7B9FC04210648FEF7B5FCBDE87D
:102CA00010400548FEF724BB68030020B003002055
:102CB000F80300204004002088040020FDF77AFD7E
:102CC000FFF730FDFFF71CFAFFF774FAFFF78AFAF7
:102CD000FFF706FBFFF738FBFFF76AFBFFF79CFBEC
:102CE000FFF7F2FBFFF70CFCFFF7CAFBFFF7BEFF95
:102CF000FFF7F2F900F01DF8FEE7014600208429F5
:102D000000D0C81C7047002800DA4042704700001D
:102D100003480068C16841F01001C16070470000BD
:102D2000D004002010B500B9012000F077FB00208E
:102D300010BD10B500F098FB002010BD7FB50D460A
:102D400004464169B0F9080081B1A16971B1FFF78A
:102D5000D4FFD4E905128DE80700D4E900102B4612
:102D6000226900F06EFC039004B070BDFFF7C5FF50
:102D700003A9CDE90001208A2B4682B2D4E90010D4
:102D800000F032FC012801D00020EDE70398EBE7CA
:102D900010B50220FFF708FC1D4C60610320FFF70F
:102DA00003FCA0610420FFF7FFFBE0610520FFF7B3
:102DB000FBFB206221686069FFF746F8616A0844FE
:102DC00060626168A069FFF783F8A16A0844A062A5
:102DD000A168E069FFF7C0F8E16A0844E062E168D1
:102DE000206AFFF7FDF8216B08442063606A00F059
:102DF00019FD6062A06A00F015FDA062E06A00F0B3
:102E000011FDE062206B00F00DFD206310BD00009D
:102E1000740000202DE9F041184C0F460546666904
:102E20002068001D00F036FA38B9206890F82C10A0
:102E300001208840A1698143A161681C07D137B195
:102E40002168BDE8F0410E48091D00F067BA20680E
:102E50003544B5424560216805D2A068BDE8F0411F
:102E6000091D00F043BA6068091D00F03FFA206BAD
:102E7000854200D22563BDE8F081000014000020E7
:102E8000840600202DE9F041054600F053FA2E4C4F
:102E90002069401C206120682C4F10B1E06940B3CC
:102EA0002DE025602069012829D1002606EB860047
:102EB00007EB800000F00CFA761C072EF6D32348AF
:102EC0008C3000F005FA2148A03000F001FA1F48CC
:102ED000B43000F0FDF91D48C83000F0F9F91B4886
:102EE000DC3000F0F5F919488C3060601430A060D7
:102EF00005E02068E96AC06A884200D82560E06A77
:102F0000401CE062E96A0120A26988401043A06188
:102F100001EB810007EB8000291D00F0FFF900F0B4
:102F200029FAE06900280CD02068E96AC06A884262
:102F300007D207494FF080500860BFF34F8FBFF3AF
:102F40006F8FBDE8F081000014000020A80500206C
:102F500004ED00E010B5044690F8510058B1012886
:102F60000CD002280FD0502080F31188BFF34F8F70
:102F7000BFF36F8FFEE7206B00F010FA2046BDE82C
:102F8000104000F00BBA10BD10484FF440614207EA
:102F900006D0C01D0D4920F00700411AC1F540615F
:102FA0000B4A00230144C2E900030839103A21F01A
:102FB000070111604B600B600B1AC0E900139360AE
:102FC0004FF000405360D06070470000980600202A
:102FD00060000020144E154CA6F1C8074FF0805831
:102FE000DFF84C9012E000BF00F0A4F9F068C5686B
:102FF000281D00F04FF92069401E2061E068401E46
:10300000E06000F0B7F92846FFF7A4FFE068002869
:10301000EAD138680128F9D9C9F80080BFF34F8F89
:10302000BFF36F8FF2E7000070060020140000204D
:1030300004ED00E02DE9F0479A46DDE90984814678
:103040006FF00303206B03EB82021044089D20F015
:103050000706700707D0502080F31188BFF34F8F09
:10306000BFF36F8FFEE723180A5C83F834200A5CF5
:1030700012B1401C1028F6D3002784F84370072DA6
:1030800000D30625E562C4E91157201D00F02BF995
:1030900004F1180000F027F92461C5F1070064620B
:1030A000A061E76484F8507052464946304600F00B
:1030B000BFF82060B8F1000F01D0C8F80040BDE8AB
:1030C000F087000030B5114900E011460A688242DD
:1030D000FBD34B685C18844203D1406818444860B5
:1030E000084643681C18944209D1084C103C2468D7
:1030F000A24209D052681A4442600A68126802600B
:10310000814200D0086030BD0460F9E76000002013
:1031100006484168096829B14168C968C9684968B1
:10312000016370474FF0FF31FAE700001400002000
:1031300008484068401C4FF0500080F3118804D0CC
:10314000BFF34F8FBFF36F8FFEE7BFF34F8FBFF318
:103150006F8FFEE7680000202DE9F041054600274B
:1031600000F0B8F9314E306808B9FFF70DFFF0688C
:1031700005424BD1C5B3083568070ED005F00700EE
:10318000C0F108000544680707D0502080F311887B
:10319000BFF34F8FBFF36F8FFEE72DB3706885428B
:1031A00034D82248103001460C6801E020460C4615
:1031B0006168A94202D221680029F7D131688C42A6
:1031C00024D007682168016060680837411B102916
:1031D0000FD96019420708D0502080F31188BFF33F
:1031E0004F8FBFF36F8FFEE710E041606560FFF720
:1031F00069FF61687068401A7060B268904200D2DE
:10320000B060F06801430020C4E9000100F0A8FAB2
:10321000780707D0502080F31188BFF34F8FBFF39A
:103220006F8FFEE73846BDE8F081000050000020B7
:1032300010B5031F4FF080741C601B1F21F00101AB
:103240001960191F024B0B60143940380A6010BD19
:103250003131000810B5024C84E80F0010BD0000A9
:103260007400002010B50A48FEF710F80021084845
:10327000FEF78EFB04210648FEF78AFB082104486E
:10328000FEF786FBBDE810400C210148FEF780BB2D
:1032900020030020D0E9013201699A60D0E90123BE
:1032A0005A604A68824201D182684A600022026103
:1032B0000868401E0860086870470000034B036000
:1032C00003F154000860802010607047B8000020AF
:1032D00000F108014FF0FF32C0E90112C160016145
:1032E00000210160704700210161704730B50B6813
:1032F0005A1C02D000F1080202E0026904E02246F2
:10330000546825689D42FAD953684B6099608A6079
:10331000516008610168491C016030BD42684A6023
:1033200093688B6093685960916008610168491CDB
:1033300001607047502080F31188BFF34F8FBFF3B7
:103340006F8F0A494868401C486001280CD1084822
:10335000006810F0FF0F07D0502080F31188BFF3F2
:103360004F8FBFF36F8FFEE77047000068000020AB
:1033700004ED00E00849486828B1401E486001D1CA
:1033800080F311887047502080F31188BFF34F8F6E
:10339000BFF36F8FFEE700006800002070B50028C3
:1033A00027D0144DA0F108046168E868014207D1F4
:1033B000502080F31188BFF34F8FBFF36F8FFEE76C
:1033C00022683AB1502080F31188BFF34F8FBFF3CA
:1033D0006F8FFEE78143616000F07CF86068696888
:1033E000084468602046FFF76DFEBDE8704000F0BD
:1033F000B7B970BD500000204FF0E02000210161FE
:10340000816105494FF47A720968B1FBF2F1491EF6
:1034100041610721016170471000002010B50200D2
:1034200014D00F48806B38B1502080F31188BFF35F
:103430004F8FBFF36F8FFEE700F04CF8002110466E
:10344000FFF7E8FC00F08CF9002807D105494FF0A0
:1034500080500860BFF34F8FBFF36F8F10BD000027
:103460001400002004ED00E010B586B000240394A1
:1034700005AA04A903A80494FFF720FFDDE90301CE
:103480000094CDE9011000230EA11048059A00F028
:10349000D8F80F490028486311D0502080F31188D4
:1034A000BFF34F8FBFF36F8F4FF0FF3008630120E2
:1034B000C8614C6106B0BDE8104000F041B806B0EC
:1034C00010BD000049444C4500000000D52F000805
:1034D000140000200248816B491C81637047000082
:1034E000140000201448816B11B101214162704722
:1034F000002141628169B1FA81F1C1F11F0101EB43
:1035000081020E4951F822306BB101EB820101F1C9
:1035100008034A6852684A609A4201D152684A6078
:10352000D16801607047502080F31188BFF34F8F3E
:10353000BFF36F8FFEE7000014000020A8050020F5
:103540001CB5264908780190FF20087008788DF88E
:1035500000009DF800009DF8002000F0F00090426F
:1035600007D0502080F31188BFF34F8FBFF36F8FC8
:10357000FEE79DF800001A4B00F05000187007207D
:10358000986005E09DF8002052008DF80020401E54
:103590009DF800201206F5D49860032807D050202B
:1035A00080F31188BFF34F8FBFF36F8FFEE74FF4A7
:1035B00040709860019808700A48016841F47001F1
:1035C0000160016841F070410160FFF715FF0020C4
:1035D0005860FCF70DFE00201CBD000000E400E078
:1035E0006800002020ED00E02DE9FF5F8346DDE963
:1035F0000E87994616468A469000FFF7ADFD0500F6
:103600001CD05420FFF7A8FD040014D0002025632F
:1036100084F85100CDE90240CDE900874B4632469F
:1036200051465846FFF706FD2046FFF72BFC0120C8
:1036300004B0BDE8F09F2846FFF7B0FE4FF0FF3022
:10364000F6E7F0B585B0DDE90B640A9DA6B1DCB103
:10365000542700972663022684F85160002604AFA1
:10366000CDE90246CDE90057FFF7E4FC2046FFF71D
:1036700009FC049805B0F0BD502080F31188BFF319
:103680004F8FBFF36F8FFEE7502080F31188BFF399
:103690004F8FBFF36F8FFEE72DE9F0412E4C0027CF
:1036A000A06B40B1206A401C2062606A00B1012713
:1036B0003846BDE8F0816669761C666113D16068A2
:1036C000006838B1502080F31188BFF34F8FBFF3EB
:1036D0006F8FFEE76068A1686160A060A06A401C0F
:1036E000A062FFF715FD206BDFF87080864209D3DA
:1036F0006068006880B16068C068C56868688642B4
:103700000DD220632068C06A00EB800158F82100C8
:103710000128CAD90127C8E74FF0FF30F1E7281D7B
:10372000FFF7B8FDA86A18B105F11800FFF7B2FD60
:10373000E86A0121A26981401143A16100EB800187
:1037400008EB8100291DFFF7E9FDE86A2168C96AD5
:103750008842CDD30127CBE714000020A805002024
:103760002DE9F0472C4D00242746A86B38B1FFF710
:10377000E1FDA86B401EA863A86B40B146E0502055
:1037800080F31188BFF34F8FBFF36F8FFEE7296976
:10379000224E0120D1B3A6F1B40980463068E8B1C9
:1037A000F068C46804F11800FFF774FD201DFFF7EE
:1037B00071FDE06AAA6908FA00F11143A96100EB02
:1037C000800109EB8100211DFFF7A8FDE06A29684F
:1037D000C96A8842E2D3C5F82480DFE70CB1FFF75D
:1037E00097FC2C6A44B14646FFF756FF00B16E6263
:1037F000641EF9D100202862686A38B1084901279F
:1038000038070860BFF34F8FBFF36F8FFFF7B2FD2C
:103810003846BDE8F0870000140000205C06002058
:1038200004ED00E0044909694A42904200DA10467A
:10383000884200DD084670477400002010B591EA08
:10384000030F48BF83F0004300F1EC81841A71EB51
:10385000030C05D2121943EB0C03001B61EB0C01A6
:10386000DFF824E14FEA1154A4EB135C1EEA430F86
:1038700018BF9EEA445F73D023EA0E03DCF1200EEA
:1038800021EA045143F4801332D322FA0CFE10EBE8
:103890000E0023FA0CFE41EB0E01CCF1200E03FAD0
:1038A0000EFE10EB0E0051F10001B1F5801FCCF1BE
:1038B000200E32D201EB045112FA0EF2BDE8104094
:1038C00058BF7047401C38BF5FEA420218BF7047BC
:1038D000002814BF20F0010041F100014FEA41032C
:1038E00013F5001F38BF7047A1F1C04100F08CB93B
:1038F000012A43EB0302ACF1200CDCF11F0E32BFB6
:103900004FF0000E23FA0CF310EB030041EB0451CF
:10391000B4EB115FD0D0A1EB045101F5801149083F
:103920005FEA300001EB04510ED350F1000038BFC4
:1039300012FA0EFE08D1BDE81040C9E7401C38BF9E
:103940005FEA4202CAD1C3E7BDE810404FEA410333
:1039500013F5001F38BF7047A1F1C04100F054B902
:103960009EEA445F08D011EA5E0FBDE8104004BF34
:1039700001F0004100207047BDE8104070B500F034
:10398000F5F800BF64FBBE3E0000E0FF4FEA4103D4
:103990004FEA5353A3F58063D3F11E03C8BFD3F19D
:1039A000210C0CDD4FF0004242EAC12242EA5052A3
:1039B00032FA03FC8CEAE17CACEBE1707047102B2F
:1039C000C4BF0020704703F5787CBCF1FF3F04D0F2
:1039D0006FF0004282EA2100704770B500F0C6F82F
:1039E0004992248000207047F2E710F0004248BF5F
:1039F0004042B0FA80F310FA03F10AD0C3F11D037C
:103A000003F580634FEA415002EB035202EBD121F0
:103A100070474FF000007047DFF848C170B51CEAEE
:103A2000111E1EBF1CEA13159EEA0C0F95EA0C0F1F
:103A300000F06F8081EA030423EA4C134EEAD47E3F
:103A400021EA4C1141F4801143F48013AE44A1FBF0
:103A5000024CA0FB0365AEF17F7E361955EB0C05D9
:103A6000A1FB034C4CF10003A0FB021C16EB0C065F
:103A7000654153F10003094218BF46F0010613F4F3
:103A8000007F0BD14FEA03314FEA0530340341EA9E
:103A9000155140EA16506FF003020AE04FEAC321C5
:103AA0004FEAC520F40241EA555140EA56506FF002
:103AB000020202EB2E4201EB025585EACE710AD0DA
:103AC0005FEA440C18BF24F0004450F1000041F1BB
:103AD000000120EAD47040F2FE7C624500D270BD45
:103AE000A84214BF4FF080444FF04044002E08BF5E
:103AF0000024BEF1806FA8BFA1F1C041BDE87040B5
:103B000080F282804FF0000001F1C04101F00041DD
:103B100070479EEA0C0F0CEA131518BF95EA0C0FBC
:103B200006D04FF0000081EA030E0EF0004170BD98
:103B300000F01CF88900013E00F007B800F009B859
:103B40004FEA430C5FEA5C5C08D081EA030100F0B5
:103B50005BB84FEA410C5FEA5C5CF6D14FF00000C5
:103B6000014970470000FF070000F87F0EF1020EC8
:103B70002EF0030E5EF8046B364205D4012A43EBA7
:103B8000030515F5001F12D8012841EB010C1CF5A7
:103B9000001F0CD80ED14FEAD17C15F5001F0CEB9D
:103BA0004C0C0CF1020C08BF4CEBD37C04E04FF042
:103BB000080C01E04FEAD37C0CEB4C0526FA05F625
:103BC00006F00706B6F1040C06D20EEB860CBDE833
:103BD00070404CF0010C6047DFE80CF0090B02026A
:103BE0004FF000414FF00000A1F5002170BD1946D3
:103BF0001046012851EB010418BFD4F5001484BF0E
:103C0000002001F0004170BD0808A0F500114FEA46
:103C10003101704710B591EA030F48BF83F00043AC
:103C20003FF514AE841A71EB030C07D212198CF015
:103C3000004C43EB0C03001B61EB0C01DFF8A4E12B
:103C40004FEA1154A4EB135C1EEA430F18BF9EEA1F
:103C5000445F00F0B08023EA6E03524221EA04512F
:103C6000C3EB6E0338BF5B1EDCF1200E25D322FAB6
:103C70000CFE10EB0E0043FA0CFE41EB0E01CCF1F2
:103C8000200E03FA0EFE10EB0E0051F10001CCF1F4
:103C9000200E29D412FA0EF201EB0451BDE81040B7
:103CA00058BF7047401C1CBFB2F1004F704700283E
:103CB0000CBF491C20F00100704712EB020E43EBD1
:103CC000030218BF4FF0010E4EEA4202ACF1200C85
:103CD000DCF11E0E54D943FA0CFE10EB0E0051F12C
:103CE000FF31CCF11E0ED5D50EF1010E12FA0EFEEB
:103CF000404141EB010101EB445C5FEA5C5C10D99F
:103D000010EBDE7001EB045138BFBEF1004FBDE88F
:103D1000104018BF704700280CBF491C20F001005C
:103D2000704730D24FEAD42C11F5001124F400640E
:103D30001BD0B1FA81F20B3AA41AA41ED2F12003CF
:103D4000914030FA03F31943904001EBCC71002C01
:103D500001EB0451BDE81040A8BF704701F1C0411C
:103D60004FF0000001F000417047B0FA80F310FA04
:103D700003F100D110BDE41A173C4805C90AE4E775
:103D800001EB045110BD491001EB0451BDE8104096
:103D90004FEA300002E04FF0000170474A0008BFD0
:103DA0000042F8D0B2F5001F28BF704701F0004173
:103DB0004FF0000070479EEA445F07D011EA5E0FA3
:103DC000BDE8104004BF002100207047BDE810404E
:103DD00070B5FFF7CBFE00BF40DFF63E83F0004139
:103DE000104670470000E0FF403E0008E52600084E
:103DF0000000000000000000800000000000000043
:103E000000000000010202030405060708090A0B6E
:103E10000C0D0E0F1010010202030405060708091D
:103E20000A0B0C0D0E0F1010000000000000000027
:103E30000102030406070809000000000102030450
:103E400064656661756C745461736B006C3E000848
:103E500000000020B80000006C010008243F0008AA
:103E6000B8000020201900008801000800000000B0
:103E70000100000010000000000000000024F40019
:103E80000000000000000000000000000000000032
:103E90000000000000000000000000000000000022
:103EA0000000000000000000000000000000000012
:103EB0000000000000000000000000000000000002
:103EC00000000000000000000000000000000000F2
:103ED0000000000000000000AAAAAAAA000000003A
:103EE00000000000000000000000000000000000D2
:103EF0002823000000000000000000000000000077
:103F000000000000000000000000000000000000B1
:103F100000000000000000000000000000000000A1
:043F2000000000009D
:0400000508000131BD
:00000001FF
