:020000040800F2
:10000000A80400204901000857100008AF0E00089E
:1000100055100008B50100081B140008000000007E
:100020000000000000000000000000005B1000085D
:10003000B701000800000000591000085D1000081A
:100040006301000863010008630100086301000800
:1000500063010008630100086301000863010008F0
:1000600063010008630100086301000863010008E0
:1000700063010008630100086301000863010008D0
:1000800063010008630100086301000863010008C0
:1000900063010008630100086301000863010008B0
:1000A00063010008630100086301000863010008A0
:1000B0006301000863010008630100086301000890
:1000C0006301000863010008630100086301000880
:1000D0006301000863010008630100086301000870
:1000E0006301000863010008630100086301000860
:1000F0006301000863010008630100086301000850
:10010000630100086301000863010008630100083F
:10011000630100086301000863010008630100082F
:10012000630100086301000863010008630100081F
:10013000DFF810D000F02CF800480047A5140008A4
:10014000AFF30080A8040020064880470648004717
:10015000FEE7FEE7FEE7FEE7FEE7FEE7FEE7FEE777
:10016000FEE7FEE7BD10000831010008D2B201E051
:1001700000F8012B491EFBD270470022F6E710B5AC
:1001800013460A4604461946FFF7F0FF204610BD05
:10019000064C074D06E0E06840F0010394E80700D4
:1001A00098471034AC42F6D3FFF7C6FF2816000874
:1001B00048160008FEE7704772B6FEE770B50446C1
:1001C00000F00CF90546601C02D004480078044495
:1001D00000F004F9401BA042FAD370BD00000020DB
:1001E0002DE9F84FDFF8C0910024A9F1040B234654
:1001F0004FF00F0809F1040AABF1040ECCE001271F
:10020000A7403A40BA4272D1DFF8A0C14D68A5EBD1
:100210000C0665452BD00DDC032D34D005DC35B341
:10022000012D19D0022D2FD11BE0112D16D0122D2A
:100230002AD119E0B6F5881F19D006DCB6F5803F43
:1002400015D0B6F5801F1FD111E0B6F5001F0ED0F6
:10025000B6F5041F18D10AE0CB6815E0CB681B1D6A
:1002600012E0CB6808330FE0CB680C330CE08B68EE
:100270002BB1012B4FF0080303D0476104E00423A6
:1002800002E0076100E00023FF2A01D8064601E0F2
:1002900000F104064FEA840501D9A5F1200537686D
:1002A00008FA05FC27EA0C0703FA05F547EA0507F3
:1002B00037604D68ED006ED53D4DAE6946F00106E4
:1002C000AE61AD6924F0030605F001050095394DD6
:1002D0007719BE68A5072D0F08FA05FC26EA0C065B
:1002E000DFF8D4C0604503D14FF0000C25E052E0A8
:1002F000DFF8C8C0604502D14FF0010C1DE0DFF807
:10030000C0C0604502D14FF0020C16E0DFF8B4C067
:10031000604502D14FF0030C0FE0DFF8ACC0604540
:1003200002D14FF0040C08E0DFF8A0C0604502D114
:100330004FF0050C01E04FF0060C0CFA05FC4CEAFE
:10034000060CC7F808C04D68D9F80060ED024D46AC
:1003500001D5164300E096432E604D68DAF8006040
:10036000AD02554601D5164300E096432E604D6818
:10037000DBF80060AD035D4601D5164300E096430F
:100380002E604D68DEF80060ED03754601D516431A
:1003900000E096432E60641C0A6832FA04F57FF48C
:1003A0002EAFBDE8F88F00000804014000001110D6
:1003B000001002400000014000080140000C014014
:1003C000001001400014014000180140001C0140D1
:1003D0000AB1016170470904FBE700000148806829
:1003E0007047000000000020024881680278114434
:1003F0008160704700000020074810B5016841F097
:1004000010010160032000F067F80F2000F006F8EB
:1004100000F024F8002010BD0020024070B50D4D02
:1004200004464FF47A712878B1FBF0F00A49096864
:10043000B1FBF0F000F0D0FA48B9102C07D200223E
:100440002146501E00F028F800206C6070BD01208D
:1004500070BD0000000000200C0000200C4808B512
:10046000816941F001018161816901F0010100911F
:10047000C16941F08051C161C069064900F08050F6
:100480000090486820F0E06040F00070486008BDCF
:100490000010024000000140F0B40E4B1B68C3F393
:1004A0000223C3F10704042C00D904241D1D072DC9
:1004B00001D2002300E0DB1E012606FA04F56D1EC2
:1004C0000D409D409E40761E164045EA0601F0BC58
:1004D00000F0ACBF0CED00E0064A00F00701106828
:1004E0004FF6FF03184040EA01200349084310601B
:1004F000704700000CED00E00000FA052DE9F04720
:100500000D46040067D0DFF81881D8F8000000F02D
:100510000700A8420CD2D8F8001021F007012943A7
:10052000C8F80010D8F8000000F00700A84252D127
:1005300020683C4E810712D5400703D5706840F40F
:10054000E06070602078000703D5706840F4605068
:1005500070607068A16820F0F00008437060207837
:10056000C00727D06068012810D03168022810D059
:10057000890700292FDA716821F0030101437160B6
:10058000FFF72CFF074641F288390CE031688903F8
:10059000EFE78901EDE7FFF721FFC11B494502D9CC
:1005A0000320BDE8F0877068616800F00C00B0EBD4
:1005B000810FF0D1D8F80010404601F00701A942A0
:1005C0000BD9016821F0070129430160006800F0A0
:1005D0000700A84201D00120E3E72078400705D5B5
:1005E0007068E16820F4E0600843706020780007DC
:1005F00006D57068216920F4605040EAC10070603F
:1006000000F038F87168084AC1F30311515CC84022
:100610000649086006480068FFF700FF0020C0E7B1
:1006200000200240001002400E1600080C000020BE
:10063000040000200448054900684968044AC1F3E1
:100640000221515CC84070470C000020001002409D
:100650001E1600080448054900684968044AC1F3A9
:10066000C221515CC84070470C00002000100240BD
:100670001E1600080E4B59680E4801F00C02042AA1
:1006800011D0082A0FD10C48C1F38342C903805C02
:100690000AD55968084AC1F34041921E515C054A87
:1006A0005043B0FBF1F070470449484370470000E5
:1006B0000010024000127A00FE15000800093D00FB
:1006C0002DE9F84F04006FD02078BE4DC00747D009
:1006D0006868C0F38100012807D06868C0F3810012
:1006E000022809D16868C00306D52868800337D579
:1006F00060680028E7D033E06068B0F5803F0BD039
:1007000010B1B0F5A02F11D0286820F480302860F7
:10071000286820F4802002E0286840F480302860B7
:10072000606888B1FFF75AFE064609E0286840F481
:1007300080202860F0E7FFF751FE801B642873D803
:1007400028688003F7D50BE0FFF748FE064604E073
:10075000FFF744FE801B6428F1D828688003F7D493
:100760002078DFF8648280074FF0010A4FF000091B
:1007700039D5686810F00C0F07D06868C0F38100A5
:10078000022809D16868C00306D42868800714D5F8
:100790002069012808D110E02069B0B1C8F800A094
:1007A000FFF71CFE064605E007E1FFF717FE801B7A
:1007B0000228C4D828688007F7D52868616920F026
:1007C000F80040EAC10028600DE0C8F80090FFF78B
:1007D00005FE064604E0FFF701FE801B022823D831
:1007E00028688007F7D4207800072CD57748A169BE
:1007F000D9B1C0F800A0FFF7F1FD064604E0FFF70D
:10080000EDFD801B02280FD8686A8007F7D5704875
:100810004FF4FA510068B0FBF1F0009000BF00986F
:10082000411E0091FAD20EE07CE0C0F80090FFF784
:10083000D5FD064604E0FFF7D1FD801B022871D8E4
:10084000686A8007F7D4207840075BD5E8690027FD
:10085000C00008D4E86940F08050E861E8690127E9
:1008600000F0805000905B480168C90511D4016810
:10087000834641F480710160FFF7B0FD064604E055
:10088000FFF7ACFD801B64284CD8DBF80000C005E6
:10089000F6D5E06801280AD008B1052813D0286AE7
:1008A00020F001002862286A20F0040002E0286A93
:1008B00040F001002862E06841F2883B88B1FFF710
:1008C0008DFD064609E0286A40F004002862EEE744
:1008D000FFF784FD811B59455BD8286A8007F7D54F
:1008E0000BE0FFF77BFD064604E0FFF777FD811B79
:1008F00059454ED8286A8007F7D41FB1E86920F01F
:100900008050E861E069A8B36968C1F381010229F8
:1009100046D00228484606D0C8F86000FFF75EFDC2
:10092000044639E035E04746C8F86000FFF756FD59
:10093000064604E0FFF752FD801B022829D82868EC
:100940008001F7D4206AB0F5803F05D16868A168BE
:1009500020F4003008436860D4E90801084369685E
:1009600021F4741108436860C7F860A0FFF736FDF2
:10097000044605E023E0FFF731FD001B022808D8FC
:1009800028688001F7D51AE0FFF728FD001B022830
:1009900002D90320BDE8F88F28688001F4D40EE066
:1009A0000128F7D06868226A00F48031914204D1AE
:1009B000616A00F47010884201D00120EAE700204B
:1009C000E8E700000010024000004242800442427A
:1009D0000C0000200070004010B5401EB0F1807F78
:1009E00001D3012010BD4FF0E02460610F2160179A
:1009F00000F01CFD0020A06107202061002010BD38
:100A000010B590F83C20012A22D0012280F83C2029
:100A1000CA688C6822F4407222434C6822F48062D7
:100A200022430C6822F4006222430C6922F48052B3
:100A300022434C6922F400522243C969002322F464
:100A400080420A4301684A6480F83C30002010BDAF
:100A5000022010BD70B590F83C20012A2CD0012551
:100A600080F83C50022280F83D2002685368946868
:100A700023F070060B6833435360104B02689A42B0
:100A80000ED00F4B9A420BD0B2F1804F08D00D4BD5
:100A90009A4205D00C4B9A4202D00C4B9A4204D198
:100AA000496824F080031943916080F83D5000218B
:100AB00080F83C10084670BD022070BD002C01403B
:100AC000003401400004004000080040000C0040D9
:100AD00000B585B000210091019102910391006859
:100AE000104988421BD11048816941F04001816161
:100AF0008069694600F0400004904FF4D4400090B3
:100B00000220019003900948FFF76AFB08494868F2
:100B100020F0C00040F0E06040F0C000486005B048
:100B200000BD0000002C01400010024000180140F0
:100B30000000014070B5044690F83C0000260D46C8
:100B400001280FD0012084F83C006AB1042A1DD08E
:100B5000082A2FD00C2A3FD00126002084F83C0020
:100B6000304670BD022070BD206800F0FDFA20689C
:100B7000816941F0080181612068816921F00401E7
:100B80008161206881692A69114311E0206800F0C1
:100B90001BFB2068816941F40061816120688169E3
:100BA00021F480618161206881692A6941EA02211A
:100BB0008161D2E7206800F03DFB2068C16941F007
:100BC0000801C1612068C16921F00401C161206888
:100BD000C1692A69114311E0206800F05FFB2068B9
:100BE000C16941F40061C1612068C16921F480617B
:100BF000C1612068C1692A6941EA0221C161ACE78B
:100C000010B5040003D094F83D0010B107E00120B6
:100C100010BD002084F83C00204600F01FF80220A0
:100C200084F83D00211D206800F04AFA012084F874
:100C3000460084F83E0084F83F0084F8400084F8C1
:100C4000410084F8420084F8430084F8440084F8AA
:100C5000450084F83D00002010BD000008B5006884
:100C60000649884208D10648816941F400618161E2
:100C7000806900F40060009008BD0000002C014075
:100C80000010024010B5044649B104290AD00829D1
:100C90000BD094F8410001280AD0012010BD94F82F
:100CA0003E00F8E794F83F00F5E794F84000F2E7DB
:100CB000022081B3042932D0082933D084F84100BE
:100CC0000122206800F042FA184A20681849904230
:100CD00001D0884203D1436C43F40043436420684D
:100CE00090420DD088420BD0B0F1804F08D011490E
:100CF000884205D01049884202D01049884204D168
:100D0000816801F00701062903D0016841F0010163
:100D10000160002010BDFFE784F83E00D0E784F8B2
:100D20003F00CDE784F84000CAE70000002C0140F6
:100D3000003401400004004000080040000C004066
:100D400070B5040004D094F84100002510B106E00D
:100D5000012070BD84F84050204600F023F8242084
:100D600084F841002068C16821F40051C160204628
:100D700000F0BCFA2068016921F49041016120680B
:100D8000416921F02A0141612068C16841F40051A4
:100D9000C1606564202084F8410084F842006563E6
:100DA000002070BD30B585B00024009401940294F9
:100DB000039400681449884223D11448C16941F45E
:100DC0000031C161C16901F400310491816941F0D0
:100DD0000401816180690E4D00F00400049004203C
:100DE0000090022001900320039069462846FFF7F7
:100DF000F7F90820CDE90004694628460294FFF778
:100E0000EFF905B030BD0000004400400010024082
:100E1000000801402DE9F843044690F841001F46C0
:100E200015460E46202802D00220BDE8F8837EB188
:100E300075B100206064212084F84100FFF7CEFAEC
:100E4000A5848046E584A068B0F5805F02D003E009
:100E50000120EAE7206910B1354600260EE00025A2
:100E60000CE08021204600F09DFAA0B9ADB115F844
:100E7000010B21684860E08C401EE084E08C434612
:100E80004FF0000200970028EBD14FF040012046C0
:100E900000F088FA30B10320C7E736F8020BC0F340
:100EA0000800E6E7202084F841000020BDE7FEE7C7
:100EB0002DE9F04186B0002420480094019402946A
:100EC0000394816941F040018161816901F0400131
:100ED0000491816941F004018161816901F004019B
:100EE0000491816941F0080181618069144F00F02B
:100EF000080004900022FF213846FFF769FADFF866
:100F00004480002220214046FFF762FAFF2001259D
:100F10000226CDE90005CDE9024669463846FFF7CD
:100F20005FF92020CDE90005CDE90246694640463B
:100F3000FFF756F906B0BDE8F0810000001002404E
:100F400000180140000C014010B592B000240F942D
:100F50001C2168461094FFF710F9202107A8FFF71D
:100F60000CF92D482B49016040F29F51C0E9011452
:100F70006321C0E903148021C0E90541FFF740FE69
:100F800008B1FFF719F90F940FA923481094FFF740
:100F900061FD08B1FFF710F9602000903220CDE923
:100FA0000104039404940594002269461A480694A7
:100FB000FFF7C0FD08B1FFF7FFF8042269461648A5
:100FC000FFF7B8FD08B1FFF7F7F8082269461248A5
:100FD000FFF7B0FD08B1FFF7EFF80C2269460E48A5
:100FE000FFF7A8FD08B1FFF7E7F807940894099404
:100FF0004FF400500A94CDE90B4007A906480E941F
:10100000FFF7FEFC08B1FFF7D7F80348FFF760FDD4
:1010100012B010BD002C0140140000200C4810B587
:101020000A4901604FF4E1314160002181600C22E6
:10103000C160C0E904128161C161FFF781FE00282F
:1010400003D0BDE81040FFF7B7B810BD0044004022
:101050005C000020FEE7FEE770477047FFF7C4B969
:1010600030B58FB028216846FFF787F814210AA809
:10107000FFF783F80120010400248DE81300049099
:101080004FF4E010CDE90810022507956846FFF7F8
:1010900017FB08B172B6FEE70F20CDE90A054FF441
:1010A0008060CDE90C4002210AA80E94FFF726FAD1
:1010B000002801D072B6FEE70FB030BD70470000C7
:1010C000F0B502681C4D1D4E1D4FDFF878C01E4B59
:1010D0004FF0804EA84209D0984207D0704505D005
:1010E000B04203D0B84201D0604503D122F0700471
:1010F0004A682243A84209D0984207D0704505D0DB
:10110000B04203D0B84201D0604503D122F440740C
:10111000CA6822434C6922F08002224302608A6836
:10112000C2620A688262A84201D0984201D109696C
:10113000016301214161F0BD002C01400004004029
:1011400000080040000C00400034014010B501F0E0
:101150001F010123046A8B409C430462036A8A4096
:101160001343036210BD0000F0B5026A036A23F066
:101170000103036243688469114E24F073050C680F
:10118000104F2C4322F002058A682A43B04201D056
:10119000B84205D122F00805CA682A4322F00402A9
:1011A000B04201D0B84205D14D6923F440731D43CC
:1011B0008B692B4343608461496841630262F0BDDF
:1011C000002C014000340140F0B5026A036A23F0AC
:1011D00010030362436884690D6824F4E64444EA1A
:1011E00005248D6822F0200242EA05120F4D104EB0
:1011F000A84201D0B04206D1CF6822F0800242EA74
:10120000071222F04002A84201D0B04207D14D6936
:1012100023F4406343EA85038D6943EA8503436011
:101220008461496881630262F0BD0000002C0140C6
:1012300000340140F0B5026A036A23F4807303624C
:101240004368C46922F4007224F073050C68124EDE
:101250002C438D6842EA05220E4DA84201D0B042CF
:1012600006D1CF6822F4006242EA072222F48062AB
:10127000A84201D0B04207D14D6923F4405343EA5C
:1012800005138D6943EA05134360C4614968C1636E
:101290000262F0BD002C01400034014030B5036A09
:1012A000026A22F4805202624268C4690D6824F422
:1012B000E64444EA05248D6823F4005343EA0533E9
:1012C000084DA84202D0084DA84204D14D6922F42D
:1012D000804242EA85124260C46149680164036247
:1012E00030BD0000002C01400034014070B50446C0
:1012F00000680169E26821F4405111430161A1686D
:1013000020690143606901432068C26841F20C63AF
:101310009A430A43C26020684169A26921F440717E
:10132000114341611E492068884202D1FFF792F9BA
:1013300001E0FFF77FF900EBC00101EB00116068ED
:1013400064228000B1FBF0F3B3FBF2F36FF01806F8
:101350007343B1FBF0F5B1FBF0F605EB83053223E7
:1013600003EB0515B5FBF2F5B6FBF2F605F0F0055B
:1013700005EB0615B1FBF0F6B1FBF0F0B0FBF2F0B7
:101380006FF01801484306EB800003EB0010B0FB40
:10139000F2F0216800F00F002844886070BD000062
:1013A000003801402DE9F0411E46174688460446A4
:1013B000069D26E0681C24D025B1FFF70FF8801B9E
:1013C000A8421ED920680C3050E8001F21F4D071CB
:1013D00040E80012002AF5D12068143050E8001FC0
:1013E00021F0010140E80012002AF5D1202084F804
:1013F000410084F84200002084F840000320BDE84A
:10140000F0812068016838EA010004D00020B84269
:10141000D0D00020F3E70120F9E7FEE7014A0249B6
:1014200000F023B88D140008100000200907090EF1
:10143000002804DB00F1E02080F80014704700F081
:101440000F0000F1E02080F8141D704702E008C88A
:10145000121F08C1002AFAD170477047002001E02E
:1014600001C1121F002AFBD170472DE9F041164639
:101470000F460446002503E03946B047641C6D1C46
:1014800020780028F8D12846BDE8F08113B54FF642
:10149000FF73012269460248FFF7BCFC00981CBD9F
:1014A0005C000020FEF7A8FFFFF7DAFDFFF700FD64
:1014B000FFF7B4FDFFF748FD00F020F84FF4FA7491
:1014C0006FF0270528231A461946184600F02CF815
:1014D0002046FEF773FE2B461A462846114600F0BA
:1014E00023F803A0FFF79AFF2046FEF767FEE9E71F
:1014F000BCB0C4E3CCABC3C00D0A000010B50021E2
:101500000848FFF7BFFB04210648FFF7BBFB082193
:101510000448FFF7B7FBBDE810400C210148FFF776
:10152000B1BB000014000020F0B500250126314CAD
:101530006FF06207002807DB632800DD6320C4F832
:101540008061C4F8845106E0B84200DA3846C4F835
:101550008051C4F88461002800DC4042DFF898C064
:10156000DCF800E0CEF83400002907DB632900DD59
:101570006321C4F88861C4F88C5106E0B94200DAEE
:101580003946C4F88851C4F88C61002900DC49420E
:10159000DCF800008163002A07DB632A00DD632298
:1015A000C4F89061C4F8945106E0BA4200DA3A46B1
:1015B000C4F89051C4F89461002A00DC5242DCF86F
:1015C0000000C263002B07DB632B00DD6323C4F83C
:1015D0009861C4F89C5106E0BB4200DA3B46C4F86F
:1015E0009851C4F89C61002B00DC5B42DCF80000E1
:1015F0000364F0BD00002342140000200102020336
:101600000405060708090A0B0C0D0E0F1010000048
:1016100000000000000001020304060708090000A2
:10162000000001020304000048160008000000202A
:10163000140000004C1400085C1600081400002080
:10164000940400005C140008010000001000000079
:0C165000000000000024F4000000000076
:0400000508000131BD
:00000001FF
