:020000040800F2
:100000008818002065020008F31C000899180008F1
:10001000F11C0008CF030008D121000800000000F7
:10002000000000000000000000000000CD010008FA
:10003000D10300080000000011020008C51D0008DF
:100040007F0200087F0200087F0200087F0200088C
:100050007F0200087F0200087F0200087F0200087C
:100060007F0200087F0200087F0200087F0200086C
:100070007F0200087F0200087F0200087F0200085C
:100080007F0200087F0200087F0200087F0200084C
:100090007F0200087F0200087F0200087F0200083C
:1000A0007F0200087F0200087F0200087F0200082C
:1000B0007F0200087F0200087F0200087F0200081C
:1000C0007F0200087F0200087F0200087F0200080C
:1000D0007F0200087F0200087F0200087F020008FC
:1000E0007F0200087F0200087F0200087F020008EC
:1000F000751E00087F0200087F0200087F020008CA
:100100007F0200087F0200087F0200087F020008CB
:100110007F0200087F0200087F0200087F020008BB
:100120007F0200087F0200087F0200087F020008AB
:1001300000F002F800F03AF80AA090E8000C8244BF
:100140008344AAF10107DA4501D100F02FF8AFF29C
:10015000090EBAE80F0013F0010F18BFFB1A43F0A5
:1001600001031847FC2B00001C2C0000103A24BF90
:1001700078C878C1FAD8520724BF30C830C144BF0C
:1001800004680C607047000000230024002500264E
:10019000103A28BF78C1FBD8520728BF30C148BFEA
:1001A0000B6070471FB51FBD10B510BD00F0D6F82D
:1001B0001146FFF7F7FF02F01DF800F0F4F803B462
:1001C000FFF7F2FF03BC00F0FBF80000224B1968B8
:1001D0000868B0E8F00F80F30988BFF36F8F4FF025
:1001E000000080F311884EF00D0E704700000000F3
:1001F00006480068006880F3088862B661B6BFF3FD
:100200004F8FBFF36F8F00DF00BF00BF08ED00E02E
:10021000EFF30980BFF36F8F0F4B1A6820E9F00FDF
:10022000106008B54FF0500080F31188BFF34F8F76
:10023000BFF36F8F02F086FB4FF0000080F3118850
:10024000BDE8084019680868B0E8F00F80F3098835
:10025000BFF36F8F704700BF2C000020EFF30580C5
:10026000704700000948804709480047FEE7FEE75D
:10027000FEE7FEE7FEE7FEE7FEE7FEE7FEE7FEE756
:1002800004480549054A064B70470000711E0008E6
:1002900031010008881200208818002088140020EE
:1002A0008814002010B5203AC0F00B80B1E8185037
:1002B000203AA0E81850B1E81850A0E81850BFF450
:1002C000F5AF5FEA027C24BFB1E81850A0E81850EF
:1002D00044BF18C918C0BDE810405FEA827C24BF43
:1002E00051F8043B40F8043B08BF7047D20728BFD1
:1002F00031F8023B48BF11F8012B28BF20F8023B20
:1003000048BF00F8012B70474FF0000200B51346BC
:1003100094469646203922BFA0E80C50A0E80C5025
:10032000B1F12001BFF4F7AF090728BFA0E80C50D6
:1003300048BF0CC05DF804EB890028BF40F8042BCF
:1003400008BF704748BF20F8022B11F0804F18BF3C
:1003500000F8012B7047704770477047754600F0F2
:100360002BF8AE4605006946534620F00700854647
:1003700018B020B5FFF784FFBDE820404FF000061D
:100380004FF000074FF000084FF0000B21F007017D
:10039000AC46ACE8C009ACE8C009ACE8C009ACE8C0
:1003A000C0098D46704710B50446AFF30080204663
:1003B000BDE81040FFF703BF00487047241200203B
:1003C00001491820ABBEFEE7260002007047FEE799
:1003D000704772B6FEE700002DE9F84FDFF8C891CC
:1003E0000024A9F1040B23460F2709F1040AABF1FD
:1003F000040ED1E00125A54006EA0502AA4276D105
:10040000DFF8A8C14E68A6EB0C0866452BD00DDCC2
:10041000032E34D005DC36B3012E19D0022E2FD195
:100420001BE0112E16D0122E2AD119E0B8F5881F24
:1004300019D006DCB8F5803F15D0B8F5801F1FD164
:1004400011E0B8F5001F0ED0B8F5041F18D10AE06E
:10045000CB6815E0CB681B1D12E0CB6808330FE0BA
:10046000CB680C330CE08B682BB1012B4FF00803E9
:1004700003D0456104E0042302E0056100E00023AD
:10048000FF2A01D8064601E000F104064FEA840580
:1004900001D9A5F12005D6F8008007FA05FC28EA65
:1004A0000C0803FA05F548EA0508C6F800804D680F
:1004B000ED0070D53E4DAE6946F00106AE61AD6906
:1004C00024F0030605F0010500953A4D06EB050CF6
:1004D000DCF80850A607360F07FA06F825EA0805E3
:1004E000DFF8D480404503D14FF0000825E052E00A
:1004F000DFF8C880404502D14FF001081DE0DFF869
:10050000C080404502D14FF0020816E0DFF8B48009
:10051000404502D14FF003080FE0DFF8AC804045C2
:1005200002D14FF0040808E0DFF8A080404502D176
:100530004FF0050801E04FF0060808FA06F848EA0F
:100540000508CCF808804D68D9F80060ED024D46EA
:1005500001D5164300E096432E604D68DAF800603E
:10056000AD02554601D5164300E096432E604D6816
:10057000DBF80060AD035D4601D5164300E096430D
:100580002E604D68DEF80060ED03754601D5164318
:1005900000E096432E60641C0A681646E2407FF431
:1005A00029AFBDE8F88F00000804014000001110D9
:1005B000001002400000014000080140000C014012
:1005C000001001400014014000180140001C0140CF
:1005D0000AB1016170470904FBE700000148806827
:1005E000704700001C000020024881680278114416
:1005F000816070471C000020074810B5016841F079
:1006000010010160032000F0A1F80F2000F006F8AF
:1006100000F04AF8002010BD0020024030B5054629
:100620001C4887B0816941F400518161806906A945
:1006300000F40050009001A800F008FA00F036FA2B
:100640001549164AB0FBF1F11548491E0260416098
:1006500040F2E7320021C0E903218160816100F0AE
:10066000D7FC040012D10E4800F046FD04000DD165
:100670002C2000F03DF8102D07D2002229462C2016
:1006800000F044F80748056000E0012407B0204668
:1006900030BD00000010024040420F000034014015
:1006A000EC040020200000200F4808B5816941F0CB
:1006B00001018161816901F001010091C16941F08D
:1006C0008051C161C069002200F0805000900F216C
:1006D000901E00F01BF80548416821F0E06141F0F0
:1006E0000071416008BD00000010024000000140A0
:1006F000002809DB00F01F02012191404009800021
:1007000000F1E020C0F8001170470000F0B40E4B7B
:100710001B680C46C3F30223C3F10705042D00D95F
:100720000425191D072901D2002300E0DB1E012644
:1007300006FA05F1491E214099409E40761E16405A
:100740003143F0BC01F045BD0CED00E0064900F07E
:10075000070208684FF6FF03184040EA0220034AE8
:1007600010430860704700000CED00E00000FA053F
:10077000014901200862704700000E4210B5014691
:100780000020284C04292FD00BDC012930D002296D
:1007900029D100F08BF96168C1F38131491C49000E
:1007A0001FE0082920D010291DD161682268D201DC
:1007B00019D51D48C1F38342C903805C0AD561681D
:1007C000194AC1F34041921E515C184AB2FBF1F143
:1007D000484301E0164948436168490203D4400098
:1007E0000321B0FBF1F010BDBDE8104000F06EB980
:1007F000226AC2F30121012903D1920701D5C8035E
:1008000010BD022905D1626A920702D549F640401F
:1008100010BD0329FCD121688903F9D54FF224408A
:1008200010BD000000100240082D000800127A00E0
:1008300000093D002DE9F84305460078354CC00716
:1008400054D0E0690026C00008D4E06940F0805030
:10085000E061E069012600F0805000902E480168B8
:10086000C90512D40168804641F480710160FFF728
:10087000B5FE074605E000BFFFF7B0FEC01B6428C9
:1008800023D8D8F80000C005F6D5206A10F44070CF
:1008900021D0A98801F4407181421CD0206A1F49EF
:1008A000012220F440700A6000220A602062C00722
:1008B00011D0FFF793FE074641F2883808E000BFE9
:1008C000FFF78CFEC11B414502D90320BDE8F88328
:1008D000206A8007F4D5206A696820F440700843D4
:1008E00020621EB1E06920F08050E0612878800726
:1008F00005D56068A96820F4404008436060287806
:10090000C00605D56068696920F48000084360600E
:100910000020DBE70010024000700040400442422B
:100920002DE9F0470F46050061D0434E306800F0D6
:100930000700B84209D2306820F007003843306021
:10094000306800F00700B84251D128683B4C81075D
:1009500012D5400703D5606840F4E06060602878F5
:10096000000703D5606840F4605060606068A96863
:1009700020F0F000084360602878C00728D068683D
:10098000012810D02168022810D0890700292EDA0A
:10099000616821F0030101436160FFF71FFE80469B
:1009A00041F288390DE021688903EFE78901EDE71D
:1009B000FFF714FEA0EB0801494502D90320BDE86A
:1009C000F0876068696800F00C00B0EB810FEFD130
:1009D000306800F00700B8420BD9306820F00700FB
:1009E00038433060306800F00700B84201D0012081
:1009F000E5E72878400705D56068E96820F4E060FD
:100A0000084360602878000706D56068296920F4EB
:100A1000605040EAC100606000F058F86168084A20
:100A2000C1F30311515CC8400649086006480068DC
:100A3000FFF7F4FD0020C2E7002002400010024052
:100A4000182D000828000020200000200F2202603E
:100A50000C4A536803F003034360536803F0F00348
:100A60008360536803F4E063C36052684FF4E0634B
:100A700003EAD20202610448006800F0070008603F
:100A80007047000000100240002002400448054961
:100A900000684968044AC1F30221515CC8407047AC
:100AA0002800002000100240282D000804480549B5
:100AB00000684968044AC1F3C221515CC8407047CC
:100AC0002800002000100240282D00080E4A51681E
:100AD0000E4801F00C03042B11D0082B0FD10C4849
:100AE000C1F38343C903C05C0AD55168084AC1F306
:100AF0004041921E515C054A5043B0FBF1F07047F3
:100B000004494843704700000010024000127A0078
:100B1000F62C000800093D002DE9F84F040070D0C4
:100B20002078C04DC00749D06868C0F38100012813
:100B300007D06868C0F38100022809D16868C00343
:100B400006D52868800339D560680028E7D035E0ED
:100B50006068B0F5803F0BD010B1B0F5A02F11D078
:100B6000286820F480302860286820F4802002E083
:100B7000286840F480302860606890B1FFF72EFD4F
:100B800006460AE0286840F480202860F0E700BFAD
:100B9000FFF724FD801B642873D828688003F7D5ED
:100BA0000CE0FFF71BFD064605E000BFFFF716FD52
:100BB000801B6428F0D828688003F7D420789A4EE8
:100BC00080074FF001094FF0000839D5686810F030
:100BD0000C0F07D06868C0F38100022809D168684B
:100BE000C00306D42868800714D52069012808D1DD
:100BF00010E02069B0B1C6F80090FFF7EFFC07469F
:100C000005E00AE1FFF7EAFCC01B0228C4D8286807
:100C10008007F7D52868616920F0F80040EAC10034
:100C200028600DE0C6F80080FFF7D8FC074604E016
:100C3000FFF7D4FCC01B022823D828688007F7D40C
:100C4000207800072CD57948A169D9B1C0F8009067
:100C5000FFF7C4FC074604E0FFF7C0FCC01B0228F6
:100C60000FD8686A8007F7D571484FF4FA510068C9
:100C7000B0FBF1F0009000BF0098411E0091FAD245
:100C80000EE080E0C0F80080FFF7A8FC074604E013
:100C9000FFF7A4FCC01B022875D8686A8007F7D448
:100CA0002078400760D5E8690027C00008D4E869CB
:100CB00040F08050E861E869012700F08050009022
:100CC0005C480168C90513D40168834641F480710A
:100CD0000160FFF783FC824606E000BFFFF77EFC61
:100CE000A0EB0A0064284ED8DBF80000C005F5D55B
:100CF000E06801280AD008B1052813D0286A20F03E
:100D000001002862286A20F0040002E0286A40F00E
:100D100001002862E06841F2883B98B1FFF75EFC71
:100D200082460BE0286A40F004002862EEE700BF2C
:100D3000FFF754FCA0EB0A0159455AD8286A8007EE
:100D4000F6D50CE0FFF74AFC824605E0FFF746FCCB
:100D5000A0EB0A0159454CD8286A8007F6D41FB188
:100D6000E86920F08050E861E06988B36968C1F300
:100D70008101022944D00228C6F8608004D0FFF720
:100D80002DFC044638E034E0FFF728FC074604E079
:100D9000FFF724FCC01B02282BD828688001F7D459
:100DA000206AB0F5803F05D16868A16820F4003062
:100DB00008436860D4E908010843696821F47411A4
:100DC00008436860C6F86090FFF708FC044606E038
:100DD00025E000BFFFF702FC001B022809D82868A5
:100DE0008001F7D51BE000BFFFF7F8FB001B0228CE
:100DF00002D90320BDE8F88F28688001F4D40EE002
:100E00000128F7D06868226A00F48031914204D149
:100E1000616A00F47010884201D00120EAE70020E6
:100E2000E8E7000000100240000042428004424215
:100E3000280000200070004070B5040003D0607CE2
:100E4000002610B105E0012070BD2674204600F098
:100E50003DF802206074204600F052F8042550BB93
:100E6000204600F047FF30BB2068416821F00701B1
:100E70004160A06820B11448016821F001010160BF
:100E80001148001F0168A26821F4607111430160DC
:100E90006068411C04D10120FFF770FC58B1401E6E
:100EA0002268C0F303419160216880B2C860204687
:100EB00000F03AFF08B16574C5E7E673012060737E
:100EC000A0736074002070BD306C004008B50068ED
:100ED000084988420DD1FFF74BFC0748C16941F032
:100EE0000061C161C069054900F000600090012007
:100EF000086008BD00280040001002403C04424247
:100F000070B504000AD02068416821F008014160F2
:100F1000FFF764FB05464FF47A7608E0012070BDC8
:100F2000FFF75CFB401BB04201D9032070BD206875
:100F300040680007F4D5002070BD7047704710B5B9
:100F400090F83C20012A22D0012280F83C20CA6877
:100F50008C6822F4407222434C6822F4806222435F
:100F60000C6822F4006222430C6922F4805222436E
:100F70004C6922F400522243C969002322F48042C2
:100F80000A4301684A6480F83C30002010BD02200A
:100F900010BD000070B590F83C20012A2CD001242F
:100FA00080F83C40022280F83D2003685A689D6822
:100FB00022F070060A6832435A60104B02689A4267
:100FC0000ED00F4B9A420BD0B2F1804F08D00D4B90
:100FD0009A4205D00C4B9A4202D00C4B9A4204D153
:100FE000496825F080031943916080F83D40002155
:100FF00080F83C10084670BD022070BD002C0140F6
:10100000003401400004004000080040000C004093
:1010100010B5040003D094F83D0010B107E00120A2
:1010200010BD002084F83C00204600F01FF802208C
:1010300084F83D00211D206800F022FF012084F883
:10104000460084F83E0084F83F0084F8400084F8AD
:10105000410084F8420084F8430084F8440084F896
:10106000450084F83D00002010BD000008B5006870
:101070000649884208D10648816941F400618161CE
:10108000806900F40060009008BD0000002C014061
:101090000010024090F83D10012901D00120704756
:1010A000022180F83D1000680E4988420ED00E499A
:1010B00088420BD0B0F1804F08D00C49884205D04F
:1010C0000B49884202D00B49884204D1816801F063
:1010D0000701062903D0016841F0010101600020E9
:1010E00070470000002C0140003401400004004023
:1010F00000080040000C004090F83D10012901D08C
:1011000001207047022180F83D100168CA6842F052
:101110000102CA6000680E4988420ED00D4988421B
:101120000BD0B0F1804F08D00B49884205D00B4955
:10113000884202D00A49884204D1816801F007013F
:10114000062903D0016841F00101016000207047C9
:10115000002C014000340140000400400008004021
:10116000000C004070B5044690F83C0000250128B2
:1011700017D0012684F83C60022084F83D002068E6
:10118000826822F0770222F47F4282600868502849
:1011900038D00DDC20284FD005DC90B3102811D1B9
:1011A0004AE0022070BD302846D040280AD13BE0FA
:1011B00060282FD070280DD0B0F5805F03D0B0F537
:1011C000005F12D0012584F83D60002084F83C00C7
:1011D000284670BDCB68D1E90121206800F0A3FE4C
:1011E0002068816841F0770109E0CB68D1E90121ED
:1011F000206800F098FE2068816841F48041816099
:10120000E1E719E0CA684968206800F061FF5021F1
:10121000206806E0CA684968206800F06AFF60211B
:10122000206800F08AFECEE7CA684968206800F0AE
:101230004FFF40212068F4E7226801461046F0E79E
:101240002DE9F0410D46040003D094F83D0018B19B
:1012500008E00120BDE8F081002084F83C00204631
:1012600000F040F8022084F83D002068816844F2D4
:10127000070291438160211D206800F001FE226871
:1012800090689169166A2B68AF69034340F2033096
:10129000814341EA0721A868EF6908434FF6FC4102
:1012A0008843E96840EA0720014328692F6A000162
:1012B00040EA0730084369686D6926F0220646EA6D
:1012C0000515294393602268906154F8460B01622A
:1012D000012004F81F09E0752076E0762077A075DC
:1012E0000020B7E730B585B0002400940194029443
:1012F000039400683F49404B404DB0F1804F15D0FA
:101300003F4CC022A04243D1C86940F00200C861EE
:10131000C86900F002000490886940F00400886108
:101320008869009200F0040004905FE0C86940F012
:101330000100C861C86900F001000490886940F0AC
:1013400004008861886900F004000490886940F016
:10135000080088618869694600F0080004904FF42D
:10136000004000901846FFF737F80820CDE9000448
:10137000694628460294FFF72FF82248416821F475
:10138000407141F0E06141F48071416005B030BDD1
:101390001D4CA04215D1C86940F00400C861C8695D
:1013A00000F004000490886940F0080088618869B2
:1013B000694600F00800049000922846FFF70CF8F8
:1013C000E4E7124A9042E1D1C86940F00800C861E0
:1013D000C86900F008000490886940F00400886142
:1013E000886900F0040004900320009069461846C4
:1013F000E4E700000010024000080140000C01403A
:10140000000400400000014000080040000C0040C3
:10141000704770B50446006801694FF00005C94384
:10142000890715D4C168C943890711D4E91E016130
:1014300001202077206880698007204602D0FFF7CE
:10144000E7FF04E000F0F3F8204600F01FF92577ED
:1014500020680169C943490717D4C168C9434907CE
:1014600013D46FF0040101610220207720688069A5
:1014700010F4407F204602D0FFF7CAFF04E000F0DE
:10148000D6F8204600F002F9257720680169C943A3
:10149000090716D4C168C943090712D46FF00801BF
:1014A0000161042020772068C0698007204602D0AF
:1014B000FFF7AEFF04E000F0BAF8204600F0E6F8CF
:1014C000257720680169C943C90617D4C168C94393
:1014D000C90613D46FF0100101610820207720683D
:1014E000C06910F4407F204602D0FFF791FF04E06E
:1014F00000F09DF8204600F0C9F8257720680169C2
:10150000C943C90708D1C168C943C90704D1891EA5
:101510000161204600F016F920680169C9430906F7
:1015200009D4C168C943090605D46FF0800101617F
:101530002046FFF702FD20680169C943490609D426
:10154000C168C943490605D46FF0400101612046D6
:1015500000F002F920680169C94389060BD4C1680B
:10156000C943890607D46FF0200101612046BDE818
:101570007040FFF7E3BC70BD00B585B0002100915D
:101580000191029103910068104988421BD11048D3
:10159000816941F0400181618069694600F0400045
:1015A00004904FF4D4400090022001900390094829
:1015B000FEF712FF0848416821F0C00141F0E061E8
:1015C00041F0C001416005B000BD0000002C0140A9
:1015D00000100240001801400000014070B50446B0
:1015E00090F83C00002501280FD0012084F83C0031
:1015F0006AB1042A0FD0082A11D00C2A13D0012571
:10160000002084F83C00284670BD022070BD206890
:1016100000F09CFCF4E7206800F0C8FCF0E72068CC
:1016200000F0FAFCECE7206800F02AFDE8E77047DC
:1016300010B5040003D094F83D0010B107E001207C
:1016400010BD002084F83C00204600F01EF8022067
:1016500084F83D00211D206800F012FC012084F870
:10166000460084F83E0084F83F0084F8400084F887
:10167000410084F8420084F8430084F8440084F870
:10168000450084F83D00002010BD70477047000001
:1016900010B50446022249B104290ED0082913D0FE
:1016A00094F84100012816D0012010BD94F83E00A6
:1016B0000128F9D184F83E200FE094F83F0001287A
:1016C000F2D184F83F2008E094F840000128EBD1E3
:1016D00084F8402001E084F841200122206800F0D5
:1016E00015FC13492068134A884201D0904203D167
:1016F000436C43F400434364206888420DD0904219
:101700000BD0B0F1804F08D00B49884205D00B496F
:10171000884202D00A49884204D1816801F0070159
:10172000062903D0016841F001010160002010BDCD
:10173000002C01400034014000040040000800403B
:10174000000C004000680349884201D1FEF74CBFFD
:101750007047000000340140704770B5040004D0A9
:1017600094F84100002510B106E0012070BD84F816
:101770004050204600F024F8242084F841002068DE
:10178000C16821F40051C160204600F0C5FC20680A
:10179000016921F4904101612068416921F02A0129
:1017A00041612068C16841F40051C1606564202036
:1017B00084F8410084F842006563002070BD000099
:1017C00030B585B0002400940194029403942C4D0C
:1017D00003682C4802210322AB4222D1C36943F49F
:1017E0000023C361C36903F400230493836943F0B6
:1017F000100383618069244D00F0100004904802BA
:10180000CDE90001039269462846FEF7E5FDE8149C
:10181000CDE90004694628460294FEF7DDFD05B0D7
:1018200030BD1A4DAB42FAD1C36943F48023C36182
:10183000C36903F480230493836943F02003836125
:101840008069039200F020000490A815CDE9000102
:101850000F4D69462846FEF7BFFD6815CDE9000427
:10186000694628460294FEF7B7FD0A48416821F010
:10187000300141F0E06141F030014160CFE700000C
:10188000004C0040001002400010014000480040A1
:101890000014014000000140FEE7000010B59CB0BC
:1018A0001C2216496846FEF7FDFC0021684600F040
:1018B000D7FC134C11491C22A0611C3107A8FEF76C
:1018C000F1FC002107A800F0CBFC0C4960611C2250
:1018D00038310EA8FEF7E6FC00210EA800F0C0FC8F
:1018E000064920611C22543115A8FEF7DBFC0021BB
:1018F00015A800F0B5FCE0601CB010BD842C0008F9
:101900000000002030B585B00024284800940194E0
:1019100002940394816941F040018161816901F081
:1019200040010491816941F010018161816901F0F8
:1019300010010491816941F004018161816901F024
:1019400004010491816941F020018161816901F004
:1019500020010491816941F480718161816901F400
:1019600080710491816941F0080181618069104DA5
:1019700000F0080004900022FF212846FEF728FE10
:10198000FF2000900120CDE9010402200390694668
:101990002846FEF721FD4FF4C070CDE900046946EA
:1019A00004480294FEF718FD05B030BD0010024057
:1019B00000180140002001400A4810B508490160A4
:1019C0004FF0FF3141604FF480718160FFF734FACE
:1019D000002803D0BDE81040FEF7FBBC10BD00009E
:1019E00000280040E002002010B596B000240F94BB
:1019F00010941194129413941C2168461494FEF7C9
:101A000083FC202107A8FEF77FFC3448324901609F
:101A100042F20F71C0E9011441F61F41C0E90314FD
:101A200044618461FFF7F4FA08B1FEF7D2FC4FF489
:101A300080500F900FA92948FFF794FB08B1FEF7DB
:101A4000C8FC2648FFF7F4FD08B1FEF7C2FC13946A
:101A500013A922481494FFF79DFA08B1FEF7B9FCC8
:101A6000009401940294039404940594002269461E
:101A70001A480694FFF7B2FD08B1FEF7AAFC04224B
:101A800069461648FFF7AAFD08B1FEF7A2FC082236
:101A900069461248FFF7A2FD08B1FEF79AFC0C2236
:101AA00069460E48FFF79AFD08B1FEF792FC0794CD
:101AB000089409944FF400500A94CDE90B4007A90B
:101AC00006480E94FFF73BFA08B1FEF782FC034884
:101AD000FFF752FD16B010BD002C0140F4020020AB
:101AE00010B58CB024216846FEF70EFC0024154882
:101AF00009944FF080410A94C0E900144FF6FF7139
:101B0000C0E90241046184610320CDE900040120A1
:101B1000CDE902040494CDE90540079469460948DB
:101B20000894FFF78DFB08B1FEF753FC099409A94F
:101B300004480A94FFF72EFA002801D0FEF749FC6A
:101B40000CB010BD3C03002010B58CB024216846B9
:101B5000FEF7DAFB00241548099413490A94C0E9FA
:101B600000144FF6FF71C0E9024104618461012055
:101B7000CDE90004CDE902040494CDE905400794C1
:101B800069460A480894FFF75BFB08B1FEF721FCA1
:101B9000099409A905480A94FFF7FCF9002801D027
:101BA000FEF717FC0CB010BD0004004084030020B9
:101BB00010B58CB024216846FEF7A6FB002415481A
:101BC000099413490A94C0E900144FF6FF71C0E963
:101BD0000241046184610120CDE90004CDE90204E1
:101BE0000494CDE90540079469460A480894FFF734
:101BF00027FB08B1FEF7EDFB099409A905480A94F3
:101C0000FFF7C8F9002801D0FEF7E3FB0CB010BDC8
:101C100000080040CC03002010B58CB02421684699
:101C2000FEF772FB00241548099413490A94C0E991
:101C300000144FF6FF71C0E9024104618461012084
:101C4000CDE90004CDE902040494CDE905400794F0
:101C500069460A480894FFF7F3FA08B1FEF7B9FBA2
:101C6000099409A905480A94FFF794F9002801D0BE
:101C7000FEF7AFFB0CB010BD000C004014040020B8
:101C80000C4810B50A4901604FF4E1314160002170
:101C900081600C22C160C0E904128161C161FFF75B
:101CA0005CFD002803D0BDE81040FEF792BB10BDDC
:101CB000004C00405C0400200C4810B50A4901604B
:101CC0004FF4E1314160002181600C22C160C0E924
:101CD00004128161C161FFF740FD002803D0BDE817
:101CE0001040FEF776BB10BD00480040A404002061
:101CF000FEE7FEE770B50446FEF770FC05464FF4BC
:101D00007A7606E0FEF76AFC401BB04201D9032058
:101D100070BD206840688006F4D52068416841F0B5
:101D200010014160002070BD70B504460068416834
:101D300021F010014160FEF751FC05464FF47A7620
:101D400007E000BFFEF74AFC401BB04201D9032068
:101D500070BD206840688006F4D5002070BD00008A
:101D6000034C6068401C60600A2000F06DFAF8E7E0
:101D7000000000204FF4FA75064C6E0040F2DC576C
:101D80002560284600F060FA2660284600F05CFADC
:101D90002760F5E7342C0140034C2068401C20608C
:101DA000022000F051FAF8E700000020044C4FF444
:101DB0007A75A068401CA060284600F045FAF8E754
:101DC0000000002010B5502080F31188BFF34F8F22
:101DD000BFF36F8F00F090FE18B104494FF08050B0
:101DE0000860002080F3118810BD000004ED00E0C1
:101DF00070B596B028216846FEF786FA14210AA825
:101E0000FEF782FA18210FA8FEF77EFA01240520BA
:101E100000250090CDE902544FF480300190022655
:101E20000494CDE907604FF4E01009906846FEF78E
:101E300073FE08B172B6FEE70F20CDE90A064FF433
:101E40008060CDE90C5002210AA80E95FEF768FDCE
:101E500008B172B6FEE74FF48070CDE90F400FA8CD
:101E6000FEF7E8FC002801D072B6FEE716B070BDA0
:101E7000704700000148FFF7CCBA0000EC040020D6
:101E8000F0B502681C4B1D4D1D4E1E4F1E4C4FF0F1
:101E9000804C984209D0A04207D0604505D0A842A6
:101EA00003D0B04201D0B84204D122F0700E4A688B
:101EB00042EA0E02984209D0A04207D0604505D000
:101EC000A84203D0B04201D0B84203D122F44075F9
:101ED000CA682A434D6922F080022A4302608A6858
:101EE000C2620A688262984201D0A04201D10969A7
:101EF000016301214161F0BD002C0140000400405C
:101F000000080040000C00400034014010B501F012
:101F10001F030121046A99408C430462016A9A40BC
:101F20001143016210BD10B5846842EA032224F413
:101F30007F440A432243826010BD826822F070020F
:101F40000A4342F00701816070470000F0B5036A60
:101F5000026A22F00102026242688469124E24F091
:101F600073050C682C4323F002058B682B430D4D41
:101F7000A84201D0B04205D123F00807CB683B430B
:101F800023F00403A84201D0B04205D14D6922F4E8
:101F9000407215438A692A434260846149684163FB
:101FA0000362F0BD002C014000340140F0B5026A2C
:101FB000036A23F010030362436884690D6824F404
:101FC000E64444EA05248D6822F0200242EA051224
:101FD0000F4D104EA84201D0B04206D1CF6822F07A
:101FE000800242EA071222F04002A84201D0B04229
:101FF00007D14D6923F4406343EA85038D6943EAC1
:10200000850343608461496881630262F0BD00001A
:10201000002C014000340140F0B5026A036A23F449
:10202000807303624368C46922F4007224F073056C
:102030000C68124E2C438D6842EA05220E4DA842D0
:1020400001D0B04206D1CF6822F4006242EA0722F2
:1020500022F48062A84201D0B04207D14D6923F436
:10206000405343EA05138D6943EA05134360C46195
:102070004968C1630262F0BD002C01400034014098
:1020800030B5046A026A22F4805202624268C3696F
:102090000D6823F4E64343EA05238D6824F40054D5
:1020A00044EA0534084DA84202D0084DA84204D1A4
:1020B0004D6922F4804242EA85124260C361496858
:1020C0000164046230BD0000002C01400034014076
:1020D00010B5036A046A24F001040462846924F0E0
:1020E000F00444EA021423F00A020A438461026203
:1020F00010BD10B5036A046A24F0100404628469F8
:1021000023F0A00324F4704444EA023243EA0111AC
:102110008261016210BD000070B50446006801696B
:10212000E26821F44051114301612169A06808432C
:10213000616908432168CA6841F20C639A4302430B
:10214000CA6020684169A26921F44071114341616C
:102150001E492068884202D1FEF7A8FC01E0FEF784
:1021600095FC00EBC00101EB001260686421800067
:10217000B2FBF0F3B3FBF1F36FF018067343B2FB5D
:10218000F0F5B2FBF0F605EB8305322303EB051502
:10219000B5FBF1F5B6FBF1F605F0F00505EB06151C
:1021A000B2FBF0F6B2FBF0F0B0FBF1F06FF018020A
:1021B000504306EB800003EB0010B0FBF1F0216808
:1021C00000F00F002844886070BD00000038014016
:1021D000FEE70907090E002804DB00F1E02080F883
:1021E0000014704700F00F0000F1E02080F8141D8B
:1021F00070470000FEF700FAFFF7FAFDFFF782FBD9
:10220000FFF7DAFBFFF7F0FBFFF76AFCFFF79CFC38
:10221000FFF7CEFCFFF700FDFFF732FDFFF74CFDA7
:102220000548FEF737FF00210348FFF731FAFFF7B3
:1022300035FB00F010F8FEE7F40200200146002014
:10224000842900D0C81C704710B500B9012000F0E7
:1022500015FB002010BD10B500F036FB002010BDAE
:102260007FB50D4604464169B0F9080081B1A16906
:1022700071B1FFF7E3FFD4E905128DE80700D4E957
:1022800000102B46226900F00CFC039004B070BDD6
:10229000FFF7D4FF03A9CDE90001208A2B4682B2C3
:1022A000D4E9001000F0D0FB012801D00020EDE7B8
:1022B0000398EBE72DE9F041184C0F460546666997
:1022C0002068001D00F016FA38B9206890F82C102C
:1022D00001208840A1698143A161681C07D137B101
:1022E0002168BDE8F0410E48091D00F047BA20689A
:1022F0003544B5424560216805D2A068BDE8F0418B
:10230000091D00F023BA6068091D00F01FFA206B58
:10231000854200D22563BDE8F08100002C0000203A
:10232000100600202DE9F041054600F033FA2E4C4E
:102330002069401C206120682C4F10B1E06940B337
:102340002DE025602069012829D1002606EB8600B2
:1023500007EB800000F0ECF9761C072EF6D323483B
:102360008C3000F0E5F92148A03000F0E1F91F4879
:10237000B43000F0DDF91D48C83000F0D9F91B4831
:10238000DC3000F0D5F919488C3060601430A06062
:1023900005E02068E96AC06A884200D82560E06AE2
:1023A000401CE062E96A0120A26988401043A061F4
:1023B00001EB810007EB8000291D00F0DFF900F040
:1023C00009FAE06900280CD02068E96AC06A8842EE
:1023D00007D207494FF080500860BFF34F8FBFF31B
:1023E0006F8FBDE8F08100002C0000203405002034
:1023F00004ED00E010B5044690F8510058B10128F2
:102400000CD002280FD0502080F31188BFF34F8FDB
:10241000BFF36F8FFEE7206B00F0F0F92046BDE8B8
:10242000104000F0EBB910BD10484FF44061420776
:1024300006D0C01D0D4920F00700411AC1F54061CA
:102440000B4A00230144C2E900030839103A21F085
:10245000070111604B600B600B1AC0E90013936019
:102460004FF000405360D060704700002406002009
:1024700078000020144E154CA6F1C8074FF0805884
:10248000DFF84C9012E000BF00F084F9F068C568F6
:10249000281D00F02FF92069401E2061E068401ED1
:1024A000E06000F097F92846FFF7A4FFE0680028F5
:1024B000EAD138680128F9D9C9F80080BFF34F8FF5
:1024C000BFF36F8FF2E70000FC0500202C00002016
:1024D00004ED00E02DE9F0479A46DDE909848146E4
:1024E0006FF00303206B03EB82021044089D20F081
:1024F0000706700707D0502080F31188BFF34F8F75
:10250000BFF36F8FFEE723180A5C83F834200A5C60
:1025100012B1401C1028F6D3002784F84370072D11
:1025200000D30625E562C4E91157201D00F00BF920
:1025300004F1180000F007F92461C5F10700646296
:10254000A061E76484F8507052464946304600F076
:10255000BFF82060B8F1000F01D0C8F80040BDE816
:10256000F087000030B5114900E011460A68824248
:10257000FBD34B685C18844203D140681844486020
:10258000084643681C18944209D1084C103C246842
:10259000A24209D052681A4442600A681268026076
:1025A000814200D0086030BD0460F9E77800002067
:1025B00006484168096829B14168C968C96849681D
:1025C000016370474FF0FF31FAE700002C00002054
:1025D00008484068401C4FF0500080F3118804D038
:1025E000BFF34F8FBFF36F8FFEE7BFF34F8FBFF384
:1025F0006F8FFEE7800000202DE9F041054600279F
:1026000000F098F9314E306808B9FFF70DFFF06817
:1026100005424BD1C5B3083568070ED005F0070059
:10262000C0F108000544680707D0502080F31188E6
:10263000BFF34F8FBFF36F8FFEE72DB370688542F6
:1026400034D82248103001460C6801E020460C4680
:102650006168A94202D221680029F7D131688C4211
:1026600024D007682168016060680837411B102981
:102670000FD96019420708D0502080F31188BFF3AA
:102680004F8FBFF36F8FFEE710E041606560FFF78B
:1026900069FF61687068401A7060B268904200D249
:1026A000B060F06801430020C4E9000100F088FA3E
:1026B000780707D0502080F31188BFF34F8FBFF306
:1026C0006F8FFEE73846BDE8F0810000680000200B
:1026D00010B5031F4FF080741C601B1F21F0010117
:1026E0001960191F024B0B60143940380A6010BD85
:1026F000D1250008D0E9013201699A60D0E90123AF
:102700005A604A68824201D182684A6000220261AE
:102710000868401E0860086870470000034B0360AB
:1027200003F1540008608020106070478C00002086
:1027300000F108014FF0FF32C0E90112C1600161F0
:1027400000210160704700210161704730B50B68BE
:102750005A1C02D000F1080202E0026904E022469D
:10276000546825689D42FAD953684B6099608A6025
:10277000516008610168491C016030BD42684A60CF
:1027800093688B6093685960916008610168491C87
:1027900001607047502080F31188BFF34F8FBFF363
:1027A0006F8F0A494868401C486001280CD10848CE
:1027B000006810F0FF0F07D0502080F31188BFF39E
:1027C0004F8FBFF36F8FFEE770470000800000203F
:1027D00004ED00E00849486828B1401E486001D176
:1027E00080F311887047502080F31188BFF34F8F1A
:1027F000BFF36F8FFEE700008000002070B5002857
:1028000027D0144DA0F108046168E868014207D19F
:10281000502080F31188BFF34F8FBFF36F8FFEE717
:1028200022683AB1502080F31188BFF34F8FBFF375
:102830006F8FFEE78143616000F07CF86068696833
:10284000084468602046FFF78DFEBDE8704000F048
:10285000B7B970BD680000204FF0E0200021016191
:10286000816105494FF47A720968B1FBF2F1491EA2
:1028700041610721016170472800002010B5020066
:1028800014D00F48806B38B1502080F31188BFF30B
:102890004F8FBFF36F8FFEE700F04CF8002110461A
:1028A000FFF708FD00F08CF9002807D105494FF02B
:1028B00080500860BFF34F8FBFF36F8F10BD0000D3
:1028C0002C00002004ED00E010B586B00024039435
:1028D00005AA04A903A80494FFF720FFDDE903017A
:1028E0000094CDE9011000230EA11048059A00F0D4
:1028F000D8F80F490028486311D0502080F3118880
:10290000BFF34F8FBFF36F8F4FF0FF30086301208D
:10291000C8614C6106B0BDE8104000F041B806B097
:1029200010BD000049444C4500000000752400081B
:102930002C0000200248816B491C81637047000015
:102940002C0000201448816B11B1012141627047B5
:10295000002141628169B1FA81F1C1F11F0101EBEE
:1029600081020E4951F822306BB101EB820101F175
:1029700008034A6852684A609A4201D152684A6024
:10298000D16801607047502080F31188BFF34F8FEA
:10299000BFF36F8FFEE700002C00002034050020FD
:1029A0001CB5264908780190FF20087008788DF83A
:1029B00000009DF800009DF8002000F0F00090421B
:1029C00007D0502080F31188BFF34F8FBFF36F8F74
:1029D000FEE79DF800001A4B00F050001870072029
:1029E000986005E09DF8002052008DF80020401E00
:1029F0009DF800201206F5D49860032807D05020D7
:102A000080F31188BFF34F8FBFF36F8FFEE74FF452
:102A100040709860019808700A48016841F470019C
:102A20000160016841F070410160FFF715FF00206F
:102A30005860FDF7DDFB00201CBD000000E400E055
:102A40008000002020ED00E02DE9FF5F8346DDE9F6
:102A50000E87994616468A469000FFF7CDFD050081
:102A60001CD05420FFF7C8FD040014D000202563BB
:102A700084F85100CDE90240CDE900874B4632464B
:102A800051465846FFF726FD2046FFF74BFC012034
:102A900004B0BDE8F09F2846FFF7B0FE4FF0FF30CE
:102AA000F6E7F0B585B0DDE90B640A9DA6B1DCB1AF
:102AB000542700972663022684F85160002604AF4D
:102AC000CDE90246CDE90057FFF704FD2046FFF7A8
:102AD00029FC049805B0F0BD502080F31188BFF3A5
:102AE0004F8FBFF36F8FFEE7502080F31188BFF345
:102AF0004F8FBFF36F8FFEE72DE9F0412E4C00277B
:102B0000A06B40B1206A401C2062606A00B10127BE
:102B10003846BDE8F0816669761C666113D160684D
:102B2000006838B1502080F31188BFF34F8FBFF396
:102B30006F8FFEE76068A1686160A060A06A401CBA
:102B4000A062FFF735FD206BDFF87080864209D365
:102B50006068006880B16068C068C568686886425F
:102B60000DD220632068C06A00EB800158F8210074
:102B70000128CAD90127C8E74FF0FF30F1E7281D27
:102B8000FFF7B8FDA86A18B105F11800FFF7B2FD0C
:102B9000E86A0121A26981401143A16100EB800133
:102BA00008EB8100291DFFF7E9FDE86A2168C96A81
:102BB0008842CDD30127CBE72C000020340500202C
:102BC0002DE9F0472C4D00242746A86B38B1FFF7BC
:102BD000E1FDA86B401EA863A86B40B146E0502001
:102BE00080F31188BFF34F8FBFF36F8FFEE7296922
:102BF000224E0120D1B3A6F1B40980463068E8B175
:102C0000F068C46804F11800FFF774FD201DFFF799
:102C100071FDE06AAA6908FA00F11143A96100EBAD
:102C2000800109EB8100211DFFF7A8FDE06A2968FA
:102C3000C96A8842E2D3C5F82480DFE70CB1FFF708
:102C4000B7FC2C6A44B14646FFF756FF00B16E62EE
:102C5000641EF9D100202862686A38B1084901274A
:102C600038070860BFF34F8FBFF36F8FFFF7B2FDD8
:102C70003846BDE8F08700002C000020E805002061
:102C800004ED00E0302D0008751D00080000000074
:102C900000000000800000000000000000000000B4
:102CA000482D0008991D00080000000000000000E9
:102CB0008000000000000000000000003C2D000823
:102CC000611D0008000000000000000080000000FE
:102CD0000000000000000000542D0008AD1D000899
:102CE00000000000000000000001000000000000E3
:102CF00000000000010202030405060708090A0B90
:102D00000C0D0E0F1010010202030405060708093E
:102D10000A0B0C0D0E0F1010000000000000000048
:102D20000102030406070809000000000102030471
:102D300064656661756C745461736B006461656D84
:102D40006F6E7461736B00006D6F746F727461737A
:102D50006B000000726F626F747461736B0000002F
:102D6000802D0008000000208C0000006C0100088D
:102D70000C2E00088C000020FC17000088010008C1
:102D80000000000000000000000000000000000043
:102D90000000000000000000000000000100000032
:102DA00010000000000000000024F40000000000FB
:102DB0000000000000000000000000000000000013
:102DC0000000000000000000000000000000000003
:102DD00000000000000000000000000000000000F3
:102DE00000000000000000000000000000000000E3
:102DF00000000000000000000000000000000000D3
:0C2E000000000000AAAAAAAA000000001E
:0400000508000131BD
:00000001FF
